{
  "_format": "hh-sol-artifact-1",
  "contractName": "DygnifyTreasury",
  "sourceName": "contracts/protocol/DygnifyTreasury.sol",
  "abi": [
    {
      "anonymous": false,
      "inputs": [
        {
          "indexed": false,
          "internalType": "address",
          "name": "previousAdmin",
          "type": "address"
        },
        {
          "indexed": false,
          "internalType": "address",
          "name": "newAdmin",
          "type": "address"
        }
      ],
      "name": "AdminChanged",
      "type": "event"
    },
    {
      "anonymous": false,
      "inputs": [
        {
          "indexed": true,
          "internalType": "address",
          "name": "beacon",
          "type": "address"
        }
      ],
      "name": "BeaconUpgraded",
      "type": "event"
    },
    {
      "anonymous": false,
      "inputs": [
        {
          "indexed": false,
          "internalType": "uint8",
          "name": "version",
          "type": "uint8"
        }
      ],
      "name": "Initialized",
      "type": "event"
    },
    {
      "anonymous": false,
      "inputs": [
        {
          "indexed": false,
          "internalType": "address",
          "name": "account",
          "type": "address"
        }
      ],
      "name": "Paused",
      "type": "event"
    },
    {
      "anonymous": false,
      "inputs": [
        {
          "indexed": true,
          "internalType": "bytes32",
          "name": "role",
          "type": "bytes32"
        },
        {
          "indexed": true,
          "internalType": "bytes32",
          "name": "previousAdminRole",
          "type": "bytes32"
        },
        {
          "indexed": true,
          "internalType": "bytes32",
          "name": "newAdminRole",
          "type": "bytes32"
        }
      ],
      "name": "RoleAdminChanged",
      "type": "event"
    },
    {
      "anonymous": false,
      "inputs": [
        {
          "indexed": true,
          "internalType": "bytes32",
          "name": "role",
          "type": "bytes32"
        },
        {
          "indexed": true,
          "internalType": "address",
          "name": "account",
          "type": "address"
        },
        {
          "indexed": true,
          "internalType": "address",
          "name": "sender",
          "type": "address"
        }
      ],
      "name": "RoleGranted",
      "type": "event"
    },
    {
      "anonymous": false,
      "inputs": [
        {
          "indexed": true,
          "internalType": "bytes32",
          "name": "role",
          "type": "bytes32"
        },
        {
          "indexed": true,
          "internalType": "address",
          "name": "account",
          "type": "address"
        },
        {
          "indexed": true,
          "internalType": "address",
          "name": "sender",
          "type": "address"
        }
      ],
      "name": "RoleRevoked",
      "type": "event"
    },
    {
      "anonymous": false,
      "inputs": [
        {
          "indexed": false,
          "internalType": "address",
          "name": "account",
          "type": "address"
        }
      ],
      "name": "Unpaused",
      "type": "event"
    },
    {
      "anonymous": false,
      "inputs": [
        {
          "indexed": true,
          "internalType": "address",
          "name": "implementation",
          "type": "address"
        }
      ],
      "name": "Upgraded",
      "type": "event"
    },
    {
      "inputs": [],
      "name": "DEFAULT_ADMIN_ROLE",
      "outputs": [
        {
          "internalType": "bytes32",
          "name": "",
          "type": "bytes32"
        }
      ],
      "stateMutability": "view",
      "type": "function"
    },
    {
      "inputs": [
        {
          "internalType": "address",
          "name": "owner",
          "type": "address"
        }
      ],
      "name": "_BaseUpgradeablePausable_init",
      "outputs": [],
      "stateMutability": "nonpayable",
      "type": "function"
    },
    {
      "inputs": [],
      "name": "__PauserPausable__init",
      "outputs": [],
      "stateMutability": "nonpayable",
      "type": "function"
    },
    {
      "inputs": [],
      "name": "dygnifyConfig",
      "outputs": [
        {
          "internalType": "contract DygnifyConfig",
          "name": "",
          "type": "address"
        }
      ],
      "stateMutability": "view",
      "type": "function"
    },
    {
      "inputs": [
        {
          "internalType": "bytes32",
          "name": "role",
          "type": "bytes32"
        }
      ],
      "name": "getRoleAdmin",
      "outputs": [
        {
          "internalType": "bytes32",
          "name": "",
          "type": "bytes32"
        }
      ],
      "stateMutability": "view",
      "type": "function"
    },
    {
      "inputs": [],
      "name": "getTreasuryBalance",
      "outputs": [
        {
          "internalType": "uint256",
          "name": "",
          "type": "uint256"
        }
      ],
      "stateMutability": "view",
      "type": "function"
    },
    {
      "inputs": [
        {
          "internalType": "bytes32",
          "name": "role",
          "type": "bytes32"
        },
        {
          "internalType": "address",
          "name": "account",
          "type": "address"
        }
      ],
      "name": "grantRole",
      "outputs": [],
      "stateMutability": "nonpayable",
      "type": "function"
    },
    {
      "inputs": [
        {
          "internalType": "bytes32",
          "name": "role",
          "type": "bytes32"
        },
        {
          "internalType": "address",
          "name": "account",
          "type": "address"
        }
      ],
      "name": "hasRole",
      "outputs": [
        {
          "internalType": "bool",
          "name": "",
          "type": "bool"
        }
      ],
      "stateMutability": "view",
      "type": "function"
    },
    {
      "inputs": [
        {
          "internalType": "contract DygnifyConfig",
          "name": "_dygnifyConfig",
          "type": "address"
        }
      ],
      "name": "initialize",
      "outputs": [],
      "stateMutability": "nonpayable",
      "type": "function"
    },
    {
      "inputs": [],
      "name": "isAdmin",
      "outputs": [
        {
          "internalType": "bool",
          "name": "",
          "type": "bool"
        }
      ],
      "stateMutability": "view",
      "type": "function"
    },
    {
      "inputs": [],
      "name": "pause",
      "outputs": [],
      "stateMutability": "nonpayable",
      "type": "function"
    },
    {
      "inputs": [],
      "name": "paused",
      "outputs": [
        {
          "internalType": "bool",
          "name": "",
          "type": "bool"
        }
      ],
      "stateMutability": "view",
      "type": "function"
    },
    {
      "inputs": [],
      "name": "proxiableUUID",
      "outputs": [
        {
          "internalType": "bytes32",
          "name": "",
          "type": "bytes32"
        }
      ],
      "stateMutability": "view",
      "type": "function"
    },
    {
      "inputs": [
        {
          "internalType": "bytes32",
          "name": "role",
          "type": "bytes32"
        },
        {
          "internalType": "address",
          "name": "account",
          "type": "address"
        }
      ],
      "name": "renounceRole",
      "outputs": [],
      "stateMutability": "nonpayable",
      "type": "function"
    },
    {
      "inputs": [
        {
          "internalType": "address",
          "name": "to",
          "type": "address"
        },
        {
          "internalType": "uint256",
          "name": "value",
          "type": "uint256"
        }
      ],
      "name": "reqTx",
      "outputs": [],
      "stateMutability": "nonpayable",
      "type": "function"
    },
    {
      "inputs": [
        {
          "internalType": "bytes32",
          "name": "role",
          "type": "bytes32"
        },
        {
          "internalType": "address",
          "name": "account",
          "type": "address"
        }
      ],
      "name": "revokeRole",
      "outputs": [],
      "stateMutability": "nonpayable",
      "type": "function"
    },
    {
      "inputs": [
        {
          "internalType": "address",
          "name": "_wallet",
          "type": "address"
        }
      ],
      "name": "setWallet",
      "outputs": [],
      "stateMutability": "nonpayable",
      "type": "function"
    },
    {
      "inputs": [
        {
          "internalType": "bytes4",
          "name": "interfaceId",
          "type": "bytes4"
        }
      ],
      "name": "supportsInterface",
      "outputs": [
        {
          "internalType": "bool",
          "name": "",
          "type": "bool"
        }
      ],
      "stateMutability": "view",
      "type": "function"
    },
    {
      "inputs": [],
      "name": "unpause",
      "outputs": [],
      "stateMutability": "nonpayable",
      "type": "function"
    },
    {
      "inputs": [
        {
          "internalType": "address",
          "name": "newImplementation",
          "type": "address"
        }
      ],
      "name": "upgradeTo",
      "outputs": [],
      "stateMutability": "nonpayable",
      "type": "function"
    },
    {
      "inputs": [
        {
          "internalType": "address",
          "name": "newImplementation",
          "type": "address"
        },
        {
          "internalType": "bytes",
          "name": "data",
          "type": "bytes"
        }
      ],
      "name": "upgradeToAndCall",
      "outputs": [],
      "stateMutability": "payable",
      "type": "function"
    },
    {
      "inputs": [],
      "name": "usdcToken",
      "outputs": [
        {
          "internalType": "contract IERC20",
          "name": "",
          "type": "address"
        }
      ],
      "stateMutability": "view",
      "type": "function"
    },
    {
      "inputs": [
        {
          "internalType": "address",
          "name": "to",
          "type": "address"
        },
        {
          "internalType": "uint256",
          "name": "amount",
          "type": "uint256"
        }
      ],
      "name": "withdraw",
      "outputs": [],
      "stateMutability": "nonpayable",
      "type": "function"
    }
  ],
  "bytecode": "0x60a06040523060601b60805234801561001757600080fd5b5060805160601c611ffa610052600039600081816104f60152818161053601528181610664015281816106a401526107e50152611ffa6000f3fe6080604052600436106101405760003560e01c806352d1902d116100b6578063a217fddf1161006f578063a217fddf1461035d578063b6db75a014610372578063c4d66de814610387578063d547741f146103a7578063deaa59df146103c7578063f3fef3a3146103e757600080fd5b806352d1902d146102c65780635c975abb146102db5780638456cb59146102f357806391d14854146103085780639b5655dc14610328578063a12dde4d1461033d57600080fd5b806336568abe1161010857806336568abe146102295780633659cfe6146102495780633f4ba83a14610269578063474bb7901461027e5780634f1ef2861461029e578063526d81f6146102b157600080fd5b806301ffc9a71461014557806311eac8551461017a5780631be95459146101a8578063248a9ca3146101c95780632f2ff15d14610207575b600080fd5b34801561015157600080fd5b50610165610160366004611c00565b610407565b60405190151581526020015b60405180910390f35b34801561018657600080fd5b506101605461019b906001600160a01b031681565b6040516101719190611cb3565b3480156101b457600080fd5b5061015f5461019b906001600160a01b031681565b3480156101d557600080fd5b506101f96101e4366004611ba1565b60009081526065602052604090206001015490565b604051908152602001610171565b34801561021357600080fd5b50610227610222366004611bd1565b61043e565b005b34801561023557600080fd5b50610227610244366004611bd1565b610468565b34801561025557600080fd5b50610227610264366004611a5f565b6104eb565b34801561027557600080fd5b506102276105b4565b34801561028a57600080fd5b50610227610299366004611b56565b6105eb565b6102276102ac366004611a97565b610659565b3480156102bd57600080fd5b5061022761070f565b3480156102d257600080fd5b506101f96107d8565b3480156102e757600080fd5b5060975460ff16610165565b3480156102ff57600080fd5b50610227610886565b34801561031457600080fd5b50610165610323366004611bd1565b6108b5565b34801561033457600080fd5b506101f96108e0565b34801561034957600080fd5b50610227610358366004611a5f565b610966565b34801561036957600080fd5b506101f9600081565b34801561037e57600080fd5b50610165610a3a565b34801561039357600080fd5b506102276103a2366004611a5f565b610a4c565b3480156103b357600080fd5b506102276103c2366004611bd1565b610c11565b3480156103d357600080fd5b506102276103e2366004611a5f565b610c36565b3480156103f357600080fd5b50610227610402366004611b56565b610c7d565b60006001600160e01b03198216637965db0b60e01b148061043857506301ffc9a760e01b6001600160e01b03198316145b92915050565b60008281526065602052604090206001015461045981610dca565b6104638383610dd4565b505050565b6001600160a01b03811633146104dd5760405162461bcd60e51b815260206004820152602f60248201527f416363657373436f6e74726f6c3a2063616e206f6e6c792072656e6f756e636560448201526e103937b632b9903337b91039b2b63360891b60648201526084015b60405180910390fd5b6104e78282610e5a565b5050565b306001600160a01b037f00000000000000000000000000000000000000000000000000000000000000001614156105345760405162461bcd60e51b81526004016104d490611d46565b7f00000000000000000000000000000000000000000000000000000000000000006001600160a01b0316610566610ec1565b6001600160a01b03161461058c5760405162461bcd60e51b81526004016104d490611d92565b61059581610edd565b604080516000808252602082019092526105b191839190610f01565b50565b6105c56105bf61107b565b336108b5565b6105e15760405162461bcd60e51b81526004016104d490611cfa565b6105e961109f565b565b61016154604051631d43b65360e01b81526001600160a01b03848116600483015260248201849052909116908190631d43b65390604401600060405180830381600087803b15801561063c57600080fd5b505af1158015610650573d6000803e3d6000fd5b50505050505050565b306001600160a01b037f00000000000000000000000000000000000000000000000000000000000000001614156106a25760405162461bcd60e51b81526004016104d490611d46565b7f00000000000000000000000000000000000000000000000000000000000000006001600160a01b03166106d4610ec1565b6001600160a01b0316146106fa5760405162461bcd60e51b81526004016104d490611d92565b61070382610edd565b6104e782826001610f01565b600054610100900460ff161580801561072f5750600054600160ff909116105b806107495750303b158015610749575060005460ff166001145b6107655760405162461bcd60e51b81526004016104d490611dde565b6000805460ff191660011790558015610788576000805461ff0019166101001790555b6107906110eb565b80156105b1576000805461ff0019169055604051600181527f7f26b83ff96e1f2b6a682f133852f6798a09c465da95921460cefb38474024989060200160405180910390a150565b6000306001600160a01b037f000000000000000000000000000000000000000000000000000000000000000016146108735760405162461bcd60e51b815260206004820152603860248201527f555550535570677261646561626c653a206d757374206e6f742062652063616c6044820152771b1959081d1a1c9bdd59da0819195b1959d85d1958d85b1b60421b60648201526084016104d4565b50600080516020611f7e83398151915290565b6108916105bf61107b565b6108ad5760405162461bcd60e51b81526004016104d490611cfa565b6105e961111e565b60009182526065602090815260408084206001600160a01b0393909316845291905290205460ff1690565b610160546040516370a0823160e01b815260009182916001600160a01b03909116906370a0823190610916903090600401611cb3565b60206040518083038186803b15801561092e57600080fd5b505afa158015610942573d6000803e3d6000fd5b505050506040513d601f19601f820116820180604052508101906104389190611bb9565b600054610100900460ff1661098d5760405162461bcd60e51b81526004016104d490611e2c565b6001600160a01b0381166109e35760405162461bcd60e51b815260206004820181905260248201527f4f776e65722063616e6e6f7420626520746865207a65726f206164647265737360448201526064016104d4565b6109eb61115b565b6109f36110eb565b6109fb611182565b610a0c610a066111b0565b826111d4565b610a17610a0661107b565b610a2f610a2261107b565b610a2a6111b0565b6111de565b6105b1610a226111b0565b6000610a476105bf6111b0565b905090565b600054610100900460ff1615808015610a6c5750600054600160ff909116105b80610a865750303b158015610a86575060005460ff166001145b610aa25760405162461bcd60e51b81526004016104d490611dde565b6000805460ff191660011790558015610ac5576000805461ff0019166101001790555b6001600160a01b038216610b145760405162461bcd60e51b8152602060048201526016602482015275496e76616c696420636f6e666967206164647265737360501b60448201526064016104d4565b61015f80546001600160a01b0319166001600160a01b038416908117909155600090610b3f90611229565b90506001600160a01b038116610b875760405162461bcd60e51b815260206004820152600d60248201526c24b73b30b634b21027bbb732b960991b60448201526064016104d4565b610b9081610966565b61015f54610ba6906001600160a01b03166112aa565b61016080546001600160a01b0319166001600160a01b03929092169190911790555080156104e7576000805461ff0019169055604051600181527f7f26b83ff96e1f2b6a682f133852f6798a09c465da95921460cefb38474024989060200160405180910390a15050565b600082815260656020526040902060010154610c2c81610dca565b6104638383610e5a565b610c3e610a3a565b610c5a5760405162461bcd60e51b81526004016104d490611e77565b61016180546001600160a01b0319166001600160a01b0392909216919091179055565b610c856112c2565b610c8d61131c565b60008111610cdd5760405162461bcd60e51b815260206004820181905260248201527f616d6f756e74206d7573742062652067726561746572207468616e207a65726f60448201526064016104d4565b610161546001600160a01b03163314610d385760405162461bcd60e51b815260206004820152601d60248201527f6e6f7420616c6c6f776564206f757473696465207472616e6374696f6e00000060448201526064016104d4565b6000610d426108e0565b905080821115610da65760405162461bcd60e51b815260206004820152602960248201527f616d6f756e7420657863656564732074686520746f74616c2074726561737572604482015268792062616c616e636560b81b60648201526084016104d4565b61016054610dbf906001600160a01b0316308585611362565b506104e7600160c955565b6105b181336113c2565b610dde82826108b5565b6104e75760008281526065602090815260408083206001600160a01b03851684529091529020805460ff19166001179055610e163390565b6001600160a01b0316816001600160a01b0316837f2f8788117e7eff1d82e926ec794901d17c78024a50270940304540a733656f0d60405160405180910390a45050565b610e6482826108b5565b156104e75760008281526065602090815260408083206001600160a01b0385168085529252808320805460ff1916905551339285917ff6391f5c32d9c69d2a47ea670b442974b53935d1edc7fd64eb21e047a839171b9190a45050565b600080516020611f7e833981519152546001600160a01b031690565b610ee5610a3a565b6105b15760405162461bcd60e51b81526004016104d490611e77565b7f4910fdfa16fed3260ed0e7147f7cc6da11a60208b5b9406d12a635614ffd91435460ff1615610f34576104638361141b565b826001600160a01b03166352d1902d6040518163ffffffff1660e01b815260040160206040518083038186803b158015610f6d57600080fd5b505afa925050508015610f9d575060408051601f3d908101601f19168201909252610f9a91810190611bb9565b60015b6110005760405162461bcd60e51b815260206004820152602e60248201527f45524331393637557067726164653a206e657720696d706c656d656e7461746960448201526d6f6e206973206e6f74205555505360901b60648201526084016104d4565b600080516020611f7e833981519152811461106f5760405162461bcd60e51b815260206004820152602960248201527f45524331393637557067726164653a20756e737570706f727465642070726f786044820152681a58589b195555525160ba1b60648201526084016104d4565b506104638383836114b7565b7f65d7a28e3265b37a6474929f336521b332c1681b933f6cb9f3376673440d862a90565b6110a76114dc565b6097805460ff191690557f5db9ee0a495bf2e6ff9c91a7834c1ba4fdd244a5e8aa4e537bd38aeae4b073aa335b6040516110e19190611cb3565b60405180910390a1565b600054610100900460ff166111125760405162461bcd60e51b81526004016104d490611e2c565b6097805460ff19169055565b61112661131c565b6097805460ff191660011790557f62e78cea01bee320cd4e420270b5ea74000d11b0c9f74754ebdbfc544b05a2586110d43390565b600054610100900460ff166105e95760405162461bcd60e51b81526004016104d490611e2c565b600054610100900460ff166111a95760405162461bcd60e51b81526004016104d490611e2c565b600160c955565b7fa49807205ce4d355092ef5a8a18f56e8913cf4a201fbe287825b095693c2177590565b6104e78282610dd4565b600082815260656020526040808220600101805490849055905190918391839186917fbd79b86ffe0ab8e8776151514217cd7cacd52c909f66475c3af44e129f0b00ff9190a4505050565b60006001600160a01b03821663b93f9b0a825b6040518263ffffffff1660e01b815260040161125a91815260200190565b60206040518083038186803b15801561127257600080fd5b505afa158015611286573d6000803e3d6000fd5b505050506040513d601f19601f820116820180604052508101906104389190611a7b565b60006001600160a01b03821663b93f9b0a600261123c565b600260c95414156113155760405162461bcd60e51b815260206004820152601f60248201527f5265656e7472616e637947756172643a207265656e7472616e742063616c6c0060448201526064016104d4565b600260c955565b60975460ff16156105e95760405162461bcd60e51b815260206004820152601060248201526f14185d5cd8589b194e881c185d5cd95960821b60448201526064016104d4565b604080516001600160a01b0385811660248301528416604482015260648082018490528251808303909101815260849091019091526020810180516001600160e01b03166323b872dd60e01b1790526113bc908590611525565b50505050565b6113cc82826108b5565b6104e7576113d9816115fa565b6113e483602061160c565b6040516020016113f5929190611c44565b60408051601f198184030181529082905262461bcd60e51b82526104d491600401611cc7565b6001600160a01b0381163b6114885760405162461bcd60e51b815260206004820152602d60248201527f455243313936373a206e657720696d706c656d656e746174696f6e206973206e60448201526c1bdd08184818dbdb9d1c9858dd609a1b60648201526084016104d4565b600080516020611f7e83398151915280546001600160a01b0319166001600160a01b0392909216919091179055565b6114c0836117f5565b6000825111806114cd5750805b15610463576113bc8383611835565b60975460ff166105e95760405162461bcd60e51b815260206004820152601460248201527314185d5cd8589b194e881b9bdd081c185d5cd95960621b60448201526064016104d4565b600061157a826040518060400160405280602081526020017f5361666545524332303a206c6f772d6c6576656c2063616c6c206661696c6564815250856001600160a01b031661185a9092919063ffffffff16565b905080516000148061159b57508080602001905181019061159b9190611b81565b6104635760405162461bcd60e51b815260206004820152602a60248201527f5361666545524332303a204552433230206f7065726174696f6e20646964206e6044820152691bdd081cdd58d8d9595960b21b60648201526084016104d4565b60606104386001600160a01b03831660145b6060600061161b836002611eda565b611626906002611ec2565b67ffffffffffffffff81111561164c57634e487b7160e01b600052604160045260246000fd5b6040519080825280601f01601f191660200182016040528015611676576020820181803683370190505b509050600360fc1b8160008151811061169f57634e487b7160e01b600052603260045260246000fd5b60200101906001600160f81b031916908160001a905350600f60fb1b816001815181106116dc57634e487b7160e01b600052603260045260246000fd5b60200101906001600160f81b031916908160001a9053506000611700846002611eda565b61170b906001611ec2565b90505b600181111561179f576f181899199a1a9b1b9c1cb0b131b232b360811b85600f166010811061174d57634e487b7160e01b600052603260045260246000fd5b1a60f81b82828151811061177157634e487b7160e01b600052603260045260246000fd5b60200101906001600160f81b031916908160001a90535060049490941c9361179881611f25565b905061170e565b5083156117ee5760405162461bcd60e51b815260206004820181905260248201527f537472696e67733a20686578206c656e67746820696e73756666696369656e7460448201526064016104d4565b9392505050565b6117fe8161141b565b6040516001600160a01b038216907fbc7cd75a20ee27fd9adebab32041f755214dbc6bffa90cc0225b39da2e5c2d3b90600090a250565b60606117ee8383604051806060016040528060278152602001611f9e60279139611871565b606061186984846000856118e9565b949350505050565b6060600080856001600160a01b03168560405161188e9190611c28565b600060405180830381855af49150503d80600081146118c9576040519150601f19603f3d011682016040523d82523d6000602084013e6118ce565b606091505b50915091506118df868383876119c4565b9695505050505050565b60608247101561194a5760405162461bcd60e51b815260206004820152602660248201527f416464726573733a20696e73756666696369656e742062616c616e636520666f6044820152651c8818d85b1b60d21b60648201526084016104d4565b600080866001600160a01b031685876040516119669190611c28565b60006040518083038185875af1925050503d80600081146119a3576040519150601f19603f3d011682016040523d82523d6000602084013e6119a8565b606091505b50915091506119b9878383876119c4565b979650505050505050565b60608315611a30578251611a29576001600160a01b0385163b611a295760405162461bcd60e51b815260206004820152601d60248201527f416464726573733a2063616c6c20746f206e6f6e2d636f6e747261637400000060448201526064016104d4565b5081611869565b6118698383815115611a455781518083602001fd5b8060405162461bcd60e51b81526004016104d49190611cc7565b600060208284031215611a70578081fd5b81356117ee81611f68565b600060208284031215611a8c578081fd5b81516117ee81611f68565b60008060408385031215611aa9578081fd5b8235611ab481611f68565b9150602083013567ffffffffffffffff80821115611ad0578283fd5b818501915085601f830112611ae3578283fd5b813581811115611af557611af5611f52565b604051601f8201601f19908116603f01168101908382118183101715611b1d57611b1d611f52565b81604052828152886020848701011115611b35578586fd5b82602086016020830137856020848301015280955050505050509250929050565b60008060408385031215611b68578182fd5b8235611b7381611f68565b946020939093013593505050565b600060208284031215611b92578081fd5b815180151581146117ee578182fd5b600060208284031215611bb2578081fd5b5035919050565b600060208284031215611bca578081fd5b5051919050565b60008060408385031215611be3578182fd5b823591506020830135611bf581611f68565b809150509250929050565b600060208284031215611c11578081fd5b81356001600160e01b0319811681146117ee578182fd5b60008251611c3a818460208701611ef9565b9190910192915050565b76020b1b1b2b9b9a1b7b73a3937b61d1030b1b1b7bab73a1604d1b815260008351611c76816017850160208801611ef9565b7001034b99036b4b9b9b4b733903937b6329607d1b6017918401918201528351611ca7816028840160208801611ef9565b01602801949350505050565b6001600160a01b0391909116815260200190565b6020815260008251806020840152611ce6816040850160208701611ef9565b601f01601f19169190910160400192915050565b6020808252602c908201527f4d75737420686176652070617573657220726f6c6520746f20706572666f726d60408201526b103a3434b99030b1ba34b7b760a11b606082015260800190565b6020808252602c908201527f46756e6374696f6e206d7573742062652063616c6c6564207468726f7567682060408201526b19195b1959d85d1958d85b1b60a21b606082015260800190565b6020808252602c908201527f46756e6374696f6e206d7573742062652063616c6c6564207468726f7567682060408201526b6163746976652070726f787960a01b606082015260800190565b6020808252602e908201527f496e697469616c697a61626c653a20636f6e747261637420697320616c72656160408201526d191e481a5b9a5d1a585b1a5e995960921b606082015260800190565b6020808252602b908201527f496e697469616c697a61626c653a20636f6e7472616374206973206e6f74206960408201526a6e697469616c697a696e6760a81b606082015260800190565b6020808252602b908201527f4d75737420686176652061646d696e20726f6c6520746f20706572666f726d2060408201526a3a3434b99030b1ba34b7b760a91b606082015260800190565b60008219821115611ed557611ed5611f3c565b500190565b6000816000190483118215151615611ef457611ef4611f3c565b500290565b60005b83811015611f14578181015183820152602001611efc565b838111156113bc5750506000910152565b600081611f3457611f34611f3c565b506000190190565b634e487b7160e01b600052601160045260246000fd5b634e487b7160e01b600052604160045260246000fd5b6001600160a01b03811681146105b157600080fdfe360894a13ba1a3210667c828492db98dca3e2076cc3735a920a3ca505d382bbc416464726573733a206c6f772d6c6576656c2064656c65676174652063616c6c206661696c6564a264697066735822122021bfef9f27e53706eecef3f75acab6fd4f27f3adae279853efa7d1204cbe8d1864736f6c63430008040033",
  "linkReferences": {},
  "deployedLinkReferences": {}
}