{
  "_format": "hh-sol-artifact-1",
  "contractName": "LPToken",
  "sourceName": "contracts/protocol/LPToken.sol",
  "abi": [
    {
      "anonymous": false,
      "inputs": [
        {
          "indexed": true,
          "internalType": "address",
          "name": "owner",
          "type": "address"
        },
        {
          "indexed": true,
          "internalType": "address",
          "name": "spender",
          "type": "address"
        },
        {
          "indexed": false,
          "internalType": "uint256",
          "name": "value",
          "type": "uint256"
        }
      ],
      "name": "Approval",
      "type": "event"
    },
    {
      "anonymous": false,
      "inputs": [
        {
          "indexed": false,
          "internalType": "uint8",
          "name": "version",
          "type": "uint8"
        }
      ],
      "name": "Initialized",
      "type": "event"
    },
    {
      "anonymous": false,
      "inputs": [
        {
          "indexed": true,
          "internalType": "bytes32",
          "name": "role",
          "type": "bytes32"
        },
        {
          "indexed": true,
          "internalType": "bytes32",
          "name": "previousAdminRole",
          "type": "bytes32"
        },
        {
          "indexed": true,
          "internalType": "bytes32",
          "name": "newAdminRole",
          "type": "bytes32"
        }
      ],
      "name": "RoleAdminChanged",
      "type": "event"
    },
    {
      "anonymous": false,
      "inputs": [
        {
          "indexed": true,
          "internalType": "bytes32",
          "name": "role",
          "type": "bytes32"
        },
        {
          "indexed": true,
          "internalType": "address",
          "name": "account",
          "type": "address"
        },
        {
          "indexed": true,
          "internalType": "address",
          "name": "sender",
          "type": "address"
        }
      ],
      "name": "RoleGranted",
      "type": "event"
    },
    {
      "anonymous": false,
      "inputs": [
        {
          "indexed": true,
          "internalType": "bytes32",
          "name": "role",
          "type": "bytes32"
        },
        {
          "indexed": true,
          "internalType": "address",
          "name": "account",
          "type": "address"
        },
        {
          "indexed": true,
          "internalType": "address",
          "name": "sender",
          "type": "address"
        }
      ],
      "name": "RoleRevoked",
      "type": "event"
    },
    {
      "anonymous": false,
      "inputs": [
        {
          "indexed": true,
          "internalType": "address",
          "name": "from",
          "type": "address"
        },
        {
          "indexed": true,
          "internalType": "address",
          "name": "to",
          "type": "address"
        },
        {
          "indexed": false,
          "internalType": "uint256",
          "name": "value",
          "type": "uint256"
        }
      ],
      "name": "Transfer",
      "type": "event"
    },
    {
      "inputs": [],
      "name": "DEFAULT_ADMIN_ROLE",
      "outputs": [
        {
          "internalType": "bytes32",
          "name": "",
          "type": "bytes32"
        }
      ],
      "stateMutability": "view",
      "type": "function"
    },
    {
      "inputs": [
        {
          "internalType": "address",
          "name": "owner",
          "type": "address"
        },
        {
          "internalType": "address",
          "name": "spender",
          "type": "address"
        }
      ],
      "name": "allowance",
      "outputs": [
        {
          "internalType": "uint256",
          "name": "",
          "type": "uint256"
        }
      ],
      "stateMutability": "view",
      "type": "function"
    },
    {
      "inputs": [
        {
          "internalType": "address",
          "name": "spender",
          "type": "address"
        },
        {
          "internalType": "uint256",
          "name": "amount",
          "type": "uint256"
        }
      ],
      "name": "approve",
      "outputs": [
        {
          "internalType": "bool",
          "name": "",
          "type": "bool"
        }
      ],
      "stateMutability": "nonpayable",
      "type": "function"
    },
    {
      "inputs": [
        {
          "internalType": "address",
          "name": "account",
          "type": "address"
        }
      ],
      "name": "balanceOf",
      "outputs": [
        {
          "internalType": "uint256",
          "name": "",
          "type": "uint256"
        }
      ],
      "stateMutability": "view",
      "type": "function"
    },
    {
      "inputs": [
        {
          "internalType": "address",
          "name": "_to",
          "type": "address"
        },
        {
          "internalType": "uint256",
          "name": "amount",
          "type": "uint256"
        }
      ],
      "name": "burn",
      "outputs": [],
      "stateMutability": "nonpayable",
      "type": "function"
    },
    {
      "inputs": [],
      "name": "decimals",
      "outputs": [
        {
          "internalType": "uint8",
          "name": "",
          "type": "uint8"
        }
      ],
      "stateMutability": "view",
      "type": "function"
    },
    {
      "inputs": [
        {
          "internalType": "address",
          "name": "spender",
          "type": "address"
        },
        {
          "internalType": "uint256",
          "name": "subtractedValue",
          "type": "uint256"
        }
      ],
      "name": "decreaseAllowance",
      "outputs": [
        {
          "internalType": "bool",
          "name": "",
          "type": "bool"
        }
      ],
      "stateMutability": "nonpayable",
      "type": "function"
    },
    {
      "inputs": [
        {
          "internalType": "bytes32",
          "name": "role",
          "type": "bytes32"
        }
      ],
      "name": "getRoleAdmin",
      "outputs": [
        {
          "internalType": "bytes32",
          "name": "",
          "type": "bytes32"
        }
      ],
      "stateMutability": "view",
      "type": "function"
    },
    {
      "inputs": [
        {
          "internalType": "bytes32",
          "name": "role",
          "type": "bytes32"
        },
        {
          "internalType": "address",
          "name": "account",
          "type": "address"
        }
      ],
      "name": "grantRole",
      "outputs": [],
      "stateMutability": "nonpayable",
      "type": "function"
    },
    {
      "inputs": [
        {
          "internalType": "bytes32",
          "name": "role",
          "type": "bytes32"
        },
        {
          "internalType": "address",
          "name": "account",
          "type": "address"
        }
      ],
      "name": "hasRole",
      "outputs": [
        {
          "internalType": "bool",
          "name": "",
          "type": "bool"
        }
      ],
      "stateMutability": "view",
      "type": "function"
    },
    {
      "inputs": [
        {
          "internalType": "address",
          "name": "spender",
          "type": "address"
        },
        {
          "internalType": "uint256",
          "name": "addedValue",
          "type": "uint256"
        }
      ],
      "name": "increaseAllowance",
      "outputs": [
        {
          "internalType": "bool",
          "name": "",
          "type": "bool"
        }
      ],
      "stateMutability": "nonpayable",
      "type": "function"
    },
    {
      "inputs": [
        {
          "internalType": "address",
          "name": "_stakingContract",
          "type": "address"
        }
      ],
      "name": "initialize",
      "outputs": [],
      "stateMutability": "nonpayable",
      "type": "function"
    },
    {
      "inputs": [
        {
          "internalType": "address",
          "name": "_to",
          "type": "address"
        },
        {
          "internalType": "uint256",
          "name": "amount",
          "type": "uint256"
        }
      ],
      "name": "mint",
      "outputs": [],
      "stateMutability": "nonpayable",
      "type": "function"
    },
    {
      "inputs": [],
      "name": "name",
      "outputs": [
        {
          "internalType": "string",
          "name": "",
          "type": "string"
        }
      ],
      "stateMutability": "view",
      "type": "function"
    },
    {
      "inputs": [
        {
          "internalType": "bytes32",
          "name": "role",
          "type": "bytes32"
        },
        {
          "internalType": "address",
          "name": "account",
          "type": "address"
        }
      ],
      "name": "renounceRole",
      "outputs": [],
      "stateMutability": "nonpayable",
      "type": "function"
    },
    {
      "inputs": [
        {
          "internalType": "bytes32",
          "name": "role",
          "type": "bytes32"
        },
        {
          "internalType": "address",
          "name": "account",
          "type": "address"
        }
      ],
      "name": "revokeRole",
      "outputs": [],
      "stateMutability": "nonpayable",
      "type": "function"
    },
    {
      "inputs": [
        {
          "internalType": "bytes4",
          "name": "interfaceId",
          "type": "bytes4"
        }
      ],
      "name": "supportsInterface",
      "outputs": [
        {
          "internalType": "bool",
          "name": "",
          "type": "bool"
        }
      ],
      "stateMutability": "view",
      "type": "function"
    },
    {
      "inputs": [],
      "name": "symbol",
      "outputs": [
        {
          "internalType": "string",
          "name": "",
          "type": "string"
        }
      ],
      "stateMutability": "view",
      "type": "function"
    },
    {
      "inputs": [],
      "name": "totalShares",
      "outputs": [
        {
          "internalType": "uint256",
          "name": "",
          "type": "uint256"
        }
      ],
      "stateMutability": "view",
      "type": "function"
    },
    {
      "inputs": [],
      "name": "totalSupply",
      "outputs": [
        {
          "internalType": "uint256",
          "name": "",
          "type": "uint256"
        }
      ],
      "stateMutability": "view",
      "type": "function"
    },
    {
      "inputs": [
        {
          "internalType": "address",
          "name": "to",
          "type": "address"
        },
        {
          "internalType": "uint256",
          "name": "amount",
          "type": "uint256"
        }
      ],
      "name": "transfer",
      "outputs": [
        {
          "internalType": "bool",
          "name": "",
          "type": "bool"
        }
      ],
      "stateMutability": "nonpayable",
      "type": "function"
    },
    {
      "inputs": [
        {
          "internalType": "address",
          "name": "from",
          "type": "address"
        },
        {
          "internalType": "address",
          "name": "to",
          "type": "address"
        },
        {
          "internalType": "uint256",
          "name": "amount",
          "type": "uint256"
        }
      ],
      "name": "transferFrom",
      "outputs": [
        {
          "internalType": "bool",
          "name": "",
          "type": "bool"
        }
      ],
      "stateMutability": "nonpayable",
      "type": "function"
    }
  ],
  "bytecode": "0x608060405234801561001057600080fd5b5061154b806100206000396000f3fe608060405234801561001057600080fd5b50600436106101425760003560e01c806340c10f19116100b8578063a217fddf1161007c578063a217fddf1461029c578063a457c2d7146102a4578063a9059cbb146102b7578063c4d66de8146102ca578063d547741f146102dd578063dd62ed3e146102f057600080fd5b806340c10f191461023257806370a082311461024557806391d148541461026e57806395d89b41146102815780639dc29fac1461028957600080fd5b8063248a9ca31161010a578063248a9ca3146101bc5780632f2ff15d146101df578063313ce567146101f457806336568abe1461020357806339509351146102165780633a98ef391461022957600080fd5b806301ffc9a71461014757806306fdde031461016f578063095ea7b31461018457806318160ddd1461019757806323b872dd146101a9575b600080fd5b61015a6101553660046112cf565b610303565b60405190151581526020015b60405180910390f35b61017761033a565b6040516101669190611366565b61015a61019236600461126c565b6103cc565b6099545b604051908152602001610166565b61015a6101b7366004611231565b6103e4565b61019b6101ca366004611295565b60009081526065602052604090206001015490565b6101f26101ed3660046112ad565b610408565b005b60405160068152602001610166565b6101f26102113660046112ad565b610432565b61015a61022436600461126c565b6104b5565b61019b60c95481565b6101f261024036600461126c565b6104d7565b61019b6102533660046111e5565b6001600160a01b031660009081526097602052604090205490565b61015a61027c3660046112ad565b61051f565b61017761054a565b6101f261029736600461126c565b610559565b61019b600081565b61015a6102b236600461126c565b61059b565b61015a6102c536600461126c565b610616565b6101f26102d83660046111e5565b610624565b6101f26102eb3660046112ad565b6107dd565b61019b6102fe3660046111ff565b610802565b60006001600160e01b03198216637965db0b60e01b148061033457506301ffc9a760e01b6001600160e01b03198316145b92915050565b6060609a8054610349906114a4565b80601f0160208091040260200160405190810160405280929190818152602001828054610375906114a4565b80156103c25780601f10610397576101008083540402835291602001916103c2565b820191906000526020600020905b8154815290600101906020018083116103a557829003601f168201915b5050505050905090565b6000336103da81858561082d565b5060019392505050565b6000336103f2858285610951565b6103fd8585856109cb565b506001949350505050565b60008281526065602052604090206001015461042381610b64565b61042d8383610b71565b505050565b6001600160a01b03811633146104a75760405162461bcd60e51b815260206004820152602f60248201527f416363657373436f6e74726f6c3a2063616e206f6e6c792072656e6f756e636560448201526e103937b632b9903337b91039b2b63360891b60648201526084015b60405180910390fd5b6104b18282610bf7565b5050565b6000336103da8185856104c88383610802565b6104d29190611413565b61082d565b6104e86104e2610c5e565b3361051f565b6105045760405162461bcd60e51b815260040161049e90611399565b8060c9546105129190611413565b60c9556104b18282610c82565b60009182526065602090815260408084206001600160a01b0393909316845291905290205460ff1690565b6060609b8054610349906114a4565b6105646104e2610c5e565b6105805760405162461bcd60e51b815260040161049e90611399565b8060c95461058e919061144a565b60c9556104b18282610d31565b600033816105a98286610802565b9050838110156106095760405162461bcd60e51b815260206004820152602560248201527f45524332303a2064656372656173656420616c6c6f77616e63652062656c6f77604482015264207a65726f60d81b606482015260840161049e565b6103fd828686840361082d565b6000336103da8185856109cb565b600054610100900460ff16158080156106445750600054600160ff909116105b8061065e5750303b15801561065e575060005460ff166001145b6106c15760405162461bcd60e51b815260206004820152602e60248201527f496e697469616c697a61626c653a20636f6e747261637420697320616c72656160448201526d191e481a5b9a5d1a585b1a5e995960921b606482015260840161049e565b6000805460ff1916600117905580156106e4576000805461ff0019166101001790555b6001600160a01b0382166107345760405162461bcd60e51b8152602060048201526017602482015276496e76616c6964207374616b696e67206164647265737360481b604482015260640161049e565b61077860405180604001604052806008815260200167088f2cedcd2ccf2b60c31b81525060405180604001604052806002815260200161088b60f31b815250610e53565b610789610783610c5e565b83610e84565b610794600033610e84565b80156104b1576000805461ff0019169055604051600181527f7f26b83ff96e1f2b6a682f133852f6798a09c465da95921460cefb38474024989060200160405180910390a15050565b6000828152606560205260409020600101546107f881610b64565b61042d8383610bf7565b6001600160a01b03918216600090815260986020908152604080832093909416825291909152205490565b6001600160a01b03831661088f5760405162461bcd60e51b8152602060048201526024808201527f45524332303a20617070726f76652066726f6d20746865207a65726f206164646044820152637265737360e01b606482015260840161049e565b6001600160a01b0382166108f05760405162461bcd60e51b815260206004820152602260248201527f45524332303a20617070726f766520746f20746865207a65726f206164647265604482015261737360f01b606482015260840161049e565b6001600160a01b0383811660008181526098602090815260408083209487168084529482529182902085905590518481527f8c5be1e5ebec7d5bd14f71427d1e84f3dd0314c0f7b2291e5b200ac8c7c3b925910160405180910390a3505050565b600061095d8484610802565b905060001981146109c557818110156109b85760405162461bcd60e51b815260206004820152601d60248201527f45524332303a20696e73756666696369656e7420616c6c6f77616e6365000000604482015260640161049e565b6109c5848484840361082d565b50505050565b6001600160a01b038316610a2f5760405162461bcd60e51b815260206004820152602560248201527f45524332303a207472616e736665722066726f6d20746865207a65726f206164604482015264647265737360d81b606482015260840161049e565b6001600160a01b038216610a915760405162461bcd60e51b815260206004820152602360248201527f45524332303a207472616e7366657220746f20746865207a65726f206164647260448201526265737360e81b606482015260840161049e565b6001600160a01b03831660009081526097602052604090205481811015610b095760405162461bcd60e51b815260206004820152602660248201527f45524332303a207472616e7366657220616d6f756e7420657863656564732062604482015265616c616e636560d01b606482015260840161049e565b6001600160a01b0380851660008181526097602052604080822086860390559286168082529083902080548601905591516000805160206114f683398151915290610b579086815260200190565b60405180910390a36109c5565b610b6e8133610e8e565b50565b610b7b828261051f565b6104b15760008281526065602090815260408083206001600160a01b03851684529091529020805460ff19166001179055610bb33390565b6001600160a01b0316816001600160a01b0316837f2f8788117e7eff1d82e926ec794901d17c78024a50270940304540a733656f0d60405160405180910390a45050565b610c01828261051f565b156104b15760008281526065602090815260408083206001600160a01b0385168085529252808320805460ff1916905551339285917ff6391f5c32d9c69d2a47ea670b442974b53935d1edc7fd64eb21e047a839171b9190a45050565b7f6270edb7c868f86fda4adedba75108201087268ea345934db8bad688e1feb91b90565b6001600160a01b038216610cd85760405162461bcd60e51b815260206004820152601f60248201527f45524332303a206d696e7420746f20746865207a65726f206164647265737300604482015260640161049e565b8060996000828254610cea9190611413565b90915550506001600160a01b0382166000818152609760209081526040808320805486019055518481526000805160206114f6833981519152910160405180910390a35050565b6001600160a01b038216610d915760405162461bcd60e51b815260206004820152602160248201527f45524332303a206275726e2066726f6d20746865207a65726f206164647265736044820152607360f81b606482015260840161049e565b6001600160a01b03821660009081526097602052604090205481811015610e055760405162461bcd60e51b815260206004820152602260248201527f45524332303a206275726e20616d6f756e7420657863656564732062616c616e604482015261636560f01b606482015260840161049e565b6001600160a01b03831660008181526097602090815260408083208686039055609980548790039055518581529192916000805160206114f6833981519152910160405180910390a3505050565b600054610100900460ff16610e7a5760405162461bcd60e51b815260040161049e906113c8565b6104b18282610ee7565b6104b18282610b71565b610e98828261051f565b6104b157610ea581610f35565b610eb0836020610f47565b604051602001610ec19291906112f7565b60408051601f198184030181529082905262461bcd60e51b825261049e91600401611366565b600054610100900460ff16610f0e5760405162461bcd60e51b815260040161049e906113c8565b8151610f2190609a906020850190611130565b50805161042d90609b906020840190611130565b60606103346001600160a01b03831660145b60606000610f5683600261142b565b610f61906002611413565b67ffffffffffffffff811115610f8757634e487b7160e01b600052604160045260246000fd5b6040519080825280601f01601f191660200182016040528015610fb1576020820181803683370190505b509050600360fc1b81600081518110610fda57634e487b7160e01b600052603260045260246000fd5b60200101906001600160f81b031916908160001a905350600f60fb1b8160018151811061101757634e487b7160e01b600052603260045260246000fd5b60200101906001600160f81b031916908160001a905350600061103b84600261142b565b611046906001611413565b90505b60018111156110da576f181899199a1a9b1b9c1cb0b131b232b360811b85600f166010811061108857634e487b7160e01b600052603260045260246000fd5b1a60f81b8282815181106110ac57634e487b7160e01b600052603260045260246000fd5b60200101906001600160f81b031916908160001a90535060049490941c936110d38161148d565b9050611049565b5083156111295760405162461bcd60e51b815260206004820181905260248201527f537472696e67733a20686578206c656e67746820696e73756666696369656e74604482015260640161049e565b9392505050565b82805461113c906114a4565b90600052602060002090601f01602090048101928261115e57600085556111a4565b82601f1061117757805160ff19168380011785556111a4565b828001600101855582156111a4579182015b828111156111a4578251825591602001919060010190611189565b506111b09291506111b4565b5090565b5b808211156111b057600081556001016111b5565b80356001600160a01b03811681146111e057600080fd5b919050565b6000602082840312156111f6578081fd5b611129826111c9565b60008060408385031215611211578081fd5b61121a836111c9565b9150611228602084016111c9565b90509250929050565b600080600060608486031215611245578081fd5b61124e846111c9565b925061125c602085016111c9565b9150604084013590509250925092565b6000806040838503121561127e578182fd5b611287836111c9565b946020939093013593505050565b6000602082840312156112a6578081fd5b5035919050565b600080604083850312156112bf578182fd5b82359150611228602084016111c9565b6000602082840312156112e0578081fd5b81356001600160e01b031981168114611129578182fd5b76020b1b1b2b9b9a1b7b73a3937b61d1030b1b1b7bab73a1604d1b815260008351611329816017850160208801611461565b7001034b99036b4b9b9b4b733903937b6329607d1b601791840191820152835161135a816028840160208801611461565b01602801949350505050565b6020815260008251806020840152611385816040850160208701611461565b601f01601f19169190910160400192915050565b60208082526015908201527421b0b63632b91034b9903737ba10309027bbb732b960591b604082015260600190565b6020808252602b908201527f496e697469616c697a61626c653a20636f6e7472616374206973206e6f74206960408201526a6e697469616c697a696e6760a81b606082015260800190565b60008219821115611426576114266114df565b500190565b6000816000190483118215151615611445576114456114df565b500290565b60008282101561145c5761145c6114df565b500390565b60005b8381101561147c578181015183820152602001611464565b838111156109c55750506000910152565b60008161149c5761149c6114df565b506000190190565b600181811c908216806114b857607f821691505b602082108114156114d957634e487b7160e01b600052602260045260246000fd5b50919050565b634e487b7160e01b600052601160045260246000fdfeddf252ad1be2c89b69c2b068fc378daa952ba7f163c4a11628f55a4df523b3efa26469706673582212201597704026ecb007ab8a76a25fcb9a8ec4291db11d2cbc97940702e76657bed164736f6c63430008040033",
  "linkReferences": {},
  "deployedLinkReferences": {}
}