{"contracts/protocol/OpportunityPool.sol":{"OpportunityPool":{"abi":[{"inputs":[],"name":"opportunityPool__InvalidAddress","type":"error"},{"inputs":[],"name":"opportunityPool__InvalidAmount","type":"error"},{"inputs":[],"name":"opportunityPool__InvalidCaller","type":"error"},{"inputs":[],"name":"opportunityPool__InvalidDrawdownStatus","type":"error"},{"inputs":[],"name":"opportunityPool__InvalidID","type":"error"},{"inputs":[],"name":"opportunityPool__InvalidOpportunityStatus","type":"error"},{"inputs":[],"name":"opportunityPool__InvalidPoolStatus","type":"error"},{"inputs":[],"name":"opportunityPool__InvalidRole","type":"error"},{"inputs":[],"name":"opportunityPool__Repaid","type":"error"},{"anonymous":false,"inputs":[{"indexed":false,"internalType":"address","name":"previousAdmin","type":"address"},{"indexed":false,"internalType":"address","name":"newAdmin","type":"address"}],"name":"AdminChanged","type":"event"},{"anonymous":false,"inputs":[{"indexed":true,"internalType":"address","name":"beacon","type":"address"}],"name":"BeaconUpgraded","type":"event"},{"anonymous":false,"inputs":[{"indexed":true,"internalType":"address","name":"executor","type":"address"},{"indexed":true,"internalType":"uint8","name":"subpool","type":"uint8"},{"indexed":false,"internalType":"uint256","name":"amount","type":"uint256"}],"name":"Deposited","type":"event"},{"anonymous":false,"inputs":[{"indexed":false,"internalType":"uint8","name":"version","type":"uint8"}],"name":"Initialized","type":"event"},{"anonymous":false,"inputs":[{"indexed":false,"internalType":"address","name":"account","type":"address"}],"name":"Paused","type":"event"},{"anonymous":false,"inputs":[{"indexed":true,"internalType":"bytes32","name":"role","type":"bytes32"},{"indexed":true,"internalType":"bytes32","name":"previousAdminRole","type":"bytes32"},{"indexed":true,"internalType":"bytes32","name":"newAdminRole","type":"bytes32"}],"name":"RoleAdminChanged","type":"event"},{"anonymous":false,"inputs":[{"indexed":true,"internalType":"bytes32","name":"role","type":"bytes32"},{"indexed":true,"internalType":"address","name":"account","type":"address"},{"indexed":true,"internalType":"address","name":"sender","type":"address"}],"name":"RoleGranted","type":"event"},{"anonymous":false,"inputs":[{"indexed":true,"internalType":"bytes32","name":"role","type":"bytes32"},{"indexed":true,"internalType":"address","name":"account","type":"address"},{"indexed":true,"internalType":"address","name":"sender","type":"address"}],"name":"RoleRevoked","type":"event"},{"anonymous":false,"inputs":[{"indexed":false,"internalType":"address","name":"account","type":"address"}],"name":"Unpaused","type":"event"},{"anonymous":false,"inputs":[{"indexed":true,"internalType":"address","name":"implementation","type":"address"}],"name":"Upgraded","type":"event"},{"anonymous":false,"inputs":[{"indexed":true,"internalType":"address","name":"executor","type":"address"},{"indexed":true,"internalType":"uint8","name":"subpool","type":"uint8"},{"indexed":false,"internalType":"uint256","name":"amount","type":"uint256"}],"name":"withdrew","type":"event"},{"inputs":[],"name":"DEFAULT_ADMIN_ROLE","outputs":[{"internalType":"bytes32","name":"","type":"bytes32"}],"stateMutability":"view","type":"function"},{"inputs":[{"internalType":"address","name":"owner","type":"address"}],"name":"_BaseUpgradeablePausable_init","outputs":[],"stateMutability":"nonpayable","type":"function"},{"inputs":[],"name":"__PauserPausable__init","outputs":[],"stateMutability":"nonpayable","type":"function"},{"inputs":[{"internalType":"uint8","name":"_subpoolId","type":"uint8"},{"internalType":"uint256","name":"amount","type":"uint256"}],"name":"deposit","outputs":[],"stateMutability":"nonpayable","type":"function"},{"inputs":[],"name":"drawdown","outputs":[],"stateMutability":"nonpayable","type":"function"},{"inputs":[],"name":"getOpportunityName","outputs":[{"internalType":"string","name":"","type":"string"}],"stateMutability":"view","type":"function"},{"inputs":[],"name":"getOverDuePercentage","outputs":[{"internalType":"uint256","name":"","type":"uint256"},{"internalType":"uint256","name":"","type":"uint256"}],"stateMutability":"view","type":"function"},{"inputs":[],"name":"getRepaymentAmount","outputs":[{"internalType":"uint256","name":"","type":"uint256"}],"stateMutability":"view","type":"function"},{"inputs":[{"internalType":"bytes32","name":"role","type":"bytes32"}],"name":"getRoleAdmin","outputs":[{"internalType":"bytes32","name":"","type":"bytes32"}],"stateMutability":"view","type":"function"},{"inputs":[],"name":"getSeniorPoolWithdrawableAmount","outputs":[{"internalType":"uint256","name":"amount","type":"uint256"}],"stateMutability":"view","type":"function"},{"inputs":[],"name":"getSeniorProfit","outputs":[{"internalType":"uint256","name":"","type":"uint256"}],"stateMutability":"view","type":"function"},{"inputs":[],"name":"getSeniorTotalDepositable","outputs":[{"internalType":"uint256","name":"","type":"uint256"}],"stateMutability":"view","type":"function"},{"inputs":[],"name":"getUserWithdrawableAmount","outputs":[{"internalType":"uint256","name":"","type":"uint256"}],"stateMutability":"view","type":"function"},{"inputs":[{"internalType":"bytes32","name":"role","type":"bytes32"},{"internalType":"address","name":"account","type":"address"}],"name":"grantRole","outputs":[],"stateMutability":"nonpayable","type":"function"},{"inputs":[{"internalType":"bytes32","name":"role","type":"bytes32"},{"internalType":"address","name":"account","type":"address"}],"name":"hasRole","outputs":[{"internalType":"bool","name":"","type":"bool"}],"stateMutability":"view","type":"function"},{"inputs":[{"internalType":"contract ReignConfig","name":"_reignconfig","type":"address"},{"internalType":"bytes32","name":"_opportunityID","type":"bytes32"},{"internalType":"uint256","name":"_loanAmount","type":"uint256"},{"internalType":"uint256","name":"_loanTenureInDays","type":"uint256"},{"internalType":"uint256","name":"_loanInterest","type":"uint256"},{"internalType":"uint256","name":"_paymentFrequencyInDays","type":"uint256"},{"internalType":"uint8","name":"_loanType","type":"uint8"}],"name":"initialize","outputs":[],"stateMutability":"nonpayable","type":"function"},{"inputs":[],"name":"investor","outputs":[{"internalType":"contract IInvestor","name":"","type":"address"}],"stateMutability":"view","type":"function"},{"inputs":[],"name":"isAdmin","outputs":[{"internalType":"bool","name":"","type":"bool"}],"stateMutability":"view","type":"function"},{"inputs":[{"internalType":"address","name":"","type":"address"}],"name":"isStaking","outputs":[{"internalType":"bool","name":"","type":"bool"}],"stateMutability":"view","type":"function"},{"inputs":[{"internalType":"uint8","name":"_subpoolId","type":"uint8"}],"name":"lockPool","outputs":[],"stateMutability":"nonpayable","type":"function"},{"inputs":[],"name":"nextRepaymentTime","outputs":[{"internalType":"uint256","name":"","type":"uint256"}],"stateMutability":"view","type":"function"},{"inputs":[],"name":"opportunityManager","outputs":[{"internalType":"contract IOpportunityManager","name":"","type":"address"}],"stateMutability":"view","type":"function"},{"inputs":[],"name":"pause","outputs":[],"stateMutability":"nonpayable","type":"function"},{"inputs":[],"name":"pauseDrawdown","outputs":[],"stateMutability":"nonpayable","type":"function"},{"inputs":[],"name":"paused","outputs":[{"internalType":"bool","name":"","type":"bool"}],"stateMutability":"view","type":"function"},{"inputs":[],"name":"proxiableUUID","outputs":[{"internalType":"bytes32","name":"","type":"bytes32"}],"stateMutability":"view","type":"function"},{"inputs":[],"name":"reignConfig","outputs":[{"internalType":"contract ReignConfig","name":"","type":"address"}],"stateMutability":"view","type":"function"},{"inputs":[],"name":"reignToken","outputs":[{"internalType":"contract IReignCoin","name":"","type":"address"}],"stateMutability":"view","type":"function"},{"inputs":[{"internalType":"bytes32","name":"role","type":"bytes32"},{"internalType":"address","name":"account","type":"address"}],"name":"renounceRole","outputs":[],"stateMutability":"nonpayable","type":"function"},{"inputs":[],"name":"repayment","outputs":[],"stateMutability":"nonpayable","type":"function"},{"inputs":[{"internalType":"bytes32","name":"role","type":"bytes32"},{"internalType":"address","name":"account","type":"address"}],"name":"revokeRole","outputs":[],"stateMutability":"nonpayable","type":"function"},{"inputs":[],"name":"s_dailyOverdueInterestRate","outputs":[{"internalType":"uint256","name":"","type":"uint256"}],"stateMutability":"view","type":"function"},{"inputs":[],"name":"s_emiAmount","outputs":[{"internalType":"uint256","name":"","type":"uint256"}],"stateMutability":"view","type":"function"},{"inputs":[],"name":"s_isDrawdownsPaused","outputs":[{"internalType":"bool","name":"","type":"bool"}],"stateMutability":"view","type":"function"},{"inputs":[],"name":"s_juniorOverduePercentage","outputs":[{"internalType":"uint256","name":"","type":"uint256"}],"stateMutability":"view","type":"function"},{"inputs":[],"name":"s_juniorSubPoolDetails","outputs":[{"internalType":"uint256","name":"subPoolId","type":"uint256"},{"internalType":"uint256","name":"totalDepositable","type":"uint256"},{"internalType":"uint256","name":"depositedAmount","type":"uint256"},{"internalType":"bool","name":"isPoolLocked","type":"bool"},{"internalType":"uint256","name":"fundsLockedTill","type":"uint256"},{"internalType":"uint256","name":"yieldGenerated","type":"uint256"},{"internalType":"uint256","name":"overdueGenerated","type":"uint256"}],"stateMutability":"view","type":"function"},{"inputs":[],"name":"s_juniorYieldPercentage","outputs":[{"internalType":"uint256","name":"","type":"uint256"}],"stateMutability":"view","type":"function"},{"inputs":[],"name":"s_loanAmount","outputs":[{"internalType":"uint256","name":"","type":"uint256"}],"stateMutability":"view","type":"function"},{"inputs":[],"name":"s_loanInterest","outputs":[{"internalType":"uint256","name":"","type":"uint256"}],"stateMutability":"view","type":"function"},{"inputs":[],"name":"s_loanTenureInDays","outputs":[{"internalType":"uint256","name":"","type":"uint256"}],"stateMutability":"view","type":"function"},{"inputs":[],"name":"s_loanType","outputs":[{"internalType":"uint8","name":"","type":"uint8"}],"stateMutability":"view","type":"function"},{"inputs":[],"name":"s_opportunityID","outputs":[{"internalType":"bytes32","name":"","type":"bytes32"}],"stateMutability":"view","type":"function"},{"inputs":[],"name":"s_paymentFrequencyInDays","outputs":[{"internalType":"uint256","name":"","type":"uint256"}],"stateMutability":"view","type":"function"},{"inputs":[],"name":"s_poolBalance","outputs":[{"internalType":"uint256","name":"","type":"uint256"}],"stateMutability":"view","type":"function"},{"inputs":[],"name":"s_repaymentCounter","outputs":[{"internalType":"uint256","name":"","type":"uint256"}],"stateMutability":"view","type":"function"},{"inputs":[],"name":"s_repaymentStartTime","outputs":[{"internalType":"uint256","name":"","type":"uint256"}],"stateMutability":"view","type":"function"},{"inputs":[],"name":"s_seniorOverduePercentage","outputs":[{"internalType":"uint256","name":"","type":"uint256"}],"stateMutability":"view","type":"function"},{"inputs":[],"name":"s_seniorSubPoolDetails","outputs":[{"internalType":"uint256","name":"subPoolId","type":"uint256"},{"internalType":"uint256","name":"totalDepositable","type":"uint256"},{"internalType":"uint256","name":"depositedAmount","type":"uint256"},{"internalType":"bool","name":"isPoolLocked","type":"bool"},{"internalType":"uint256","name":"fundsLockedTill","type":"uint256"},{"internalType":"uint256","name":"yieldGenerated","type":"uint256"},{"internalType":"uint256","name":"overdueGenerated","type":"uint256"}],"stateMutability":"view","type":"function"},{"inputs":[],"name":"s_seniorYieldPercentage","outputs":[{"internalType":"uint256","name":"","type":"uint256"}],"stateMutability":"view","type":"function"},{"inputs":[{"internalType":"address","name":"","type":"address"}],"name":"s_stakingBalance","outputs":[{"internalType":"uint256","name":"","type":"uint256"}],"stateMutability":"view","type":"function"},{"inputs":[],"name":"s_totalOutstandingPrincipal","outputs":[{"internalType":"uint256","name":"","type":"uint256"}],"stateMutability":"view","type":"function"},{"inputs":[],"name":"s_totalRepaidAmount","outputs":[{"internalType":"uint256","name":"","type":"uint256"}],"stateMutability":"view","type":"function"},{"inputs":[],"name":"s_totalRepayments","outputs":[{"internalType":"uint256","name":"","type":"uint256"}],"stateMutability":"view","type":"function"},{"inputs":[{"internalType":"bytes4","name":"interfaceId","type":"bytes4"}],"name":"supportsInterface","outputs":[{"internalType":"bool","name":"","type":"bool"}],"stateMutability":"view","type":"function"},{"inputs":[{"internalType":"uint8","name":"_subpoolId","type":"uint8"}],"name":"unlockPool","outputs":[],"stateMutability":"nonpayable","type":"function"},{"inputs":[],"name":"unpause","outputs":[],"stateMutability":"nonpayable","type":"function"},{"inputs":[],"name":"unpauseDrawdown","outputs":[],"stateMutability":"nonpayable","type":"function"},{"inputs":[{"internalType":"address","name":"newImplementation","type":"address"}],"name":"upgradeTo","outputs":[],"stateMutability":"nonpayable","type":"function"},{"inputs":[{"internalType":"address","name":"newImplementation","type":"address"},{"internalType":"bytes","name":"data","type":"bytes"}],"name":"upgradeToAndCall","outputs":[],"stateMutability":"payable","type":"function"},{"inputs":[],"name":"usdcToken","outputs":[{"internalType":"contract IERC20","name":"","type":"address"}],"stateMutability":"view","type":"function"},{"inputs":[{"internalType":"uint8","name":"_subpoolId","type":"uint8"}],"name":"withdrawAll","outputs":[{"internalType":"uint256","name":"","type":"uint256"}],"stateMutability":"nonpayable","type":"function"},{"inputs":[],"name":"writeOffOpportunity","outputs":[],"stateMutability":"nonpayable","type":"function"}],"evm":{"bytecode":{"linkReferences":{},"object":"60a06040523060601b60805234801561001757600080fd5b5060805160601c6150ac61005260003960008181611a3b01528181611a7b01528181611b3301528181611b730152611cb401526150ac6000f3fe60806040526004361061032d5760003560e01c80635d9889c3116101a7578063a95324cd116100ed578063d661d32011610090578063d661d320146109b0578063ddc22b74146109c5578063df9fd1c1146109e7578063e196a1d3146109fc578063e77ef21f14610a13578063eb13379814610a28578063f0b7f6a114610a3f578063f4d4c9d714610a5657600080fd5b8063a95324cd146108d5578063b2a01055146108ec578063b6db75a01461090d578063c40468e214610922578063c4f31a6514610939578063cd7401b814610959578063d547741f14610979578063d62137581461099957600080fd5b806383933a2b1161015557806383933a2b146108125780638456cb591461082757806388f1d1f21461083c57806391d14854146108535780639a3247ed146108735780639f964fe61461088a578063a12dde4d146108a0578063a217fddf146108c057600080fd5b80635d9889c31461075057806360d86ab0146107675780636a15633b1461077e5780636a40af391461079e5780636f49712b146107b55780637101fd16146107e657806380a9eaa9146107fb57600080fd5b806334d93fb41161027757806346e004891161021a57806346e004891461065e5780634f1ef28614610697578063526d81f6146106aa57806352d1902d146106bf57806353654e85146106d4578063588387ec146106f45780635c975abb146107215780635c9e20031461073957600080fd5b806334d93fb41461058a57806336568abe1461059f5780633659cfe6146105bf578063373ba911146105df5780633877f3e5146106005780633f4ba83a1461061757806344f029c51461062c57806345ff732b1461064357600080fd5b806317cd802d116102df57806317cd802d1461043c5780631b67bbc4146104515780631e0018d6146104bf578063248a9ca3146104e0578063257c27361461051057806325d7c2f0146105255780632d1528141461053c5780632f2ff15d1461056a57600080fd5b806301ffc9a71461033257806304b30ca414610367578063074f25431461038c57806307a7c08a146103a15780630b4a45fd146103cb5780630e23994d146103e257806311eac8551461041b575b600080fd5b34801561033e57600080fd5b5061035261034d3660046149e2565b610a76565b60405190151581526020015b60405180910390f35b34801561037357600080fd5b5061037e6101665481565b60405190815260200161035e565b34801561039857600080fd5b5061037e610aad565b3480156103ad57600080fd5b506103b6610c83565b6040805192835260208301919091520161035e565b3480156103d757600080fd5b506103e0610d44565b005b3480156103ee57600080fd5b5061016054610403906001600160a01b031681565b6040516001600160a01b03909116815260200161035e565b34801561042757600080fd5b5061016254610403906001600160a01b031681565b34801561044857600080fd5b506103e0610d81565b34801561045d57600080fd5b506101805461018154610182546101835461018454610185546101865461048a9695949360ff1692919087565b604080519788526020880196909652948601939093529015156060850152608084015260a083015260c082015260e00161035e565b3480156104cb57600080fd5b5061016154610403906001600160a01b031681565b3480156104ec57600080fd5b5061037e6104fb366004614983565b60009081526065602052604090206001015490565b34801561051c57600080fd5b506103e06115b6565b34801561053157600080fd5b5061037e6101715481565b34801561054857600080fd5b5061037e61055736600461489e565b6101776020526000908152604090205481565b34801561057657600080fd5b506103e06105853660046149b3565b611957565b34801561059657600080fd5b506103e0611981565b3480156105ab57600080fd5b506103e06105ba3660046149b3565b6119b2565b3480156105cb57600080fd5b506103e06105da36600461489e565b611a30565b3480156105eb57600080fd5b5061016354610403906001600160a01b031681565b34801561060c57600080fd5b5061037e6101685481565b34801561062357600080fd5b506103e0611af9565b34801561063857600080fd5b5061037e61016f5481565b34801561064f57600080fd5b50610176546103529060ff1681565b34801561066a57600080fd5b506101795461017a5461017b5461017c5461017d5461017e5461017f5461048a9695949360ff1692919087565b6103e06106a53660046148d6565b611b28565b3480156106b657600080fd5b506103e0611bde565b3480156106cb57600080fd5b5061037e611ca7565b3480156106e057600080fd5b5061037e6106ef366004614ad8565b611d55565b34801561070057600080fd5b506101655461070f9060ff1681565b60405160ff909116815260200161035e565b34801561072d57600080fd5b5060975460ff16610352565b34801561074557600080fd5b5061037e6101645481565b34801561075c57600080fd5b5061037e61016c5481565b34801561077357600080fd5b5061037e6101735481565b34801561078a57600080fd5b506103e0610799366004614ad8565b6121fb565b3480156107aa57600080fd5b5061037e61016e5481565b3480156107c157600080fd5b506103526107d036600461489e565b6101786020526000908152604090205460ff1681565b3480156107f257600080fd5b5061037e612269565b34801561080757600080fd5b5061037e61016a5481565b34801561081e57600080fd5b5061037e61239a565b34801561083357600080fd5b506103e06123e9565b34801561084857600080fd5b5061037e6101755481565b34801561085f57600080fd5b5061035261086e3660046149b3565b612418565b34801561087f57600080fd5b5061037e6101675481565b34801561089657600080fd5b5061017a5461037e565b3480156108ac57600080fd5b506103e06108bb36600461489e565b612443565b3480156108cc57600080fd5b5061037e600081565b3480156108e157600080fd5b5061037e6101695481565b3480156108f857600080fd5b5061015f54610403906001600160a01b031681565b34801561091957600080fd5b50610352612517565b34801561092e57600080fd5b5061037e61016b5481565b34801561094557600080fd5b506103e0610954366004614a0a565b612524565b34801561096557600080fd5b506103e0610974366004614ad8565b612b1e565b34801561098557600080fd5b506103e06109943660046149b3565b612b86565b3480156109a557600080fd5b5061037e61016d5481565b3480156109bc57600080fd5b5061037e612bab565b3480156109d157600080fd5b506109da612bbf565b60405161035e9190614bbf565b3480156109f357600080fd5b5061037e612c46565b348015610a0857600080fd5b5061037e6101745481565b348015610a1f57600080fd5b506103e0612c9d565b348015610a3457600080fd5b5061037e6101705481565b348015610a4b57600080fd5b5061037e6101725481565b348015610a6257600080fd5b506103e0610a71366004614af2565b612e5b565b60006001600160e01b03198216637965db0b60e01b1480610aa757506301ffc9a760e01b6001600160e01b03198316145b92915050565b600061016d5461016c5411610ad55760405163085e9b4b60e41b815260040160405180910390fd5b6101605461016454604051630231155f60e51b81526001600160a01b0390921691634622abe091610b0c9160040190815260200190565b60206040518083038186803b158015610b2457600080fd5b505afa158015610b38573d6000803e3d6000fd5b505050506040513d601f19601f82011682018060405250810190610b5c9190614963565b15610b7a57604051631bc818bd60e21b815260040160405180910390fd5b6101655460009060ff1660011415610c10575061016e54426000610b9c612c46565b9050600081831115610bfd576000610bc162015180610bbb8686613188565b9061319b565b9050610bf9620f42405b610bbb61016e54610bf3610bec606461016f5461319b90919063ffffffff16565b86906131a7565b906131a7565b9150505b610c0784826131b3565b95945050505050565b5061016e54426000610c20612c46565b9050600081831115610c51576000610c3f62015180610bbb8686613188565b9050610c4d620f4240610bcb565b9150505b610c5b84826131b3565b935061016d5461016c541415610c7a5761016654610c079085906131b3565b5050505b919050565b6000806000610c9c6101715461016954610168546131bf565b61015f54909150600090610cd390610cc990600190610cc3906001600160a01b03166132a0565b906131b3565b610166549061319b565b61015f54909150600090610cfa90610cf3906001600160a01b03166132a0565b83906131a7565b90506000610d1884610bbb61017254856131a790919063ffffffff16565b90506000610d3685610bbb61017354876131a790919063ffffffff16565b919791965090945050505050565b610d4c612517565b610d715760405162461bcd60e51b8152600401610d6890614d90565b60405180910390fd5b610176805460ff19166001179055565b610d89613321565b610d9a610d9461337b565b33612418565b610da357600080fd5b61016d5461016c5411610dc95760405163085e9b4b60e41b815260040160405180910390fd5b6101605461016454604051630231155f60e51b81526001600160a01b0390921691634622abe091610e009160040190815260200190565b60206040518083038186803b158015610e1857600080fd5b505afa158015610e2c573d6000803e3d6000fd5b505050506040513d601f19601f82011682018060405250810190610e509190614963565b15610e6e57604051631bc818bd60e21b815260040160405180910390fd5b426000610e79612c46565b9050600081831115610eaa576000610e9862015180610bbb8686613188565b9050610ea6620f4240610bcb565b9150505b6101655460ff16600114156111bb5761016e546101708054829190600090610ed3908490614e34565b925050819055506000610ef06101715461016954610168546131bf565b90506000610f0a8261016e5461318890919063ffffffff16565b61015f54909150610f3c90610f3290610f2b906001600160a01b031661339f565b8390613188565b6101715490613188565b6101715561015f54600090610f6b90610f6490600190610cc3906001600160a01b03166132a0565b839061319b565b61015f54909150600090610f8b90610cf3906001600160a01b03166132a0565b61017b54909150610f9c90826131b3565b61017b5561018254610fae90836131b3565b6101825561015f54600090819061100c90610fd1906001600160a01b03166133b7565b61015f54610fe7906001600160a01b03166133cf565b61015f548990610fff906001600160a01b03166132a0565b6101665461017a546133e7565b61017e54919350915061101f90836131b3565b61017e556101855461103190826131b3565b6101855561105761104d620f424061017554610bbb908c6131a7565b61018654906131b3565b6101865561107d611073620f424061017454610bbb908c6131a7565b61017f54906131b3565b61017f5560006110ab620f424061015f54610bbb906110a4906001600160a01b03166133b7565b8a906131a7565b90506110d5620f424061015f54610bbb906110ce906001600160a01b03166133b7565b8c906131a7565b6110df9082614e34565b90506110eb888a6131b3565b61016a549098506110fc90826131b3565b61016a5561016254611119906001600160a01b031633308b61354b565b6101625461015f546001600160a01b039182169163a9059cbb9161113d91166135bc565b836040518363ffffffff1660e01b815260040161115b929190614ba6565b602060405180830381600087803b15801561117557600080fd5b505af1158015611189573d6000803e3d6000fd5b505050506040513d601f19601f820116820180604052508101906111ad9190614963565b505050505050505050611408565b600061016e5490508061017060008282546111d69190614e34565b909155505061015f546000908190611228906111fa906001600160a01b03166133b7565b61015f54611210906001600160a01b03166133cf565b61015f548690610fff906001600160a01b03166132a0565b61017e54919350915061123b90836131b3565b61017e556101855461124d90826131b3565b6101855561126961104d620f424061017554610bbb90886131a7565b61018655611285611073620f424061017454610bbb90886131a7565b61017f5560006112b3620f424061015f54610bbb906112ac906001600160a01b03166133b7565b87906131a7565b90506112dd620f424061015f54610bbb906112d6906001600160a01b03166133b7565b88906131a7565b6112e79082614e34565b905061016d5461016c54141561133657610166546113069085906131b3565b935061132161016654610170546131b390919063ffffffff16565b6101705561017a5461017b5561018154610182555b61134084866131b3565b61016a5490945061135190856131b3565b61016a556101625461136e906001600160a01b031633308761354b565b6101625461015f546001600160a01b039182169163a9059cbb9161139291166135bc565b836040518363ffffffff1660e01b81526004016113b0929190614ba6565b602060405180830381600087803b1580156113ca57600080fd5b505af11580156113de573d6000803e3d6000fd5b505050506040513d601f19601f820116820180604052508101906114029190614963565b50505050505b61016d5461016c5414156115935761016054610164546040516319978a4360e11b81526001600160a01b039092169163332f14869161144d9160040190815260200190565b600060405180830381600087803b15801561146757600080fd5b505af115801561147b573d6000803e3d6000fd5b505061015f5461149692506001600160a01b0316905061363e565b6101645460405163034e650f60e11b8152600060048201819052602482019290925260448101919091526001600160a01b03919091169063069cca1e90606401600060405180830381600087803b1580156114f057600080fd5b505af1158015611504573d6000803e3d6000fd5b505061017e5461017b546000935061151d9250906131b3565b61017f54909150156115415761017f546115389082906131b3565b600061017f5590505b600061017b81905561017e5561016a5461155b9082613188565b61016a5561015f5461158d90611579906001600160a01b031661363e565b610162546001600160a01b03169083613656565b506115a7565b61016c546115a29060016131b3565b61016c555b5050506115b4600160c955565b565b6101605461016454604051631a054c8b60e21b81526001600160a01b0390921691636815322c916115ed9160040190815260200190565b60206040518083038186803b15801561160557600080fd5b505afa158015611619573d6000803e3d6000fd5b505050506040513d601f19601f8201168201806040525081019061163d9190614963565b1515600114156116605760405163230ffcd360e01b815260040160405180910390fd5b61015f54611676906001600160a01b031661367c565b6001600160a01b0316336001600160a01b031614156116a85760405163cf45a70560e01b815260040160405180910390fd5b61015f546000906116d0906116c5906001600160a01b03166132a0565b610cc9906001614e34565b61015f549091506000906116f090610cf3906001600160a01b03166132a0565b90506000611709620f424061017254610bbb90856131a7565b6101655490915060009060ff166001141561176457426000611729612c46565b905060008183111561175a57600061174862015180610bbb8686613188565b9050611756620f4240610bcb565b9150505b92506117c3915050565b61016e54426000611773612c46565b90506000818311156117bd57600061179262015180610bbb8686613188565b90506117b9620f4240610bbb87610bf3610bec606461016f5461319b90919063ffffffff16565b9150505b93505050505b6117d8620f424061017454610bbb90846131a7565b61017f549091506000906117ed9083906131b3565b61017a549091506000906118018584614e34565b61180b9190614e34565b90508061016a5411156118b55761015f5461182e906001600160a01b031661363e565b6101645460405163034e650f60e11b8152600160048201526024810191909152604481018390526001600160a01b03919091169063069cca1e90606401600060405180830381600087803b15801561188557600080fd5b505af1158015611899573d6000803e3d6000fd5b5050600061017b81905561017e81905561017f555061194f9050565b61015f546118cb906001600160a01b031661363e565b6101645461016a5460405163034e650f60e11b815260016004820152602481019290925260448201526001600160a01b03919091169063069cca1e90606401600060405180830381600087803b15801561192457600080fd5b505af1158015611938573d6000803e3d6000fd5b5050600061017b81905561017e81905561017f5550505b505050505050565b60008281526065602052604090206001015461197281613694565b61197c838361369e565b505050565b611989612517565b6119a55760405162461bcd60e51b8152600401610d6890614d90565b610176805460ff19169055565b6001600160a01b0381163314611a225760405162461bcd60e51b815260206004820152602f60248201527f416363657373436f6e74726f6c3a2063616e206f6e6c792072656e6f756e636560448201526e103937b632b9903337b91039b2b63360891b6064820152608401610d68565b611a2c8282613724565b5050565b306001600160a01b037f0000000000000000000000000000000000000000000000000000000000000000161415611a795760405162461bcd60e51b8152600401610d6890614bf2565b7f00000000000000000000000000000000000000000000000000000000000000006001600160a01b0316611aab61378b565b6001600160a01b031614611ad15760405162461bcd60e51b8152600401610d6890614c3e565b611ada816137a7565b60408051600080825260208201909252611af6918391906137cb565b50565b611b04610d94613945565b611b205760405162461bcd60e51b8152600401610d6890614d4a565b6115b4613969565b306001600160a01b037f0000000000000000000000000000000000000000000000000000000000000000161415611b715760405162461bcd60e51b8152600401610d6890614bf2565b7f00000000000000000000000000000000000000000000000000000000000000006001600160a01b0316611ba361378b565b6001600160a01b031614611bc95760405162461bcd60e51b8152600401610d6890614c3e565b611bd2826137a7565b611a2c828260016137cb565b600054610100900460ff1615808015611bfe5750600054600160ff909116105b80611c185750303b158015611c18575060005460ff166001145b611c345760405162461bcd60e51b8152600401610d6890614c8a565b6000805460ff191660011790558015611c57576000805461ff0019166101001790555b611c5f6139bb565b8015611af6576000805461ff0019169055604051600181527f7f26b83ff96e1f2b6a682f133852f6798a09c465da95921460cefb38474024989060200160405180910390a150565b6000306001600160a01b037f00000000000000000000000000000000000000000000000000000000000000001614611d425760405162461bcd60e51b815260206004820152603860248201527f555550535570677261646561626c653a206d757374206e6f742062652063616c6044820152771b1959081d1a1c9bdd59da0819195b1959d85d1958d85b1b60421b6064820152608401610d68565b5060008051602061503083398151915290565b6000611d5f613321565b611d676139ee565b600160ff831611611d8b57604051639041656b60e01b815260040160405180910390fd5b6101605461016454604051638176715560e01b81526001600160a01b0390921691638176715591611dc29160040190815260200190565b60206040518083038186803b158015611dda57600080fd5b505afa158015611dee573d6000803e3d6000fd5b505050506040513d601f19601f82011682018060405250810190611e129190614963565b15611e305760405163085e9b4b60e41b815260040160405180910390fd5b600060ff831660011415611ef35761017c5460ff16611e62576040516339c9c17f60e21b815260040160405180910390fd5b611e6d610d94613a34565b15611e8b57604051630c70fcf560e11b815260040160405180910390fd5b61017b5415611ead5760405163b9e3300760e01b815260040160405180910390fd5b61017e5461017b54611ebe916131b3565b61017f5490915015611ee25761017f54611ed99082906131b3565b600061017f5590505b600061017b81905561017e55612157565b60ff8316612157576101835460ff16611f1f576040516339c9c17f60e21b815260040160405180910390fd5b336000908152610178602052604090205460ff168015611f4e5750336000908152610177602052604090205415155b15611f6c5760405163cf45a70560e01b815260040160405180910390fd5b61015f54600090611f85906001600160a01b031661339f565b61018254909150611f9690826131b3565b336000908152610177602052604090205411611fc55760405163b9e3300760e01b815260040160405180910390fd5b6000611fed620f42405b336000908152610177602052604090205461018554610bbb916131a7565b9050611ff98183613188565b61018554909150811161201f5760405163b9e3300760e01b815260040160405180910390fd5b336000908152610177602052604081205461203a9084613188565b6101825490915061204b9082613188565b610182556101855461205d9083613188565b6101855533600090815261017860205260409020805460ff1916905561208381836131b3565b61018654909450156120da5760006120b7620f42405b336000908152610177602052604090205461018654610bbb916131a7565b90506120c385826131b3565b610186549095506120d49082613188565b61018655505b6101615461016454604051631bd3b3dd60e31b81526001600160a01b039092169163de9d9ee89161211091339190600401614ba6565b600060405180830381600087803b15801561212a57600080fd5b505af115801561213e573d6000803e3d6000fd5b5050336000908152610177602052604081205550505050505b61016a546121659082613188565b61016a556101625460405163a9059cbb60e01b81526001600160a01b039091169063a9059cbb9061219c9033908590600401614ba6565b602060405180830381600087803b1580156121b657600080fd5b505af11580156121ca573d6000803e3d6000fd5b505050506040513d601f19601f820116820180604052508101906121ee9190614963565b509050610c7e600160c955565b612206610d94613a58565b61220f57600080fd5b600160ff82161161223357604051639041656b60e01b815260040160405180910390fd5b60ff8116600114156122505761017c805460ff1916600117905550565b60ff8116611af657610183805460ff1916600117905550565b336000908152610178602052604081205460ff1680156122985750336000908152610177602052604090205415155b156122b65760405163cf45a70560e01b815260040160405180910390fd5b6101605461016454604051638176715560e01b815260048101919091526000916001600160a01b03169063817671559060240160206040518083038186803b15801561230157600080fd5b505afa158015612315573d6000803e3d6000fd5b505050506040513d601f19601f820116820180604052508101906123399190614963565b15610c7e57600061234c620f4240611fcf565b336000908152610177602052604090205490915061236a90826131b3565b6101865490925015612394576000612384620f4240612099565b905061239083826131b3565b9250505b50919050565b61017c5460009060ff166123c1576040516339c9c17f60e21b815260040160405180910390fd5b61017e5461017b546123d2916131b3565b61017f549091506123e49082906131b3565b905090565b6123f4610d94613945565b6124105760405162461bcd60e51b8152600401610d6890614d4a565b6115b4613a7c565b60009182526065602090815260408084206001600160a01b0393909316845291905290205460ff1690565b600054610100900460ff1661246a5760405162461bcd60e51b8152600401610d6890614cff565b6001600160a01b0381166124c05760405162461bcd60e51b815260206004820181905260248201527f4f776e65722063616e6e6f7420626520746865207a65726f20616464726573736044820152606401610d68565b6124c8613ab9565b6124d06139bb565b6124d8613ae0565b6124e96124e3613b07565b8261369e565b6124f46124e3613945565b61250c6124ff613945565b612507613b07565b613b2b565b611af66124ff613b07565b60006123e4610d94613b07565b600054610100900460ff16158080156125445750600054600160ff909116105b8061255e5750303b15801561255e575060005460ff166001145b61257a5760405162461bcd60e51b8152600401610d6890614c8a565b6000805460ff19166001179055801561259d576000805461ff0019166101001790555b6001600160a01b0388166125c457604051631728d89f60e01b815260040160405180910390fd5b61015f80546001600160a01b0319166001600160a01b038a169081179091556000906125ef90613b76565b90506001600160a01b03811661261857604051631728d89f60e01b815260040160405180910390fd5b61015f5461262e906001600160a01b031661367c565b61016080546001600160a01b0319166001600160a01b0392831617905561015f546126599116613b8d565b61016180546001600160a01b0319166001600160a01b039290921691909117905561268381612443565b61015f54612699906001600160a01b0316613ba5565b61016280546001600160a01b0319166001600160a01b0392831617905561015f546126c49116613bbd565b61016380546001600160a01b0319166001600160a01b03929092169190911790556126f06124ff613a34565b6127166126fb613a34565b61015f54612711906001600160a01b031661363e565b61369e565b6127216124ff61337b565b61272c6124ff613a58565b6127376124e3613a58565b610160546040516339461f5160e11b8152600481018a90526000916001600160a01b03169063728c3ea29060240160206040518083038186803b15801561277d57600080fd5b505afa158015612791573d6000803e3d6000fd5b505050506040513d601f19601f820116820180604052508101906127b591906148ba565b90506127c26124e361337b565b610164899055610166889055610171889055610167879055610168869055610169859055600161016c55610165805460ff191660ff861617905561015f54604051633928f5e160e21b8152600481018b90526001600160a01b039091169063e4a3d7849060240160206040518083038186803b15801561284157600080fd5b505afa158015612855573d6000803e3d6000fd5b505050506040513d601f19601f820116820180604052508101906128799190614963565b6128ea5761017c805460ff1916600117905561015f546000906128a8906116c5906001600160a01b03166132a0565b61015f549091506128cc906128c5906001600160a01b03166132a0565b82906131a7565b61017a819055610166546128e09190614f6a565b6101815550612901565b610183805460ff191660011790556101665461017a555b61016954610167546129129161319b565b61016d556101655460ff16600114156129465761293d610166546101685461016d5461016954613bd5565b61016e5561295f565b61295a610166546101685461016954613ce3565b61016e555b61297b61016d61015f54610bbb906001600160a01b0316613d78565b61016f5561015f546129eb90612999906001600160a01b03166133b7565b61015f546129af906001600160a01b03166133cf565b6101655461016e546101665461016d546101685461015f5460ff909516600114946129e2906001600160a01b03166132a0565b61016754613d90565b61017355610172556129fb610c83565b61017555610174556101625460405163095ea7b360e01b81526000916001600160a01b03169063095ea7b390612a3990309060001990600401614ba6565b602060405180830381600087803b158015612a5357600080fd5b505af1158015612a67573d6000803e3d6000fd5b505050506040513d601f19601f82011682018060405250810190612a8b9190614963565b905080612acb5760405162461bcd60e51b815260206004820152600e60248201526d185c1c1c9bdd994819985a5b195960921b6044820152606401610d68565b5050508015612b14576000805461ff0019169055604051600181527f7f26b83ff96e1f2b6a682f133852f6798a09c465da95921460cefb38474024989060200160405180910390a15b5050505050505050565b612b29610d94613a58565b612b3257600080fd5b600160ff821611612b5657604051639041656b60e01b815260040160405180910390fd5b60ff811660011415612b705761017c805460ff1916905550565b60ff8116611af657610183805460ff1916905550565b600082815260656020526040902060010154612ba181613694565b61197c8383613724565b61017f5461017e546000916123e491614e34565b61016054610164546040516378023a5360e11b815260048101919091526060916001600160a01b03169063f00474a69060240160006040518083038186803b158015612c0a57600080fd5b505afa158015612c1e573d6000803e3d6000fd5b505050506040513d6000823e601f3d908101601f191682016040526123e49190810190614a6e565b600061016d5461016c5411612c6e5760405163085e9b4b60e41b815260040160405180910390fd5b6000610aa7612c9362015180610bf36101695461016c546131a790919063ffffffff16565b61016b54906131b3565b612ca5613321565b612cad6139ee565b612cb8610d9461337b565b612cc157600080fd5b6101605461016454604051630231155f60e51b81526001600160a01b0390921691634622abe091612cf89160040190815260200190565b60206040518083038186803b158015612d1057600080fd5b505afa158015612d24573d6000803e3d6000fd5b505050506040513d601f19601f82011682018060405250810190612d489190614963565b612d6557604051631bc818bd60e21b815260040160405180910390fd5b6101765460ff16612d8957604051631bc818bd60e21b815260040160405180910390fd5b6101665461016a541415612db057604051631bc818bd60e21b815260040160405180910390fd5b61016a805460009182905561017b829055610182919091554261016b556101605461016454604051632bdfaa5160e21b81526001600160a01b039092169163af7ea94491612e049160040190815260200190565b600060405180830381600087803b158015612e1e57600080fd5b505af1158015612e32573d6000803e3d6000fd5b505061016254612e5092506001600160a01b0316905030338461354b565b506115b4600160c955565b612e63613321565b600160ff83161115612e8857604051639041656b60e01b815260040160405180910390fd5b60008111612ea95760405163b9e3300760e01b815260040160405180910390fd5b60ff821660011415612f535761017c5460ff1615612eda576040516339c9c17f60e21b815260040160405180910390fd5b612ee5610d94613a34565b15612f0357604051630c70fcf560e11b815260040160405180910390fd5b61017b54600090612f159083906131b3565b61017a549091508111612f3b5760405163b9e3300760e01b815260040160405180910390fd5b61017b54612f4990836131b3565b61017b5550613119565b60ff8216613119576101835460ff16612f7f576040516339c9c17f60e21b815260040160405180910390fd5b61018254600090612f919083906131b3565b610181549091508111612fb75760405163b9e3300760e01b815260040160405180910390fd5b61018254612fc590836131b3565b610182553360009081526101776020526040902054612fe490836131b3565b33600081815261017760209081526040808320949094556101789052829020805460ff191660011790556101615461016454925163349b51f560e11b81526001600160a01b039190911692636936a3ea9261304492909190600401614ba6565b60206040518083038186803b15801561305c57600080fd5b505afa158015613070573d6000803e3d6000fd5b505050506040513d601f19601f820116820180604052508101906130949190614963565b613101576101615461016454604051635345099160e11b81526001600160a01b039092169163a68a1322916130ce91339190600401614ba6565b600060405180830381600087803b1580156130e857600080fd5b505af11580156130fc573d6000803e3d6000fd5b505050505b6101815481106131175761017c805460ff191690555b505b61016a5461312790826131b3565b61016a5561016254613144906001600160a01b031633308461354b565b60405181815260ff83169033907f1d0787aee899a49ef81d0b11da9aca5455b46aefed042a41bd398d74619cab009060200160405180910390a3611a2c600160c955565b60006131948284614f6a565b9392505050565b60006131948284614e4c565b60006131948284614f4b565b60006131948284614e34565b600080841180156131d05750600083115b80156131dc5750600082115b6131f85760405162461bcd60e51b8152600401610d6890614cd8565b600061324061322a61320b856006613fa1565b676765c793fa10079d601b1b61016d5b6132259190614f4b565b614017565b613225676765c793fa10079d601b1b6064614f4b565b905060006132628261325d676765c793fa10079d601b1b88614f4b565b614047565b90506000613271876006613fa1565b9050600061327f8284614047565b905061329481683635c9adc5dea0000061319b565b98975050505050505050565b60006001600160a01b03821663fc563658825b6040518263ffffffff1660e01b81526004016132d191815260200190565b60206040518083038186803b1580156132e957600080fd5b505afa1580156132fd573d6000803e3d6000fd5b505050506040513d601f19601f82011682018060405250810190610aa7919061499b565b600260c95414156133745760405162461bcd60e51b815260206004820152601f60248201527f5265656e7472616e637947756172643a207265656e7472616e742063616c6c006044820152606401610d68565b600260c955565b7f2344277e405079ec07749d374ba0b5862a4e45a6a05ac889dbb4a991c6f9354d90565b60006001600160a01b03821663fc56365860066132b3565b60006001600160a01b03821663fc56365860016132b3565b60006001600160a01b03821663fc56365860036132b3565b6000806000881180156133fa5750600087115b80156134065750600086115b80156134125750600085115b801561341e5750600084115b801561342a5750600083115b6134465760405162461bcd60e51b8152600401610d6890614cd8565b6000613453896006613fa1565b90506000613462896006613fa1565b90506000613471896006613fa1565b90506000613480886006613fa1565b9050600061348f886006613fa1565b905060006134a66134a08584614047565b84614017565b905060006134b48287614047565b905060006134d46134ce846134c9868c614047565b614078565b83614078565b905060006134ef6134e98861325d8989614078565b87614017565b9050600061350a613504836134c9858e614047565b856140ce565b905061351f83683635c9adc5dea0000061319b565b61353282683635c9adc5dea0000061319b565b9b509b5050505050505050505050965096945050505050565b6040516001600160a01b03808516602483015283166044820152606481018290526135b69085906323b872dd60e01b906084015b60408051601f198184030181529190526020810180516001600160e01b03166001600160e01b031990931692909217909152614123565b50505050565b60006001600160a01b03821663b93f9b0a60085b6040518263ffffffff1660e01b81526004016135ee91815260200190565b60206040518083038186803b15801561360657600080fd5b505afa15801561361a573d6000803e3d6000fd5b505050506040513d601f19601f82011682018060405250810190610aa791906148ba565b60006001600160a01b03821663b93f9b0a60036135d0565b61197c8363a9059cbb60e01b848460405160240161357f929190614ba6565b600160c955565b60006001600160a01b03821663b93f9b0a60066135d0565b611af681336141f8565b6136a88282612418565b611a2c5760008281526065602090815260408083206001600160a01b03851684529091529020805460ff191660011790556136e03390565b6001600160a01b0316816001600160a01b0316837f2f8788117e7eff1d82e926ec794901d17c78024a50270940304540a733656f0d60405160405180910390a45050565b61372e8282612418565b15611a2c5760008281526065602090815260408083206001600160a01b0385168085529252808320805460ff1916905551339285917ff6391f5c32d9c69d2a47ea670b442974b53935d1edc7fd64eb21e047a839171b9190a45050565b600080516020615030833981519152546001600160a01b031690565b6137af612517565b611af65760405162461bcd60e51b8152600401610d6890614d90565b7f4910fdfa16fed3260ed0e7147f7cc6da11a60208b5b9406d12a635614ffd91435460ff16156137fe5761197c83614251565b826001600160a01b03166352d1902d6040518163ffffffff1660e01b815260040160206040518083038186803b15801561383757600080fd5b505afa925050508015613867575060408051601f3d908101601f191682019092526138649181019061499b565b60015b6138ca5760405162461bcd60e51b815260206004820152602e60248201527f45524331393637557067726164653a206e657720696d706c656d656e7461746960448201526d6f6e206973206e6f74205555505360901b6064820152608401610d68565b60008051602061503083398151915281146139395760405162461bcd60e51b815260206004820152602960248201527f45524331393637557067726164653a20756e737570706f727465642070726f786044820152681a58589b195555525160ba1b6064820152608401610d68565b5061197c8383836142ed565b7f65d7a28e3265b37a6474929f336521b332c1681b933f6cb9f3376673440d862a90565b613971614312565b6097805460ff191690557f5db9ee0a495bf2e6ff9c91a7834c1ba4fdd244a5e8aa4e537bd38aeae4b073aa335b6040516001600160a01b03909116815260200160405180910390a1565b600054610100900460ff166139e25760405162461bcd60e51b8152600401610d6890614cff565b6097805460ff19169055565b60975460ff16156115b45760405162461bcd60e51b815260206004820152601060248201526f14185d5cd8589b194e881c185d5cd95960821b6044820152606401610d68565b7fa794a061bac4a541306b6778cc120a221216f325de0020c39b67101d49158ca290565b7ffa4b6f760d780a02797df53a6c2ccf476001dc02ee4f9b6b1426dafc21ff6baf90565b613a846139ee565b6097805460ff191660011790557f62e78cea01bee320cd4e420270b5ea74000d11b0c9f74754ebdbfc544b05a25861399e3390565b600054610100900460ff166115b45760405162461bcd60e51b8152600401610d6890614cff565b600054610100900460ff166136755760405162461bcd60e51b8152600401610d6890614cff565b7fa49807205ce4d355092ef5a8a18f56e8913cf4a201fbe287825b095693c2177590565b600082815260656020526040808220600101805490849055905190918391839186917fbd79b86ffe0ab8e8776151514217cd7cacd52c909f66475c3af44e129f0b00ff9190a4505050565b60006001600160a01b03821663b93f9b0a826135d0565b60006001600160a01b03821663b93f9b0a60076135d0565b60006001600160a01b03821663b93f9b0a60026135d0565b60006001600160a01b03821663b93f9b0a60016135d0565b60008085118015613be65750600084115b8015613bf25750600083115b8015613bfe5750600082115b613c1a5760405162461bcd60e51b8152600401610d6890614cd8565b6000613c288361016d610bbb565b90506000613c5261322a613c3d886006613fa1565b613225676765c793fa10079d601b1b86614f4b565b90506000613c6b676765c793fa10079d601b1b836131b3565b90506000613c79828861435b565b90506000613c888a6006613fa1565b90506000613ca583613225676765c793fa10079d601b1b82614f6a565b90506000613cbc613cb68488614047565b83614047565b9050613cd181683635c9adc5dea0000061319b565b9750505050505050505b949350505050565b60008084118015613cf45750600083115b8015613d005750600082115b613d1c5760405162461bcd60e51b8152600401610d6890614cd8565b6000613d4561322a613d2f866006613fa1565b613225676765c793fa10079d601b1b600c614f4b565b905060006132628261325d613d65676765c793fa10079d601b1b88614f4b565b676765c793fa10079d601b1b601e61321b565b60006001600160a01b03821663fc56365860026132b3565b60008060008b118015613da3575060008a115b8015613daf5750600088115b8015613dbb5750600087115b8015613dc75750600086115b8015613dd35750600085115b8015613ddf5750600084115b8015613deb5750600083115b613e075760405162461bcd60e51b8152600401610d6890614cd8565b600080613e158d6006613fa1565b90506000613e248d6006613fa1565b90508b15613e89576000613e398c6006613fa1565b90506000613e52676765c793fa10079d601b1b8c614f4b565b90506000613e618d6006613fa1565b90506000613e726134ce8585614047565b9050613e7e8183614017565b965050505050613ebb565b6000613e9c61322a61320b8b6006613fa1565b9050613eb78161325d676765c793fa10079d601b1b8a614f4b565b9350505b60008311613efe5760405162461bcd60e51b815260206004820152601060248201526f125b9d985b1a5908125b9d195c995cdd60821b6044820152606401610d68565b6000613f228461325d613f1c676765c793fa10079d601b1b87614078565b85614078565b90506000613f628561325d613f42676765c793fa10079d601b1b88614078565b613f5d87676765c793fa10079d601b1b8f61325d9190614f4b565b6140ce565b9050613f7782683635c9adc5dea0000061319b565b613f8a82683635c9adc5dea0000061319b565b965096505050505050995099975050505050505050565b6000601b821115613ff45760405162461bcd60e51b815260206004820152601d60248201527f64732d6d6174682d646563696d616c732d6f75742d6f662d72616e67650000006044820152606401610d68565b6000614001601b84614078565b9050613cdb8461401283600a614ea3565b6143d0565b60008161403d61403285676765c793fa10079d601b1b6143d0565b613f5d600286614e4c565b6131949190614e4c565b6000676765c793fa10079d601b1b61403d61406285856143d0565b613f5d6002676765c793fa10079d601b1b614e4c565b6000826140858382614f6a565b9150811115610aa75760405162461bcd60e51b815260206004820152601560248201527464732d6d6174682d7375622d756e646572666c6f7760581b6044820152606401610d68565b6000826140db8382614e34565b9150811015610aa75760405162461bcd60e51b815260206004820152601460248201527364732d6d6174682d6164642d6f766572666c6f7760601b6044820152606401610d68565b6000614178826040518060400160405280602081526020017f5361666545524332303a206c6f772d6c6576656c2063616c6c206661696c6564815250856001600160a01b03166144379092919063ffffffff16565b90508051600014806141995750808060200190518101906141999190614963565b61197c5760405162461bcd60e51b815260206004820152602a60248201527f5361666545524332303a204552433230206f7065726174696f6e20646964206e6044820152691bdd081cdd58d8d9595960b21b6064820152608401610d68565b6142028282612418565b611a2c5761420f81614446565b61421a836020614458565b60405160200161422b929190614b37565b60408051601f198184030181529082905262461bcd60e51b8252610d6891600401614bbf565b6001600160a01b0381163b6142be5760405162461bcd60e51b815260206004820152602d60248201527f455243313936373a206e657720696d706c656d656e746174696f6e206973206e60448201526c1bdd08184818dbdb9d1c9858dd609a1b6064820152608401610d68565b60008051602061503083398151915280546001600160a01b0319166001600160a01b0392909216919091179055565b6142f68361463a565b6000825111806143035750805b1561197c576135b6838361467a565b60975460ff166115b45760405162461bcd60e51b815260206004820152601460248201527314185d5cd8589b194e881b9bdd081c185d5cd95960621b6044820152606401610d68565b6000614368600283614fc4565b61437d57676765c793fa10079d601b1b61437f565b825b905061438c600283614e4c565b91505b8115610aa75761439f8384614047565b92506143ac600283614fc4565b156143be576143bb8184614047565b90505b6143c9600283614e4c565b915061438f565b60008115806143f4575082826143e68183614f4b565b92506143f29083614e4c565b145b610aa75760405162461bcd60e51b815260206004820152601460248201527364732d6d6174682d6d756c2d6f766572666c6f7760601b6044820152606401610d68565b6060613cdb848460008561469f565b6060610aa76001600160a01b03831660145b60606000614467836002614f4b565b614472906002614e34565b67ffffffffffffffff81111561449857634e487b7160e01b600052604160045260246000fd5b6040519080825280601f01601f1916602001820160405280156144c2576020820181803683370190505b509050600360fc1b816000815181106144eb57634e487b7160e01b600052603260045260246000fd5b60200101906001600160f81b031916908160001a905350600f60fb1b8160018151811061452857634e487b7160e01b600052603260045260246000fd5b60200101906001600160f81b031916908160001a905350600061454c846002614f4b565b614557906001614e34565b90505b60018111156145eb576f181899199a1a9b1b9c1cb0b131b232b360811b85600f166010811061459957634e487b7160e01b600052603260045260246000fd5b1a60f81b8282815181106145bd57634e487b7160e01b600052603260045260246000fd5b60200101906001600160f81b031916908160001a90535060049490941c936145e481614fad565b905061455a565b5083156131945760405162461bcd60e51b815260206004820181905260248201527f537472696e67733a20686578206c656e67746820696e73756666696369656e746044820152606401610d68565b61464381614251565b6040516001600160a01b038216907fbc7cd75a20ee27fd9adebab32041f755214dbc6bffa90cc0225b39da2e5c2d3b90600090a250565b606061319483836040518060600160405280602781526020016150506027913961477a565b6060824710156147005760405162461bcd60e51b815260206004820152602660248201527f416464726573733a20696e73756666696369656e742062616c616e636520666f6044820152651c8818d85b1b60d21b6064820152608401610d68565b600080866001600160a01b0316858760405161471c9190614b1b565b60006040518083038185875af1925050503d8060008114614759576040519150601f19603f3d011682016040523d82523d6000602084013e61475e565b606091505b509150915061476f878383876147f2565b979650505050505050565b6060600080856001600160a01b0316856040516147979190614b1b565b600060405180830381855af49150503d80600081146147d2576040519150601f19603f3d011682016040523d82523d6000602084013e6147d7565b606091505b50915091506147e8868383876147f2565b9695505050505050565b6060831561485e578251614857576001600160a01b0385163b6148575760405162461bcd60e51b815260206004820152601d60248201527f416464726573733a2063616c6c20746f206e6f6e2d636f6e74726163740000006044820152606401610d68565b5081613cdb565b613cdb83838151156148735781518083602001fd5b8060405162461bcd60e51b8152600401610d689190614bbf565b803560ff81168114610c7e57600080fd5b6000602082840312156148af578081fd5b81356131948161501a565b6000602082840312156148cb578081fd5b81516131948161501a565b600080604083850312156148e8578081fd5b82356148f38161501a565b9150602083013567ffffffffffffffff81111561490e578182fd5b8301601f8101851361491e578182fd5b803561493161492c82614e0c565b614ddb565b818152866020838501011115614945578384fd5b81602084016020830137908101602001929092525090939092509050565b600060208284031215614974578081fd5b81518015158114613194578182fd5b600060208284031215614994578081fd5b5035919050565b6000602082840312156149ac578081fd5b5051919050565b600080604083850312156149c5578182fd5b8235915060208301356149d78161501a565b809150509250929050565b6000602082840312156149f3578081fd5b81356001600160e01b031981168114613194578182fd5b600080600080600080600060e0888a031215614a24578283fd5b8735614a2f8161501a565b96506020880135955060408801359450606088013593506080880135925060a08801359150614a6060c0890161488d565b905092959891949750929550565b600060208284031215614a7f578081fd5b815167ffffffffffffffff811115614a95578182fd5b8201601f81018413614aa5578182fd5b8051614ab361492c82614e0c565b818152856020838501011115614ac7578384fd5b610c07826020830160208601614f81565b600060208284031215614ae9578081fd5b6131948261488d565b60008060408385031215614b04578081fd5b614b0d8361488d565b946020939093013593505050565b60008251614b2d818460208701614f81565b9190910192915050565b76020b1b1b2b9b9a1b7b73a3937b61d1030b1b1b7bab73a1604d1b815260008351614b69816017850160208801614f81565b7001034b99036b4b9b9b4b733903937b6329607d1b6017918401918201528351614b9a816028840160208801614f81565b01602801949350505050565b6001600160a01b03929092168252602082015260400190565b6020815260008251806020840152614bde816040850160208701614f81565b601f01601f19169190910160400192915050565b6020808252602c908201527f46756e6374696f6e206d7573742062652063616c6c6564207468726f7567682060408201526b19195b1959d85d1958d85b1b60a21b606082015260800190565b6020808252602c908201527f46756e6374696f6e206d7573742062652063616c6c6564207468726f7567682060408201526b6163746976652070726f787960a01b606082015260800190565b6020808252602e908201527f496e697469616c697a61626c653a20636f6e747261637420697320616c72656160408201526d191e481a5b9a5d1a585b1a5e995960921b606082015260800190565b6020808252600d908201526c125b9d985b1a5908125b9c1d5d609a1b604082015260600190565b6020808252602b908201527f496e697469616c697a61626c653a20636f6e7472616374206973206e6f74206960408201526a6e697469616c697a696e6760a81b606082015260800190565b60208082526026908201527f5061757365725061757361626c653a2043616c6c6572206973206e6f742061206040820152653830bab9b2b960d11b606082015260800190565b6020808252602b908201527f4d75737420686176652061646d696e20726f6c6520746f20706572666f726d2060408201526a3a3434b99030b1ba34b7b760a91b606082015260800190565b604051601f8201601f1916810167ffffffffffffffff81118282101715614e0457614e04615004565b604052919050565b600067ffffffffffffffff821115614e2657614e26615004565b50601f01601f191660200190565b60008219821115614e4757614e47614fd8565b500190565b600082614e5b57614e5b614fee565b500490565b600181815b80851115614e9b578160001904821115614e8157614e81614fd8565b80851615614e8e57918102915b93841c9390800290614e65565b509250929050565b60006131948383600082614eb957506001610aa7565b81614ec657506000610aa7565b8160018114614edc5760028114614ee657614f02565b6001915050610aa7565b60ff841115614ef757614ef7614fd8565b50506001821b610aa7565b5060208310610133831016604e8410600b8410161715614f25575081810a610aa7565b614f2f8383614e60565b8060001904821115614f4357614f43614fd8565b029392505050565b6000816000190483118215151615614f6557614f65614fd8565b500290565b600082821015614f7c57614f7c614fd8565b500390565b60005b83811015614f9c578181015183820152602001614f84565b838111156135b65750506000910152565b600081614fbc57614fbc614fd8565b506000190190565b600082614fd357614fd3614fee565b500690565b634e487b7160e01b600052601160045260246000fd5b634e487b7160e01b600052601260045260246000fd5b634e487b7160e01b600052604160045260246000fd5b6001600160a01b0381168114611af657600080fdfe360894a13ba1a3210667c828492db98dca3e2076cc3735a920a3ca505d382bbc416464726573733a206c6f772d6c6576656c2064656c65676174652063616c6c206661696c6564a26469706673582212209f14a34e6a2d3541ebc6f77d0f59769619b25b1d6bab5c66d5c3d6d8474f560464736f6c63430008040033","opcodes":"PUSH1 0xA0 PUSH1 0x40 MSTORE ADDRESS PUSH1 0x60 SHL PUSH1 0x80 MSTORE CALLVALUE DUP1 ISZERO PUSH2 0x17 JUMPI PUSH1 0x0 DUP1 REVERT JUMPDEST POP PUSH1 0x80 MLOAD PUSH1 0x60 SHR PUSH2 0x50AC PUSH2 0x52 PUSH1 0x0 CODECOPY PUSH1 0x0 DUP2 DUP2 PUSH2 0x1A3B ADD MSTORE DUP2 DUP2 PUSH2 0x1A7B ADD MSTORE DUP2 DUP2 PUSH2 0x1B33 ADD MSTORE DUP2 DUP2 PUSH2 0x1B73 ADD MSTORE PUSH2 0x1CB4 ADD MSTORE PUSH2 0x50AC PUSH1 0x0 RETURN INVALID PUSH1 0x80 PUSH1 0x40 MSTORE PUSH1 0x4 CALLDATASIZE LT PUSH2 0x32D JUMPI PUSH1 0x0 CALLDATALOAD PUSH1 0xE0 SHR DUP1 PUSH4 0x5D9889C3 GT PUSH2 0x1A7 JUMPI DUP1 PUSH4 0xA95324CD GT PUSH2 0xED JUMPI DUP1 PUSH4 0xD661D320 GT PUSH2 0x90 JUMPI DUP1 PUSH4 0xD661D320 EQ PUSH2 0x9B0 JUMPI DUP1 PUSH4 0xDDC22B74 EQ PUSH2 0x9C5 JUMPI DUP1 PUSH4 0xDF9FD1C1 EQ PUSH2 0x9E7 JUMPI DUP1 PUSH4 0xE196A1D3 EQ PUSH2 0x9FC JUMPI DUP1 PUSH4 0xE77EF21F EQ PUSH2 0xA13 JUMPI DUP1 PUSH4 0xEB133798 EQ PUSH2 0xA28 JUMPI DUP1 PUSH4 0xF0B7F6A1 EQ PUSH2 0xA3F JUMPI DUP1 PUSH4 0xF4D4C9D7 EQ PUSH2 0xA56 JUMPI PUSH1 0x0 DUP1 REVERT JUMPDEST DUP1 PUSH4 0xA95324CD EQ PUSH2 0x8D5 JUMPI DUP1 PUSH4 0xB2A01055 EQ PUSH2 0x8EC JUMPI DUP1 PUSH4 0xB6DB75A0 EQ PUSH2 0x90D JUMPI DUP1 PUSH4 0xC40468E2 EQ PUSH2 0x922 JUMPI DUP1 PUSH4 0xC4F31A65 EQ PUSH2 0x939 JUMPI DUP1 PUSH4 0xCD7401B8 EQ PUSH2 0x959 JUMPI DUP1 PUSH4 0xD547741F EQ PUSH2 0x979 JUMPI DUP1 PUSH4 0xD6213758 EQ PUSH2 0x999 JUMPI PUSH1 0x0 DUP1 REVERT JUMPDEST DUP1 PUSH4 0x83933A2B GT PUSH2 0x155 JUMPI DUP1 PUSH4 0x83933A2B EQ PUSH2 0x812 JUMPI DUP1 PUSH4 0x8456CB59 EQ PUSH2 0x827 JUMPI DUP1 PUSH4 0x88F1D1F2 EQ PUSH2 0x83C JUMPI DUP1 PUSH4 0x91D14854 EQ PUSH2 0x853 JUMPI DUP1 PUSH4 0x9A3247ED EQ PUSH2 0x873 JUMPI DUP1 PUSH4 0x9F964FE6 EQ PUSH2 0x88A JUMPI DUP1 PUSH4 0xA12DDE4D EQ PUSH2 0x8A0 JUMPI DUP1 PUSH4 0xA217FDDF EQ PUSH2 0x8C0 JUMPI PUSH1 0x0 DUP1 REVERT JUMPDEST DUP1 PUSH4 0x5D9889C3 EQ PUSH2 0x750 JUMPI DUP1 PUSH4 0x60D86AB0 EQ PUSH2 0x767 JUMPI DUP1 PUSH4 0x6A15633B EQ PUSH2 0x77E JUMPI DUP1 PUSH4 0x6A40AF39 EQ PUSH2 0x79E JUMPI DUP1 PUSH4 0x6F49712B EQ PUSH2 0x7B5 JUMPI DUP1 PUSH4 0x7101FD16 EQ PUSH2 0x7E6 JUMPI DUP1 PUSH4 0x80A9EAA9 EQ PUSH2 0x7FB JUMPI PUSH1 0x0 DUP1 REVERT JUMPDEST DUP1 PUSH4 0x34D93FB4 GT PUSH2 0x277 JUMPI DUP1 PUSH4 0x46E00489 GT PUSH2 0x21A JUMPI DUP1 PUSH4 0x46E00489 EQ PUSH2 0x65E JUMPI DUP1 PUSH4 0x4F1EF286 EQ PUSH2 0x697 JUMPI DUP1 PUSH4 0x526D81F6 EQ PUSH2 0x6AA JUMPI DUP1 PUSH4 0x52D1902D EQ PUSH2 0x6BF JUMPI DUP1 PUSH4 0x53654E85 EQ PUSH2 0x6D4 JUMPI DUP1 PUSH4 0x588387EC EQ PUSH2 0x6F4 JUMPI DUP1 PUSH4 0x5C975ABB EQ PUSH2 0x721 JUMPI DUP1 PUSH4 0x5C9E2003 EQ PUSH2 0x739 JUMPI PUSH1 0x0 DUP1 REVERT JUMPDEST DUP1 PUSH4 0x34D93FB4 EQ PUSH2 0x58A JUMPI DUP1 PUSH4 0x36568ABE EQ PUSH2 0x59F JUMPI DUP1 PUSH4 0x3659CFE6 EQ PUSH2 0x5BF JUMPI DUP1 PUSH4 0x373BA911 EQ PUSH2 0x5DF JUMPI DUP1 PUSH4 0x3877F3E5 EQ PUSH2 0x600 JUMPI DUP1 PUSH4 0x3F4BA83A EQ PUSH2 0x617 JUMPI DUP1 PUSH4 0x44F029C5 EQ PUSH2 0x62C JUMPI DUP1 PUSH4 0x45FF732B EQ PUSH2 0x643 JUMPI PUSH1 0x0 DUP1 REVERT JUMPDEST DUP1 PUSH4 0x17CD802D GT PUSH2 0x2DF JUMPI DUP1 PUSH4 0x17CD802D EQ PUSH2 0x43C JUMPI DUP1 PUSH4 0x1B67BBC4 EQ PUSH2 0x451 JUMPI DUP1 PUSH4 0x1E0018D6 EQ PUSH2 0x4BF JUMPI DUP1 PUSH4 0x248A9CA3 EQ PUSH2 0x4E0 JUMPI DUP1 PUSH4 0x257C2736 EQ PUSH2 0x510 JUMPI DUP1 PUSH4 0x25D7C2F0 EQ PUSH2 0x525 JUMPI DUP1 PUSH4 0x2D152814 EQ PUSH2 0x53C JUMPI DUP1 PUSH4 0x2F2FF15D EQ PUSH2 0x56A JUMPI PUSH1 0x0 DUP1 REVERT JUMPDEST DUP1 PUSH4 0x1FFC9A7 EQ PUSH2 0x332 JUMPI DUP1 PUSH4 0x4B30CA4 EQ PUSH2 0x367 JUMPI DUP1 PUSH4 0x74F2543 EQ PUSH2 0x38C JUMPI DUP1 PUSH4 0x7A7C08A EQ PUSH2 0x3A1 JUMPI DUP1 PUSH4 0xB4A45FD EQ PUSH2 0x3CB JUMPI DUP1 PUSH4 0xE23994D EQ PUSH2 0x3E2 JUMPI DUP1 PUSH4 0x11EAC855 EQ PUSH2 0x41B JUMPI JUMPDEST PUSH1 0x0 DUP1 REVERT JUMPDEST CALLVALUE DUP1 ISZERO PUSH2 0x33E JUMPI PUSH1 0x0 DUP1 REVERT JUMPDEST POP PUSH2 0x352 PUSH2 0x34D CALLDATASIZE PUSH1 0x4 PUSH2 0x49E2 JUMP JUMPDEST PUSH2 0xA76 JUMP JUMPDEST PUSH1 0x40 MLOAD SWAP1 ISZERO ISZERO DUP2 MSTORE PUSH1 0x20 ADD JUMPDEST PUSH1 0x40 MLOAD DUP1 SWAP2 SUB SWAP1 RETURN JUMPDEST CALLVALUE DUP1 ISZERO PUSH2 0x373 JUMPI PUSH1 0x0 DUP1 REVERT JUMPDEST POP PUSH2 0x37E PUSH2 0x166 SLOAD DUP2 JUMP JUMPDEST PUSH1 0x40 MLOAD SWAP1 DUP2 MSTORE PUSH1 0x20 ADD PUSH2 0x35E JUMP JUMPDEST CALLVALUE DUP1 ISZERO PUSH2 0x398 JUMPI PUSH1 0x0 DUP1 REVERT JUMPDEST POP PUSH2 0x37E PUSH2 0xAAD JUMP JUMPDEST CALLVALUE DUP1 ISZERO PUSH2 0x3AD JUMPI PUSH1 0x0 DUP1 REVERT JUMPDEST POP PUSH2 0x3B6 PUSH2 0xC83 JUMP JUMPDEST PUSH1 0x40 DUP1 MLOAD SWAP3 DUP4 MSTORE PUSH1 0x20 DUP4 ADD SWAP2 SWAP1 SWAP2 MSTORE ADD PUSH2 0x35E JUMP JUMPDEST CALLVALUE DUP1 ISZERO PUSH2 0x3D7 JUMPI PUSH1 0x0 DUP1 REVERT JUMPDEST POP PUSH2 0x3E0 PUSH2 0xD44 JUMP JUMPDEST STOP JUMPDEST CALLVALUE DUP1 ISZERO PUSH2 0x3EE JUMPI PUSH1 0x0 DUP1 REVERT JUMPDEST POP PUSH2 0x160 SLOAD PUSH2 0x403 SWAP1 PUSH1 0x1 PUSH1 0x1 PUSH1 0xA0 SHL SUB AND DUP2 JUMP JUMPDEST PUSH1 0x40 MLOAD PUSH1 0x1 PUSH1 0x1 PUSH1 0xA0 SHL SUB SWAP1 SWAP2 AND DUP2 MSTORE PUSH1 0x20 ADD PUSH2 0x35E JUMP JUMPDEST CALLVALUE DUP1 ISZERO PUSH2 0x427 JUMPI PUSH1 0x0 DUP1 REVERT JUMPDEST POP PUSH2 0x162 SLOAD PUSH2 0x403 SWAP1 PUSH1 0x1 PUSH1 0x1 PUSH1 0xA0 SHL SUB AND DUP2 JUMP JUMPDEST CALLVALUE DUP1 ISZERO PUSH2 0x448 JUMPI PUSH1 0x0 DUP1 REVERT JUMPDEST POP PUSH2 0x3E0 PUSH2 0xD81 JUMP JUMPDEST CALLVALUE DUP1 ISZERO PUSH2 0x45D JUMPI PUSH1 0x0 DUP1 REVERT JUMPDEST POP PUSH2 0x180 SLOAD PUSH2 0x181 SLOAD PUSH2 0x182 SLOAD PUSH2 0x183 SLOAD PUSH2 0x184 SLOAD PUSH2 0x185 SLOAD PUSH2 0x186 SLOAD PUSH2 0x48A SWAP7 SWAP6 SWAP5 SWAP4 PUSH1 0xFF AND SWAP3 SWAP2 SWAP1 DUP8 JUMP JUMPDEST PUSH1 0x40 DUP1 MLOAD SWAP8 DUP9 MSTORE PUSH1 0x20 DUP9 ADD SWAP7 SWAP1 SWAP7 MSTORE SWAP5 DUP7 ADD SWAP4 SWAP1 SWAP4 MSTORE SWAP1 ISZERO ISZERO PUSH1 0x60 DUP6 ADD MSTORE PUSH1 0x80 DUP5 ADD MSTORE PUSH1 0xA0 DUP4 ADD MSTORE PUSH1 0xC0 DUP3 ADD MSTORE PUSH1 0xE0 ADD PUSH2 0x35E JUMP JUMPDEST CALLVALUE DUP1 ISZERO PUSH2 0x4CB JUMPI PUSH1 0x0 DUP1 REVERT JUMPDEST POP PUSH2 0x161 SLOAD PUSH2 0x403 SWAP1 PUSH1 0x1 PUSH1 0x1 PUSH1 0xA0 SHL SUB AND DUP2 JUMP JUMPDEST CALLVALUE DUP1 ISZERO PUSH2 0x4EC JUMPI PUSH1 0x0 DUP1 REVERT JUMPDEST POP PUSH2 0x37E PUSH2 0x4FB CALLDATASIZE PUSH1 0x4 PUSH2 0x4983 JUMP JUMPDEST PUSH1 0x0 SWAP1 DUP2 MSTORE PUSH1 0x65 PUSH1 0x20 MSTORE PUSH1 0x40 SWAP1 KECCAK256 PUSH1 0x1 ADD SLOAD SWAP1 JUMP JUMPDEST CALLVALUE DUP1 ISZERO PUSH2 0x51C JUMPI PUSH1 0x0 DUP1 REVERT JUMPDEST POP PUSH2 0x3E0 PUSH2 0x15B6 JUMP JUMPDEST CALLVALUE DUP1 ISZERO PUSH2 0x531 JUMPI PUSH1 0x0 DUP1 REVERT JUMPDEST POP PUSH2 0x37E PUSH2 0x171 SLOAD DUP2 JUMP JUMPDEST CALLVALUE DUP1 ISZERO PUSH2 0x548 JUMPI PUSH1 0x0 DUP1 REVERT JUMPDEST POP PUSH2 0x37E PUSH2 0x557 CALLDATASIZE PUSH1 0x4 PUSH2 0x489E JUMP JUMPDEST PUSH2 0x177 PUSH1 0x20 MSTORE PUSH1 0x0 SWAP1 DUP2 MSTORE PUSH1 0x40 SWAP1 KECCAK256 SLOAD DUP2 JUMP JUMPDEST CALLVALUE DUP1 ISZERO PUSH2 0x576 JUMPI PUSH1 0x0 DUP1 REVERT JUMPDEST POP PUSH2 0x3E0 PUSH2 0x585 CALLDATASIZE PUSH1 0x4 PUSH2 0x49B3 JUMP JUMPDEST PUSH2 0x1957 JUMP JUMPDEST CALLVALUE DUP1 ISZERO PUSH2 0x596 JUMPI PUSH1 0x0 DUP1 REVERT JUMPDEST POP PUSH2 0x3E0 PUSH2 0x1981 JUMP JUMPDEST CALLVALUE DUP1 ISZERO PUSH2 0x5AB JUMPI PUSH1 0x0 DUP1 REVERT JUMPDEST POP PUSH2 0x3E0 PUSH2 0x5BA CALLDATASIZE PUSH1 0x4 PUSH2 0x49B3 JUMP JUMPDEST PUSH2 0x19B2 JUMP JUMPDEST CALLVALUE DUP1 ISZERO PUSH2 0x5CB JUMPI PUSH1 0x0 DUP1 REVERT JUMPDEST POP PUSH2 0x3E0 PUSH2 0x5DA CALLDATASIZE PUSH1 0x4 PUSH2 0x489E JUMP JUMPDEST PUSH2 0x1A30 JUMP JUMPDEST CALLVALUE DUP1 ISZERO PUSH2 0x5EB JUMPI PUSH1 0x0 DUP1 REVERT JUMPDEST POP PUSH2 0x163 SLOAD PUSH2 0x403 SWAP1 PUSH1 0x1 PUSH1 0x1 PUSH1 0xA0 SHL SUB AND DUP2 JUMP JUMPDEST CALLVALUE DUP1 ISZERO PUSH2 0x60C JUMPI PUSH1 0x0 DUP1 REVERT JUMPDEST POP PUSH2 0x37E PUSH2 0x168 SLOAD DUP2 JUMP JUMPDEST CALLVALUE DUP1 ISZERO PUSH2 0x623 JUMPI PUSH1 0x0 DUP1 REVERT JUMPDEST POP PUSH2 0x3E0 PUSH2 0x1AF9 JUMP JUMPDEST CALLVALUE DUP1 ISZERO PUSH2 0x638 JUMPI PUSH1 0x0 DUP1 REVERT JUMPDEST POP PUSH2 0x37E PUSH2 0x16F SLOAD DUP2 JUMP JUMPDEST CALLVALUE DUP1 ISZERO PUSH2 0x64F JUMPI PUSH1 0x0 DUP1 REVERT JUMPDEST POP PUSH2 0x176 SLOAD PUSH2 0x352 SWAP1 PUSH1 0xFF AND DUP2 JUMP JUMPDEST CALLVALUE DUP1 ISZERO PUSH2 0x66A JUMPI PUSH1 0x0 DUP1 REVERT JUMPDEST POP PUSH2 0x179 SLOAD PUSH2 0x17A SLOAD PUSH2 0x17B SLOAD PUSH2 0x17C SLOAD PUSH2 0x17D SLOAD PUSH2 0x17E SLOAD PUSH2 0x17F SLOAD PUSH2 0x48A SWAP7 SWAP6 SWAP5 SWAP4 PUSH1 0xFF AND SWAP3 SWAP2 SWAP1 DUP8 JUMP JUMPDEST PUSH2 0x3E0 PUSH2 0x6A5 CALLDATASIZE PUSH1 0x4 PUSH2 0x48D6 JUMP JUMPDEST PUSH2 0x1B28 JUMP JUMPDEST CALLVALUE DUP1 ISZERO PUSH2 0x6B6 JUMPI PUSH1 0x0 DUP1 REVERT JUMPDEST POP PUSH2 0x3E0 PUSH2 0x1BDE JUMP JUMPDEST CALLVALUE DUP1 ISZERO PUSH2 0x6CB JUMPI PUSH1 0x0 DUP1 REVERT JUMPDEST POP PUSH2 0x37E PUSH2 0x1CA7 JUMP JUMPDEST CALLVALUE DUP1 ISZERO PUSH2 0x6E0 JUMPI PUSH1 0x0 DUP1 REVERT JUMPDEST POP PUSH2 0x37E PUSH2 0x6EF CALLDATASIZE PUSH1 0x4 PUSH2 0x4AD8 JUMP JUMPDEST PUSH2 0x1D55 JUMP JUMPDEST CALLVALUE DUP1 ISZERO PUSH2 0x700 JUMPI PUSH1 0x0 DUP1 REVERT JUMPDEST POP PUSH2 0x165 SLOAD PUSH2 0x70F SWAP1 PUSH1 0xFF AND DUP2 JUMP JUMPDEST PUSH1 0x40 MLOAD PUSH1 0xFF SWAP1 SWAP2 AND DUP2 MSTORE PUSH1 0x20 ADD PUSH2 0x35E JUMP JUMPDEST CALLVALUE DUP1 ISZERO PUSH2 0x72D JUMPI PUSH1 0x0 DUP1 REVERT JUMPDEST POP PUSH1 0x97 SLOAD PUSH1 0xFF AND PUSH2 0x352 JUMP JUMPDEST CALLVALUE DUP1 ISZERO PUSH2 0x745 JUMPI PUSH1 0x0 DUP1 REVERT JUMPDEST POP PUSH2 0x37E PUSH2 0x164 SLOAD DUP2 JUMP JUMPDEST CALLVALUE DUP1 ISZERO PUSH2 0x75C JUMPI PUSH1 0x0 DUP1 REVERT JUMPDEST POP PUSH2 0x37E PUSH2 0x16C SLOAD DUP2 JUMP JUMPDEST CALLVALUE DUP1 ISZERO PUSH2 0x773 JUMPI PUSH1 0x0 DUP1 REVERT JUMPDEST POP PUSH2 0x37E PUSH2 0x173 SLOAD DUP2 JUMP JUMPDEST CALLVALUE DUP1 ISZERO PUSH2 0x78A JUMPI PUSH1 0x0 DUP1 REVERT JUMPDEST POP PUSH2 0x3E0 PUSH2 0x799 CALLDATASIZE PUSH1 0x4 PUSH2 0x4AD8 JUMP JUMPDEST PUSH2 0x21FB JUMP JUMPDEST CALLVALUE DUP1 ISZERO PUSH2 0x7AA JUMPI PUSH1 0x0 DUP1 REVERT JUMPDEST POP PUSH2 0x37E PUSH2 0x16E SLOAD DUP2 JUMP JUMPDEST CALLVALUE DUP1 ISZERO PUSH2 0x7C1 JUMPI PUSH1 0x0 DUP1 REVERT JUMPDEST POP PUSH2 0x352 PUSH2 0x7D0 CALLDATASIZE PUSH1 0x4 PUSH2 0x489E JUMP JUMPDEST PUSH2 0x178 PUSH1 0x20 MSTORE PUSH1 0x0 SWAP1 DUP2 MSTORE PUSH1 0x40 SWAP1 KECCAK256 SLOAD PUSH1 0xFF AND DUP2 JUMP JUMPDEST CALLVALUE DUP1 ISZERO PUSH2 0x7F2 JUMPI PUSH1 0x0 DUP1 REVERT JUMPDEST POP PUSH2 0x37E PUSH2 0x2269 JUMP JUMPDEST CALLVALUE DUP1 ISZERO PUSH2 0x807 JUMPI PUSH1 0x0 DUP1 REVERT JUMPDEST POP PUSH2 0x37E PUSH2 0x16A SLOAD DUP2 JUMP JUMPDEST CALLVALUE DUP1 ISZERO PUSH2 0x81E JUMPI PUSH1 0x0 DUP1 REVERT JUMPDEST POP PUSH2 0x37E PUSH2 0x239A JUMP JUMPDEST CALLVALUE DUP1 ISZERO PUSH2 0x833 JUMPI PUSH1 0x0 DUP1 REVERT JUMPDEST POP PUSH2 0x3E0 PUSH2 0x23E9 JUMP JUMPDEST CALLVALUE DUP1 ISZERO PUSH2 0x848 JUMPI PUSH1 0x0 DUP1 REVERT JUMPDEST POP PUSH2 0x37E PUSH2 0x175 SLOAD DUP2 JUMP JUMPDEST CALLVALUE DUP1 ISZERO PUSH2 0x85F JUMPI PUSH1 0x0 DUP1 REVERT JUMPDEST POP PUSH2 0x352 PUSH2 0x86E CALLDATASIZE PUSH1 0x4 PUSH2 0x49B3 JUMP JUMPDEST PUSH2 0x2418 JUMP JUMPDEST CALLVALUE DUP1 ISZERO PUSH2 0x87F JUMPI PUSH1 0x0 DUP1 REVERT JUMPDEST POP PUSH2 0x37E PUSH2 0x167 SLOAD DUP2 JUMP JUMPDEST CALLVALUE DUP1 ISZERO PUSH2 0x896 JUMPI PUSH1 0x0 DUP1 REVERT JUMPDEST POP PUSH2 0x17A SLOAD PUSH2 0x37E JUMP JUMPDEST CALLVALUE DUP1 ISZERO PUSH2 0x8AC JUMPI PUSH1 0x0 DUP1 REVERT JUMPDEST POP PUSH2 0x3E0 PUSH2 0x8BB CALLDATASIZE PUSH1 0x4 PUSH2 0x489E JUMP JUMPDEST PUSH2 0x2443 JUMP JUMPDEST CALLVALUE DUP1 ISZERO PUSH2 0x8CC JUMPI PUSH1 0x0 DUP1 REVERT JUMPDEST POP PUSH2 0x37E PUSH1 0x0 DUP2 JUMP JUMPDEST CALLVALUE DUP1 ISZERO PUSH2 0x8E1 JUMPI PUSH1 0x0 DUP1 REVERT JUMPDEST POP PUSH2 0x37E PUSH2 0x169 SLOAD DUP2 JUMP JUMPDEST CALLVALUE DUP1 ISZERO PUSH2 0x8F8 JUMPI PUSH1 0x0 DUP1 REVERT JUMPDEST POP PUSH2 0x15F SLOAD PUSH2 0x403 SWAP1 PUSH1 0x1 PUSH1 0x1 PUSH1 0xA0 SHL SUB AND DUP2 JUMP JUMPDEST CALLVALUE DUP1 ISZERO PUSH2 0x919 JUMPI PUSH1 0x0 DUP1 REVERT JUMPDEST POP PUSH2 0x352 PUSH2 0x2517 JUMP JUMPDEST CALLVALUE DUP1 ISZERO PUSH2 0x92E JUMPI PUSH1 0x0 DUP1 REVERT JUMPDEST POP PUSH2 0x37E PUSH2 0x16B SLOAD DUP2 JUMP JUMPDEST CALLVALUE DUP1 ISZERO PUSH2 0x945 JUMPI PUSH1 0x0 DUP1 REVERT JUMPDEST POP PUSH2 0x3E0 PUSH2 0x954 CALLDATASIZE PUSH1 0x4 PUSH2 0x4A0A JUMP JUMPDEST PUSH2 0x2524 JUMP JUMPDEST CALLVALUE DUP1 ISZERO PUSH2 0x965 JUMPI PUSH1 0x0 DUP1 REVERT JUMPDEST POP PUSH2 0x3E0 PUSH2 0x974 CALLDATASIZE PUSH1 0x4 PUSH2 0x4AD8 JUMP JUMPDEST PUSH2 0x2B1E JUMP JUMPDEST CALLVALUE DUP1 ISZERO PUSH2 0x985 JUMPI PUSH1 0x0 DUP1 REVERT JUMPDEST POP PUSH2 0x3E0 PUSH2 0x994 CALLDATASIZE PUSH1 0x4 PUSH2 0x49B3 JUMP JUMPDEST PUSH2 0x2B86 JUMP JUMPDEST CALLVALUE DUP1 ISZERO PUSH2 0x9A5 JUMPI PUSH1 0x0 DUP1 REVERT JUMPDEST POP PUSH2 0x37E PUSH2 0x16D SLOAD DUP2 JUMP JUMPDEST CALLVALUE DUP1 ISZERO PUSH2 0x9BC JUMPI PUSH1 0x0 DUP1 REVERT JUMPDEST POP PUSH2 0x37E PUSH2 0x2BAB JUMP JUMPDEST CALLVALUE DUP1 ISZERO PUSH2 0x9D1 JUMPI PUSH1 0x0 DUP1 REVERT JUMPDEST POP PUSH2 0x9DA PUSH2 0x2BBF JUMP JUMPDEST PUSH1 0x40 MLOAD PUSH2 0x35E SWAP2 SWAP1 PUSH2 0x4BBF JUMP JUMPDEST CALLVALUE DUP1 ISZERO PUSH2 0x9F3 JUMPI PUSH1 0x0 DUP1 REVERT JUMPDEST POP PUSH2 0x37E PUSH2 0x2C46 JUMP JUMPDEST CALLVALUE DUP1 ISZERO PUSH2 0xA08 JUMPI PUSH1 0x0 DUP1 REVERT JUMPDEST POP PUSH2 0x37E PUSH2 0x174 SLOAD DUP2 JUMP JUMPDEST CALLVALUE DUP1 ISZERO PUSH2 0xA1F JUMPI PUSH1 0x0 DUP1 REVERT JUMPDEST POP PUSH2 0x3E0 PUSH2 0x2C9D JUMP JUMPDEST CALLVALUE DUP1 ISZERO PUSH2 0xA34 JUMPI PUSH1 0x0 DUP1 REVERT JUMPDEST POP PUSH2 0x37E PUSH2 0x170 SLOAD DUP2 JUMP JUMPDEST CALLVALUE DUP1 ISZERO PUSH2 0xA4B JUMPI PUSH1 0x0 DUP1 REVERT JUMPDEST POP PUSH2 0x37E PUSH2 0x172 SLOAD DUP2 JUMP JUMPDEST CALLVALUE DUP1 ISZERO PUSH2 0xA62 JUMPI PUSH1 0x0 DUP1 REVERT JUMPDEST POP PUSH2 0x3E0 PUSH2 0xA71 CALLDATASIZE PUSH1 0x4 PUSH2 0x4AF2 JUMP JUMPDEST PUSH2 0x2E5B JUMP JUMPDEST PUSH1 0x0 PUSH1 0x1 PUSH1 0x1 PUSH1 0xE0 SHL SUB NOT DUP3 AND PUSH4 0x7965DB0B PUSH1 0xE0 SHL EQ DUP1 PUSH2 0xAA7 JUMPI POP PUSH4 0x1FFC9A7 PUSH1 0xE0 SHL PUSH1 0x1 PUSH1 0x1 PUSH1 0xE0 SHL SUB NOT DUP4 AND EQ JUMPDEST SWAP3 SWAP2 POP POP JUMP JUMPDEST PUSH1 0x0 PUSH2 0x16D SLOAD PUSH2 0x16C SLOAD GT PUSH2 0xAD5 JUMPI PUSH1 0x40 MLOAD PUSH4 0x85E9B4B PUSH1 0xE4 SHL DUP2 MSTORE PUSH1 0x4 ADD PUSH1 0x40 MLOAD DUP1 SWAP2 SUB SWAP1 REVERT JUMPDEST PUSH2 0x160 SLOAD PUSH2 0x164 SLOAD PUSH1 0x40 MLOAD PUSH4 0x231155F PUSH1 0xE5 SHL DUP2 MSTORE PUSH1 0x1 PUSH1 0x1 PUSH1 0xA0 SHL SUB SWAP1 SWAP3 AND SWAP2 PUSH4 0x4622ABE0 SWAP2 PUSH2 0xB0C SWAP2 PUSH1 0x4 ADD SWAP1 DUP2 MSTORE PUSH1 0x20 ADD SWAP1 JUMP JUMPDEST PUSH1 0x20 PUSH1 0x40 MLOAD DUP1 DUP4 SUB DUP2 DUP7 DUP1 EXTCODESIZE ISZERO DUP1 ISZERO PUSH2 0xB24 JUMPI PUSH1 0x0 DUP1 REVERT JUMPDEST POP GAS STATICCALL ISZERO DUP1 ISZERO PUSH2 0xB38 JUMPI RETURNDATASIZE PUSH1 0x0 DUP1 RETURNDATACOPY RETURNDATASIZE PUSH1 0x0 REVERT JUMPDEST POP POP POP POP PUSH1 0x40 MLOAD RETURNDATASIZE PUSH1 0x1F NOT PUSH1 0x1F DUP3 ADD AND DUP3 ADD DUP1 PUSH1 0x40 MSTORE POP DUP2 ADD SWAP1 PUSH2 0xB5C SWAP2 SWAP1 PUSH2 0x4963 JUMP JUMPDEST ISZERO PUSH2 0xB7A JUMPI PUSH1 0x40 MLOAD PUSH4 0x1BC818BD PUSH1 0xE2 SHL DUP2 MSTORE PUSH1 0x4 ADD PUSH1 0x40 MLOAD DUP1 SWAP2 SUB SWAP1 REVERT JUMPDEST PUSH2 0x165 SLOAD PUSH1 0x0 SWAP1 PUSH1 0xFF AND PUSH1 0x1 EQ ISZERO PUSH2 0xC10 JUMPI POP PUSH2 0x16E SLOAD TIMESTAMP PUSH1 0x0 PUSH2 0xB9C PUSH2 0x2C46 JUMP JUMPDEST SWAP1 POP PUSH1 0x0 DUP2 DUP4 GT ISZERO PUSH2 0xBFD JUMPI PUSH1 0x0 PUSH2 0xBC1 PUSH3 0x15180 PUSH2 0xBBB DUP7 DUP7 PUSH2 0x3188 JUMP JUMPDEST SWAP1 PUSH2 0x319B JUMP JUMPDEST SWAP1 POP PUSH2 0xBF9 PUSH3 0xF4240 JUMPDEST PUSH2 0xBBB PUSH2 0x16E SLOAD PUSH2 0xBF3 PUSH2 0xBEC PUSH1 0x64 PUSH2 0x16F SLOAD PUSH2 0x319B SWAP1 SWAP2 SWAP1 PUSH4 0xFFFFFFFF AND JUMP JUMPDEST DUP7 SWAP1 PUSH2 0x31A7 JUMP JUMPDEST SWAP1 PUSH2 0x31A7 JUMP JUMPDEST SWAP2 POP POP JUMPDEST PUSH2 0xC07 DUP5 DUP3 PUSH2 0x31B3 JUMP JUMPDEST SWAP6 SWAP5 POP POP POP POP POP JUMP JUMPDEST POP PUSH2 0x16E SLOAD TIMESTAMP PUSH1 0x0 PUSH2 0xC20 PUSH2 0x2C46 JUMP JUMPDEST SWAP1 POP PUSH1 0x0 DUP2 DUP4 GT ISZERO PUSH2 0xC51 JUMPI PUSH1 0x0 PUSH2 0xC3F PUSH3 0x15180 PUSH2 0xBBB DUP7 DUP7 PUSH2 0x3188 JUMP JUMPDEST SWAP1 POP PUSH2 0xC4D PUSH3 0xF4240 PUSH2 0xBCB JUMP JUMPDEST SWAP2 POP POP JUMPDEST PUSH2 0xC5B DUP5 DUP3 PUSH2 0x31B3 JUMP JUMPDEST SWAP4 POP PUSH2 0x16D SLOAD PUSH2 0x16C SLOAD EQ ISZERO PUSH2 0xC7A JUMPI PUSH2 0x166 SLOAD PUSH2 0xC07 SWAP1 DUP6 SWAP1 PUSH2 0x31B3 JUMP JUMPDEST POP POP POP JUMPDEST SWAP2 SWAP1 POP JUMP JUMPDEST PUSH1 0x0 DUP1 PUSH1 0x0 PUSH2 0xC9C PUSH2 0x171 SLOAD PUSH2 0x169 SLOAD PUSH2 0x168 SLOAD PUSH2 0x31BF JUMP JUMPDEST PUSH2 0x15F SLOAD SWAP1 SWAP2 POP PUSH1 0x0 SWAP1 PUSH2 0xCD3 SWAP1 PUSH2 0xCC9 SWAP1 PUSH1 0x1 SWAP1 PUSH2 0xCC3 SWAP1 PUSH1 0x1 PUSH1 0x1 PUSH1 0xA0 SHL SUB AND PUSH2 0x32A0 JUMP JUMPDEST SWAP1 PUSH2 0x31B3 JUMP JUMPDEST PUSH2 0x166 SLOAD SWAP1 PUSH2 0x319B JUMP JUMPDEST PUSH2 0x15F SLOAD SWAP1 SWAP2 POP PUSH1 0x0 SWAP1 PUSH2 0xCFA SWAP1 PUSH2 0xCF3 SWAP1 PUSH1 0x1 PUSH1 0x1 PUSH1 0xA0 SHL SUB AND PUSH2 0x32A0 JUMP JUMPDEST DUP4 SWAP1 PUSH2 0x31A7 JUMP JUMPDEST SWAP1 POP PUSH1 0x0 PUSH2 0xD18 DUP5 PUSH2 0xBBB PUSH2 0x172 SLOAD DUP6 PUSH2 0x31A7 SWAP1 SWAP2 SWAP1 PUSH4 0xFFFFFFFF AND JUMP JUMPDEST SWAP1 POP PUSH1 0x0 PUSH2 0xD36 DUP6 PUSH2 0xBBB PUSH2 0x173 SLOAD DUP8 PUSH2 0x31A7 SWAP1 SWAP2 SWAP1 PUSH4 0xFFFFFFFF AND JUMP JUMPDEST SWAP2 SWAP8 SWAP2 SWAP7 POP SWAP1 SWAP5 POP POP POP POP POP JUMP JUMPDEST PUSH2 0xD4C PUSH2 0x2517 JUMP JUMPDEST PUSH2 0xD71 JUMPI PUSH1 0x40 MLOAD PUSH3 0x461BCD PUSH1 0xE5 SHL DUP2 MSTORE PUSH1 0x4 ADD PUSH2 0xD68 SWAP1 PUSH2 0x4D90 JUMP JUMPDEST PUSH1 0x40 MLOAD DUP1 SWAP2 SUB SWAP1 REVERT JUMPDEST PUSH2 0x176 DUP1 SLOAD PUSH1 0xFF NOT AND PUSH1 0x1 OR SWAP1 SSTORE JUMP JUMPDEST PUSH2 0xD89 PUSH2 0x3321 JUMP JUMPDEST PUSH2 0xD9A PUSH2 0xD94 PUSH2 0x337B JUMP JUMPDEST CALLER PUSH2 0x2418 JUMP JUMPDEST PUSH2 0xDA3 JUMPI PUSH1 0x0 DUP1 REVERT JUMPDEST PUSH2 0x16D SLOAD PUSH2 0x16C SLOAD GT PUSH2 0xDC9 JUMPI PUSH1 0x40 MLOAD PUSH4 0x85E9B4B PUSH1 0xE4 SHL DUP2 MSTORE PUSH1 0x4 ADD PUSH1 0x40 MLOAD DUP1 SWAP2 SUB SWAP1 REVERT JUMPDEST PUSH2 0x160 SLOAD PUSH2 0x164 SLOAD PUSH1 0x40 MLOAD PUSH4 0x231155F PUSH1 0xE5 SHL DUP2 MSTORE PUSH1 0x1 PUSH1 0x1 PUSH1 0xA0 SHL SUB SWAP1 SWAP3 AND SWAP2 PUSH4 0x4622ABE0 SWAP2 PUSH2 0xE00 SWAP2 PUSH1 0x4 ADD SWAP1 DUP2 MSTORE PUSH1 0x20 ADD SWAP1 JUMP JUMPDEST PUSH1 0x20 PUSH1 0x40 MLOAD DUP1 DUP4 SUB DUP2 DUP7 DUP1 EXTCODESIZE ISZERO DUP1 ISZERO PUSH2 0xE18 JUMPI PUSH1 0x0 DUP1 REVERT JUMPDEST POP GAS STATICCALL ISZERO DUP1 ISZERO PUSH2 0xE2C JUMPI RETURNDATASIZE PUSH1 0x0 DUP1 RETURNDATACOPY RETURNDATASIZE PUSH1 0x0 REVERT JUMPDEST POP POP POP POP PUSH1 0x40 MLOAD RETURNDATASIZE PUSH1 0x1F NOT PUSH1 0x1F DUP3 ADD AND DUP3 ADD DUP1 PUSH1 0x40 MSTORE POP DUP2 ADD SWAP1 PUSH2 0xE50 SWAP2 SWAP1 PUSH2 0x4963 JUMP JUMPDEST ISZERO PUSH2 0xE6E JUMPI PUSH1 0x40 MLOAD PUSH4 0x1BC818BD PUSH1 0xE2 SHL DUP2 MSTORE PUSH1 0x4 ADD PUSH1 0x40 MLOAD DUP1 SWAP2 SUB SWAP1 REVERT JUMPDEST TIMESTAMP PUSH1 0x0 PUSH2 0xE79 PUSH2 0x2C46 JUMP JUMPDEST SWAP1 POP PUSH1 0x0 DUP2 DUP4 GT ISZERO PUSH2 0xEAA JUMPI PUSH1 0x0 PUSH2 0xE98 PUSH3 0x15180 PUSH2 0xBBB DUP7 DUP7 PUSH2 0x3188 JUMP JUMPDEST SWAP1 POP PUSH2 0xEA6 PUSH3 0xF4240 PUSH2 0xBCB JUMP JUMPDEST SWAP2 POP POP JUMPDEST PUSH2 0x165 SLOAD PUSH1 0xFF AND PUSH1 0x1 EQ ISZERO PUSH2 0x11BB JUMPI PUSH2 0x16E SLOAD PUSH2 0x170 DUP1 SLOAD DUP3 SWAP2 SWAP1 PUSH1 0x0 SWAP1 PUSH2 0xED3 SWAP1 DUP5 SWAP1 PUSH2 0x4E34 JUMP JUMPDEST SWAP3 POP POP DUP2 SWAP1 SSTORE POP PUSH1 0x0 PUSH2 0xEF0 PUSH2 0x171 SLOAD PUSH2 0x169 SLOAD PUSH2 0x168 SLOAD PUSH2 0x31BF JUMP JUMPDEST SWAP1 POP PUSH1 0x0 PUSH2 0xF0A DUP3 PUSH2 0x16E SLOAD PUSH2 0x3188 SWAP1 SWAP2 SWAP1 PUSH4 0xFFFFFFFF AND JUMP JUMPDEST PUSH2 0x15F SLOAD SWAP1 SWAP2 POP PUSH2 0xF3C SWAP1 PUSH2 0xF32 SWAP1 PUSH2 0xF2B SWAP1 PUSH1 0x1 PUSH1 0x1 PUSH1 0xA0 SHL SUB AND PUSH2 0x339F JUMP JUMPDEST DUP4 SWAP1 PUSH2 0x3188 JUMP JUMPDEST PUSH2 0x171 SLOAD SWAP1 PUSH2 0x3188 JUMP JUMPDEST PUSH2 0x171 SSTORE PUSH2 0x15F SLOAD PUSH1 0x0 SWAP1 PUSH2 0xF6B SWAP1 PUSH2 0xF64 SWAP1 PUSH1 0x1 SWAP1 PUSH2 0xCC3 SWAP1 PUSH1 0x1 PUSH1 0x1 PUSH1 0xA0 SHL SUB AND PUSH2 0x32A0 JUMP JUMPDEST DUP4 SWAP1 PUSH2 0x319B JUMP JUMPDEST PUSH2 0x15F SLOAD SWAP1 SWAP2 POP PUSH1 0x0 SWAP1 PUSH2 0xF8B SWAP1 PUSH2 0xCF3 SWAP1 PUSH1 0x1 PUSH1 0x1 PUSH1 0xA0 SHL SUB AND PUSH2 0x32A0 JUMP JUMPDEST PUSH2 0x17B SLOAD SWAP1 SWAP2 POP PUSH2 0xF9C SWAP1 DUP3 PUSH2 0x31B3 JUMP JUMPDEST PUSH2 0x17B SSTORE PUSH2 0x182 SLOAD PUSH2 0xFAE SWAP1 DUP4 PUSH2 0x31B3 JUMP JUMPDEST PUSH2 0x182 SSTORE PUSH2 0x15F SLOAD PUSH1 0x0 SWAP1 DUP2 SWAP1 PUSH2 0x100C SWAP1 PUSH2 0xFD1 SWAP1 PUSH1 0x1 PUSH1 0x1 PUSH1 0xA0 SHL SUB AND PUSH2 0x33B7 JUMP JUMPDEST PUSH2 0x15F SLOAD PUSH2 0xFE7 SWAP1 PUSH1 0x1 PUSH1 0x1 PUSH1 0xA0 SHL SUB AND PUSH2 0x33CF JUMP JUMPDEST PUSH2 0x15F SLOAD DUP10 SWAP1 PUSH2 0xFFF SWAP1 PUSH1 0x1 PUSH1 0x1 PUSH1 0xA0 SHL SUB AND PUSH2 0x32A0 JUMP JUMPDEST PUSH2 0x166 SLOAD PUSH2 0x17A SLOAD PUSH2 0x33E7 JUMP JUMPDEST PUSH2 0x17E SLOAD SWAP2 SWAP4 POP SWAP2 POP PUSH2 0x101F SWAP1 DUP4 PUSH2 0x31B3 JUMP JUMPDEST PUSH2 0x17E SSTORE PUSH2 0x185 SLOAD PUSH2 0x1031 SWAP1 DUP3 PUSH2 0x31B3 JUMP JUMPDEST PUSH2 0x185 SSTORE PUSH2 0x1057 PUSH2 0x104D PUSH3 0xF4240 PUSH2 0x175 SLOAD PUSH2 0xBBB SWAP1 DUP13 PUSH2 0x31A7 JUMP JUMPDEST PUSH2 0x186 SLOAD SWAP1 PUSH2 0x31B3 JUMP JUMPDEST PUSH2 0x186 SSTORE PUSH2 0x107D PUSH2 0x1073 PUSH3 0xF4240 PUSH2 0x174 SLOAD PUSH2 0xBBB SWAP1 DUP13 PUSH2 0x31A7 JUMP JUMPDEST PUSH2 0x17F SLOAD SWAP1 PUSH2 0x31B3 JUMP JUMPDEST PUSH2 0x17F SSTORE PUSH1 0x0 PUSH2 0x10AB PUSH3 0xF4240 PUSH2 0x15F SLOAD PUSH2 0xBBB SWAP1 PUSH2 0x10A4 SWAP1 PUSH1 0x1 PUSH1 0x1 PUSH1 0xA0 SHL SUB AND PUSH2 0x33B7 JUMP JUMPDEST DUP11 SWAP1 PUSH2 0x31A7 JUMP JUMPDEST SWAP1 POP PUSH2 0x10D5 PUSH3 0xF4240 PUSH2 0x15F SLOAD PUSH2 0xBBB SWAP1 PUSH2 0x10CE SWAP1 PUSH1 0x1 PUSH1 0x1 PUSH1 0xA0 SHL SUB AND PUSH2 0x33B7 JUMP JUMPDEST DUP13 SWAP1 PUSH2 0x31A7 JUMP JUMPDEST PUSH2 0x10DF SWAP1 DUP3 PUSH2 0x4E34 JUMP JUMPDEST SWAP1 POP PUSH2 0x10EB DUP9 DUP11 PUSH2 0x31B3 JUMP JUMPDEST PUSH2 0x16A SLOAD SWAP1 SWAP9 POP PUSH2 0x10FC SWAP1 DUP3 PUSH2 0x31B3 JUMP JUMPDEST PUSH2 0x16A SSTORE PUSH2 0x162 SLOAD PUSH2 0x1119 SWAP1 PUSH1 0x1 PUSH1 0x1 PUSH1 0xA0 SHL SUB AND CALLER ADDRESS DUP12 PUSH2 0x354B JUMP JUMPDEST PUSH2 0x162 SLOAD PUSH2 0x15F SLOAD PUSH1 0x1 PUSH1 0x1 PUSH1 0xA0 SHL SUB SWAP2 DUP3 AND SWAP2 PUSH4 0xA9059CBB SWAP2 PUSH2 0x113D SWAP2 AND PUSH2 0x35BC JUMP JUMPDEST DUP4 PUSH1 0x40 MLOAD DUP4 PUSH4 0xFFFFFFFF AND PUSH1 0xE0 SHL DUP2 MSTORE PUSH1 0x4 ADD PUSH2 0x115B SWAP3 SWAP2 SWAP1 PUSH2 0x4BA6 JUMP JUMPDEST PUSH1 0x20 PUSH1 0x40 MLOAD DUP1 DUP4 SUB DUP2 PUSH1 0x0 DUP8 DUP1 EXTCODESIZE ISZERO DUP1 ISZERO PUSH2 0x1175 JUMPI PUSH1 0x0 DUP1 REVERT JUMPDEST POP GAS CALL ISZERO DUP1 ISZERO PUSH2 0x1189 JUMPI RETURNDATASIZE PUSH1 0x0 DUP1 RETURNDATACOPY RETURNDATASIZE PUSH1 0x0 REVERT JUMPDEST POP POP POP POP PUSH1 0x40 MLOAD RETURNDATASIZE PUSH1 0x1F NOT PUSH1 0x1F DUP3 ADD AND DUP3 ADD DUP1 PUSH1 0x40 MSTORE POP DUP2 ADD SWAP1 PUSH2 0x11AD SWAP2 SWAP1 PUSH2 0x4963 JUMP JUMPDEST POP POP POP POP POP POP POP POP POP PUSH2 0x1408 JUMP JUMPDEST PUSH1 0x0 PUSH2 0x16E SLOAD SWAP1 POP DUP1 PUSH2 0x170 PUSH1 0x0 DUP3 DUP3 SLOAD PUSH2 0x11D6 SWAP2 SWAP1 PUSH2 0x4E34 JUMP JUMPDEST SWAP1 SWAP2 SSTORE POP POP PUSH2 0x15F SLOAD PUSH1 0x0 SWAP1 DUP2 SWAP1 PUSH2 0x1228 SWAP1 PUSH2 0x11FA SWAP1 PUSH1 0x1 PUSH1 0x1 PUSH1 0xA0 SHL SUB AND PUSH2 0x33B7 JUMP JUMPDEST PUSH2 0x15F SLOAD PUSH2 0x1210 SWAP1 PUSH1 0x1 PUSH1 0x1 PUSH1 0xA0 SHL SUB AND PUSH2 0x33CF JUMP JUMPDEST PUSH2 0x15F SLOAD DUP7 SWAP1 PUSH2 0xFFF SWAP1 PUSH1 0x1 PUSH1 0x1 PUSH1 0xA0 SHL SUB AND PUSH2 0x32A0 JUMP JUMPDEST PUSH2 0x17E SLOAD SWAP2 SWAP4 POP SWAP2 POP PUSH2 0x123B SWAP1 DUP4 PUSH2 0x31B3 JUMP JUMPDEST PUSH2 0x17E SSTORE PUSH2 0x185 SLOAD PUSH2 0x124D SWAP1 DUP3 PUSH2 0x31B3 JUMP JUMPDEST PUSH2 0x185 SSTORE PUSH2 0x1269 PUSH2 0x104D PUSH3 0xF4240 PUSH2 0x175 SLOAD PUSH2 0xBBB SWAP1 DUP9 PUSH2 0x31A7 JUMP JUMPDEST PUSH2 0x186 SSTORE PUSH2 0x1285 PUSH2 0x1073 PUSH3 0xF4240 PUSH2 0x174 SLOAD PUSH2 0xBBB SWAP1 DUP9 PUSH2 0x31A7 JUMP JUMPDEST PUSH2 0x17F SSTORE PUSH1 0x0 PUSH2 0x12B3 PUSH3 0xF4240 PUSH2 0x15F SLOAD PUSH2 0xBBB SWAP1 PUSH2 0x12AC SWAP1 PUSH1 0x1 PUSH1 0x1 PUSH1 0xA0 SHL SUB AND PUSH2 0x33B7 JUMP JUMPDEST DUP8 SWAP1 PUSH2 0x31A7 JUMP JUMPDEST SWAP1 POP PUSH2 0x12DD PUSH3 0xF4240 PUSH2 0x15F SLOAD PUSH2 0xBBB SWAP1 PUSH2 0x12D6 SWAP1 PUSH1 0x1 PUSH1 0x1 PUSH1 0xA0 SHL SUB AND PUSH2 0x33B7 JUMP JUMPDEST DUP9 SWAP1 PUSH2 0x31A7 JUMP JUMPDEST PUSH2 0x12E7 SWAP1 DUP3 PUSH2 0x4E34 JUMP JUMPDEST SWAP1 POP PUSH2 0x16D SLOAD PUSH2 0x16C SLOAD EQ ISZERO PUSH2 0x1336 JUMPI PUSH2 0x166 SLOAD PUSH2 0x1306 SWAP1 DUP6 SWAP1 PUSH2 0x31B3 JUMP JUMPDEST SWAP4 POP PUSH2 0x1321 PUSH2 0x166 SLOAD PUSH2 0x170 SLOAD PUSH2 0x31B3 SWAP1 SWAP2 SWAP1 PUSH4 0xFFFFFFFF AND JUMP JUMPDEST PUSH2 0x170 SSTORE PUSH2 0x17A SLOAD PUSH2 0x17B SSTORE PUSH2 0x181 SLOAD PUSH2 0x182 SSTORE JUMPDEST PUSH2 0x1340 DUP5 DUP7 PUSH2 0x31B3 JUMP JUMPDEST PUSH2 0x16A SLOAD SWAP1 SWAP5 POP PUSH2 0x1351 SWAP1 DUP6 PUSH2 0x31B3 JUMP JUMPDEST PUSH2 0x16A SSTORE PUSH2 0x162 SLOAD PUSH2 0x136E SWAP1 PUSH1 0x1 PUSH1 0x1 PUSH1 0xA0 SHL SUB AND CALLER ADDRESS DUP8 PUSH2 0x354B JUMP JUMPDEST PUSH2 0x162 SLOAD PUSH2 0x15F SLOAD PUSH1 0x1 PUSH1 0x1 PUSH1 0xA0 SHL SUB SWAP2 DUP3 AND SWAP2 PUSH4 0xA9059CBB SWAP2 PUSH2 0x1392 SWAP2 AND PUSH2 0x35BC JUMP JUMPDEST DUP4 PUSH1 0x40 MLOAD DUP4 PUSH4 0xFFFFFFFF AND PUSH1 0xE0 SHL DUP2 MSTORE PUSH1 0x4 ADD PUSH2 0x13B0 SWAP3 SWAP2 SWAP1 PUSH2 0x4BA6 JUMP JUMPDEST PUSH1 0x20 PUSH1 0x40 MLOAD DUP1 DUP4 SUB DUP2 PUSH1 0x0 DUP8 DUP1 EXTCODESIZE ISZERO DUP1 ISZERO PUSH2 0x13CA JUMPI PUSH1 0x0 DUP1 REVERT JUMPDEST POP GAS CALL ISZERO DUP1 ISZERO PUSH2 0x13DE JUMPI RETURNDATASIZE PUSH1 0x0 DUP1 RETURNDATACOPY RETURNDATASIZE PUSH1 0x0 REVERT JUMPDEST POP POP POP POP PUSH1 0x40 MLOAD RETURNDATASIZE PUSH1 0x1F NOT PUSH1 0x1F DUP3 ADD AND DUP3 ADD DUP1 PUSH1 0x40 MSTORE POP DUP2 ADD SWAP1 PUSH2 0x1402 SWAP2 SWAP1 PUSH2 0x4963 JUMP JUMPDEST POP POP POP POP POP JUMPDEST PUSH2 0x16D SLOAD PUSH2 0x16C SLOAD EQ ISZERO PUSH2 0x1593 JUMPI PUSH2 0x160 SLOAD PUSH2 0x164 SLOAD PUSH1 0x40 MLOAD PUSH4 0x19978A43 PUSH1 0xE1 SHL DUP2 MSTORE PUSH1 0x1 PUSH1 0x1 PUSH1 0xA0 SHL SUB SWAP1 SWAP3 AND SWAP2 PUSH4 0x332F1486 SWAP2 PUSH2 0x144D SWAP2 PUSH1 0x4 ADD SWAP1 DUP2 MSTORE PUSH1 0x20 ADD SWAP1 JUMP JUMPDEST PUSH1 0x0 PUSH1 0x40 MLOAD DUP1 DUP4 SUB DUP2 PUSH1 0x0 DUP8 DUP1 EXTCODESIZE ISZERO DUP1 ISZERO PUSH2 0x1467 JUMPI PUSH1 0x0 DUP1 REVERT JUMPDEST POP GAS CALL ISZERO DUP1 ISZERO PUSH2 0x147B JUMPI RETURNDATASIZE PUSH1 0x0 DUP1 RETURNDATACOPY RETURNDATASIZE PUSH1 0x0 REVERT JUMPDEST POP POP PUSH2 0x15F SLOAD PUSH2 0x1496 SWAP3 POP PUSH1 0x1 PUSH1 0x1 PUSH1 0xA0 SHL SUB AND SWAP1 POP PUSH2 0x363E JUMP JUMPDEST PUSH2 0x164 SLOAD PUSH1 0x40 MLOAD PUSH4 0x34E650F PUSH1 0xE1 SHL DUP2 MSTORE PUSH1 0x0 PUSH1 0x4 DUP3 ADD DUP2 SWAP1 MSTORE PUSH1 0x24 DUP3 ADD SWAP3 SWAP1 SWAP3 MSTORE PUSH1 0x44 DUP2 ADD SWAP2 SWAP1 SWAP2 MSTORE PUSH1 0x1 PUSH1 0x1 PUSH1 0xA0 SHL SUB SWAP2 SWAP1 SWAP2 AND SWAP1 PUSH4 0x69CCA1E SWAP1 PUSH1 0x64 ADD PUSH1 0x0 PUSH1 0x40 MLOAD DUP1 DUP4 SUB DUP2 PUSH1 0x0 DUP8 DUP1 EXTCODESIZE ISZERO DUP1 ISZERO PUSH2 0x14F0 JUMPI PUSH1 0x0 DUP1 REVERT JUMPDEST POP GAS CALL ISZERO DUP1 ISZERO PUSH2 0x1504 JUMPI RETURNDATASIZE PUSH1 0x0 DUP1 RETURNDATACOPY RETURNDATASIZE PUSH1 0x0 REVERT JUMPDEST POP POP PUSH2 0x17E SLOAD PUSH2 0x17B SLOAD PUSH1 0x0 SWAP4 POP PUSH2 0x151D SWAP3 POP SWAP1 PUSH2 0x31B3 JUMP JUMPDEST PUSH2 0x17F SLOAD SWAP1 SWAP2 POP ISZERO PUSH2 0x1541 JUMPI PUSH2 0x17F SLOAD PUSH2 0x1538 SWAP1 DUP3 SWAP1 PUSH2 0x31B3 JUMP JUMPDEST PUSH1 0x0 PUSH2 0x17F SSTORE SWAP1 POP JUMPDEST PUSH1 0x0 PUSH2 0x17B DUP2 SWAP1 SSTORE PUSH2 0x17E SSTORE PUSH2 0x16A SLOAD PUSH2 0x155B SWAP1 DUP3 PUSH2 0x3188 JUMP JUMPDEST PUSH2 0x16A SSTORE PUSH2 0x15F SLOAD PUSH2 0x158D SWAP1 PUSH2 0x1579 SWAP1 PUSH1 0x1 PUSH1 0x1 PUSH1 0xA0 SHL SUB AND PUSH2 0x363E JUMP JUMPDEST PUSH2 0x162 SLOAD PUSH1 0x1 PUSH1 0x1 PUSH1 0xA0 SHL SUB AND SWAP1 DUP4 PUSH2 0x3656 JUMP JUMPDEST POP PUSH2 0x15A7 JUMP JUMPDEST PUSH2 0x16C SLOAD PUSH2 0x15A2 SWAP1 PUSH1 0x1 PUSH2 0x31B3 JUMP JUMPDEST PUSH2 0x16C SSTORE JUMPDEST POP POP POP PUSH2 0x15B4 PUSH1 0x1 PUSH1 0xC9 SSTORE JUMP JUMPDEST JUMP JUMPDEST PUSH2 0x160 SLOAD PUSH2 0x164 SLOAD PUSH1 0x40 MLOAD PUSH4 0x1A054C8B PUSH1 0xE2 SHL DUP2 MSTORE PUSH1 0x1 PUSH1 0x1 PUSH1 0xA0 SHL SUB SWAP1 SWAP3 AND SWAP2 PUSH4 0x6815322C SWAP2 PUSH2 0x15ED SWAP2 PUSH1 0x4 ADD SWAP1 DUP2 MSTORE PUSH1 0x20 ADD SWAP1 JUMP JUMPDEST PUSH1 0x20 PUSH1 0x40 MLOAD DUP1 DUP4 SUB DUP2 DUP7 DUP1 EXTCODESIZE ISZERO DUP1 ISZERO PUSH2 0x1605 JUMPI PUSH1 0x0 DUP1 REVERT JUMPDEST POP GAS STATICCALL ISZERO DUP1 ISZERO PUSH2 0x1619 JUMPI RETURNDATASIZE PUSH1 0x0 DUP1 RETURNDATACOPY RETURNDATASIZE PUSH1 0x0 REVERT JUMPDEST POP POP POP POP PUSH1 0x40 MLOAD RETURNDATASIZE PUSH1 0x1F NOT PUSH1 0x1F DUP3 ADD AND DUP3 ADD DUP1 PUSH1 0x40 MSTORE POP DUP2 ADD SWAP1 PUSH2 0x163D SWAP2 SWAP1 PUSH2 0x4963 JUMP JUMPDEST ISZERO ISZERO PUSH1 0x1 EQ ISZERO PUSH2 0x1660 JUMPI PUSH1 0x40 MLOAD PUSH4 0x230FFCD3 PUSH1 0xE0 SHL DUP2 MSTORE PUSH1 0x4 ADD PUSH1 0x40 MLOAD DUP1 SWAP2 SUB SWAP1 REVERT JUMPDEST PUSH2 0x15F SLOAD PUSH2 0x1676 SWAP1 PUSH1 0x1 PUSH1 0x1 PUSH1 0xA0 SHL SUB AND PUSH2 0x367C JUMP JUMPDEST PUSH1 0x1 PUSH1 0x1 PUSH1 0xA0 SHL SUB AND CALLER PUSH1 0x1 PUSH1 0x1 PUSH1 0xA0 SHL SUB AND EQ ISZERO PUSH2 0x16A8 JUMPI PUSH1 0x40 MLOAD PUSH4 0xCF45A705 PUSH1 0xE0 SHL DUP2 MSTORE PUSH1 0x4 ADD PUSH1 0x40 MLOAD DUP1 SWAP2 SUB SWAP1 REVERT JUMPDEST PUSH2 0x15F SLOAD PUSH1 0x0 SWAP1 PUSH2 0x16D0 SWAP1 PUSH2 0x16C5 SWAP1 PUSH1 0x1 PUSH1 0x1 PUSH1 0xA0 SHL SUB AND PUSH2 0x32A0 JUMP JUMPDEST PUSH2 0xCC9 SWAP1 PUSH1 0x1 PUSH2 0x4E34 JUMP JUMPDEST PUSH2 0x15F SLOAD SWAP1 SWAP2 POP PUSH1 0x0 SWAP1 PUSH2 0x16F0 SWAP1 PUSH2 0xCF3 SWAP1 PUSH1 0x1 PUSH1 0x1 PUSH1 0xA0 SHL SUB AND PUSH2 0x32A0 JUMP JUMPDEST SWAP1 POP PUSH1 0x0 PUSH2 0x1709 PUSH3 0xF4240 PUSH2 0x172 SLOAD PUSH2 0xBBB SWAP1 DUP6 PUSH2 0x31A7 JUMP JUMPDEST PUSH2 0x165 SLOAD SWAP1 SWAP2 POP PUSH1 0x0 SWAP1 PUSH1 0xFF AND PUSH1 0x1 EQ ISZERO PUSH2 0x1764 JUMPI TIMESTAMP PUSH1 0x0 PUSH2 0x1729 PUSH2 0x2C46 JUMP JUMPDEST SWAP1 POP PUSH1 0x0 DUP2 DUP4 GT ISZERO PUSH2 0x175A JUMPI PUSH1 0x0 PUSH2 0x1748 PUSH3 0x15180 PUSH2 0xBBB DUP7 DUP7 PUSH2 0x3188 JUMP JUMPDEST SWAP1 POP PUSH2 0x1756 PUSH3 0xF4240 PUSH2 0xBCB JUMP JUMPDEST SWAP2 POP POP JUMPDEST SWAP3 POP PUSH2 0x17C3 SWAP2 POP POP JUMP JUMPDEST PUSH2 0x16E SLOAD TIMESTAMP PUSH1 0x0 PUSH2 0x1773 PUSH2 0x2C46 JUMP JUMPDEST SWAP1 POP PUSH1 0x0 DUP2 DUP4 GT ISZERO PUSH2 0x17BD JUMPI PUSH1 0x0 PUSH2 0x1792 PUSH3 0x15180 PUSH2 0xBBB DUP7 DUP7 PUSH2 0x3188 JUMP JUMPDEST SWAP1 POP PUSH2 0x17B9 PUSH3 0xF4240 PUSH2 0xBBB DUP8 PUSH2 0xBF3 PUSH2 0xBEC PUSH1 0x64 PUSH2 0x16F SLOAD PUSH2 0x319B SWAP1 SWAP2 SWAP1 PUSH4 0xFFFFFFFF AND JUMP JUMPDEST SWAP2 POP POP JUMPDEST SWAP4 POP POP POP POP JUMPDEST PUSH2 0x17D8 PUSH3 0xF4240 PUSH2 0x174 SLOAD PUSH2 0xBBB SWAP1 DUP5 PUSH2 0x31A7 JUMP JUMPDEST PUSH2 0x17F SLOAD SWAP1 SWAP2 POP PUSH1 0x0 SWAP1 PUSH2 0x17ED SWAP1 DUP4 SWAP1 PUSH2 0x31B3 JUMP JUMPDEST PUSH2 0x17A SLOAD SWAP1 SWAP2 POP PUSH1 0x0 SWAP1 PUSH2 0x1801 DUP6 DUP5 PUSH2 0x4E34 JUMP JUMPDEST PUSH2 0x180B SWAP2 SWAP1 PUSH2 0x4E34 JUMP JUMPDEST SWAP1 POP DUP1 PUSH2 0x16A SLOAD GT ISZERO PUSH2 0x18B5 JUMPI PUSH2 0x15F SLOAD PUSH2 0x182E SWAP1 PUSH1 0x1 PUSH1 0x1 PUSH1 0xA0 SHL SUB AND PUSH2 0x363E JUMP JUMPDEST PUSH2 0x164 SLOAD PUSH1 0x40 MLOAD PUSH4 0x34E650F PUSH1 0xE1 SHL DUP2 MSTORE PUSH1 0x1 PUSH1 0x4 DUP3 ADD MSTORE PUSH1 0x24 DUP2 ADD SWAP2 SWAP1 SWAP2 MSTORE PUSH1 0x44 DUP2 ADD DUP4 SWAP1 MSTORE PUSH1 0x1 PUSH1 0x1 PUSH1 0xA0 SHL SUB SWAP2 SWAP1 SWAP2 AND SWAP1 PUSH4 0x69CCA1E SWAP1 PUSH1 0x64 ADD PUSH1 0x0 PUSH1 0x40 MLOAD DUP1 DUP4 SUB DUP2 PUSH1 0x0 DUP8 DUP1 EXTCODESIZE ISZERO DUP1 ISZERO PUSH2 0x1885 JUMPI PUSH1 0x0 DUP1 REVERT JUMPDEST POP GAS CALL ISZERO DUP1 ISZERO PUSH2 0x1899 JUMPI RETURNDATASIZE PUSH1 0x0 DUP1 RETURNDATACOPY RETURNDATASIZE PUSH1 0x0 REVERT JUMPDEST POP POP PUSH1 0x0 PUSH2 0x17B DUP2 SWAP1 SSTORE PUSH2 0x17E DUP2 SWAP1 SSTORE PUSH2 0x17F SSTORE POP PUSH2 0x194F SWAP1 POP JUMP JUMPDEST PUSH2 0x15F SLOAD PUSH2 0x18CB SWAP1 PUSH1 0x1 PUSH1 0x1 PUSH1 0xA0 SHL SUB AND PUSH2 0x363E JUMP JUMPDEST PUSH2 0x164 SLOAD PUSH2 0x16A SLOAD PUSH1 0x40 MLOAD PUSH4 0x34E650F PUSH1 0xE1 SHL DUP2 MSTORE PUSH1 0x1 PUSH1 0x4 DUP3 ADD MSTORE PUSH1 0x24 DUP2 ADD SWAP3 SWAP1 SWAP3 MSTORE PUSH1 0x44 DUP3 ADD MSTORE PUSH1 0x1 PUSH1 0x1 PUSH1 0xA0 SHL SUB SWAP2 SWAP1 SWAP2 AND SWAP1 PUSH4 0x69CCA1E SWAP1 PUSH1 0x64 ADD PUSH1 0x0 PUSH1 0x40 MLOAD DUP1 DUP4 SUB DUP2 PUSH1 0x0 DUP8 DUP1 EXTCODESIZE ISZERO DUP1 ISZERO PUSH2 0x1924 JUMPI PUSH1 0x0 DUP1 REVERT JUMPDEST POP GAS CALL ISZERO DUP1 ISZERO PUSH2 0x1938 JUMPI RETURNDATASIZE PUSH1 0x0 DUP1 RETURNDATACOPY RETURNDATASIZE PUSH1 0x0 REVERT JUMPDEST POP POP PUSH1 0x0 PUSH2 0x17B DUP2 SWAP1 SSTORE PUSH2 0x17E DUP2 SWAP1 SSTORE PUSH2 0x17F SSTORE POP POP JUMPDEST POP POP POP POP POP POP JUMP JUMPDEST PUSH1 0x0 DUP3 DUP2 MSTORE PUSH1 0x65 PUSH1 0x20 MSTORE PUSH1 0x40 SWAP1 KECCAK256 PUSH1 0x1 ADD SLOAD PUSH2 0x1972 DUP2 PUSH2 0x3694 JUMP JUMPDEST PUSH2 0x197C DUP4 DUP4 PUSH2 0x369E JUMP JUMPDEST POP POP POP JUMP JUMPDEST PUSH2 0x1989 PUSH2 0x2517 JUMP JUMPDEST PUSH2 0x19A5 JUMPI PUSH1 0x40 MLOAD PUSH3 0x461BCD PUSH1 0xE5 SHL DUP2 MSTORE PUSH1 0x4 ADD PUSH2 0xD68 SWAP1 PUSH2 0x4D90 JUMP JUMPDEST PUSH2 0x176 DUP1 SLOAD PUSH1 0xFF NOT AND SWAP1 SSTORE JUMP JUMPDEST PUSH1 0x1 PUSH1 0x1 PUSH1 0xA0 SHL SUB DUP2 AND CALLER EQ PUSH2 0x1A22 JUMPI PUSH1 0x40 MLOAD PUSH3 0x461BCD PUSH1 0xE5 SHL DUP2 MSTORE PUSH1 0x20 PUSH1 0x4 DUP3 ADD MSTORE PUSH1 0x2F PUSH1 0x24 DUP3 ADD MSTORE PUSH32 0x416363657373436F6E74726F6C3A2063616E206F6E6C792072656E6F756E6365 PUSH1 0x44 DUP3 ADD MSTORE PUSH15 0x103937B632B9903337B91039B2B633 PUSH1 0x89 SHL PUSH1 0x64 DUP3 ADD MSTORE PUSH1 0x84 ADD PUSH2 0xD68 JUMP JUMPDEST PUSH2 0x1A2C DUP3 DUP3 PUSH2 0x3724 JUMP JUMPDEST POP POP JUMP JUMPDEST ADDRESS PUSH1 0x1 PUSH1 0x1 PUSH1 0xA0 SHL SUB PUSH32 0x0 AND EQ ISZERO PUSH2 0x1A79 JUMPI PUSH1 0x40 MLOAD PUSH3 0x461BCD PUSH1 0xE5 SHL DUP2 MSTORE PUSH1 0x4 ADD PUSH2 0xD68 SWAP1 PUSH2 0x4BF2 JUMP JUMPDEST PUSH32 0x0 PUSH1 0x1 PUSH1 0x1 PUSH1 0xA0 SHL SUB AND PUSH2 0x1AAB PUSH2 0x378B JUMP JUMPDEST PUSH1 0x1 PUSH1 0x1 PUSH1 0xA0 SHL SUB AND EQ PUSH2 0x1AD1 JUMPI PUSH1 0x40 MLOAD PUSH3 0x461BCD PUSH1 0xE5 SHL DUP2 MSTORE PUSH1 0x4 ADD PUSH2 0xD68 SWAP1 PUSH2 0x4C3E JUMP JUMPDEST PUSH2 0x1ADA DUP2 PUSH2 0x37A7 JUMP JUMPDEST PUSH1 0x40 DUP1 MLOAD PUSH1 0x0 DUP1 DUP3 MSTORE PUSH1 0x20 DUP3 ADD SWAP1 SWAP3 MSTORE PUSH2 0x1AF6 SWAP2 DUP4 SWAP2 SWAP1 PUSH2 0x37CB JUMP JUMPDEST POP JUMP JUMPDEST PUSH2 0x1B04 PUSH2 0xD94 PUSH2 0x3945 JUMP JUMPDEST PUSH2 0x1B20 JUMPI PUSH1 0x40 MLOAD PUSH3 0x461BCD PUSH1 0xE5 SHL DUP2 MSTORE PUSH1 0x4 ADD PUSH2 0xD68 SWAP1 PUSH2 0x4D4A JUMP JUMPDEST PUSH2 0x15B4 PUSH2 0x3969 JUMP JUMPDEST ADDRESS PUSH1 0x1 PUSH1 0x1 PUSH1 0xA0 SHL SUB PUSH32 0x0 AND EQ ISZERO PUSH2 0x1B71 JUMPI PUSH1 0x40 MLOAD PUSH3 0x461BCD PUSH1 0xE5 SHL DUP2 MSTORE PUSH1 0x4 ADD PUSH2 0xD68 SWAP1 PUSH2 0x4BF2 JUMP JUMPDEST PUSH32 0x0 PUSH1 0x1 PUSH1 0x1 PUSH1 0xA0 SHL SUB AND PUSH2 0x1BA3 PUSH2 0x378B JUMP JUMPDEST PUSH1 0x1 PUSH1 0x1 PUSH1 0xA0 SHL SUB AND EQ PUSH2 0x1BC9 JUMPI PUSH1 0x40 MLOAD PUSH3 0x461BCD PUSH1 0xE5 SHL DUP2 MSTORE PUSH1 0x4 ADD PUSH2 0xD68 SWAP1 PUSH2 0x4C3E JUMP JUMPDEST PUSH2 0x1BD2 DUP3 PUSH2 0x37A7 JUMP JUMPDEST PUSH2 0x1A2C DUP3 DUP3 PUSH1 0x1 PUSH2 0x37CB JUMP JUMPDEST PUSH1 0x0 SLOAD PUSH2 0x100 SWAP1 DIV PUSH1 0xFF AND ISZERO DUP1 DUP1 ISZERO PUSH2 0x1BFE JUMPI POP PUSH1 0x0 SLOAD PUSH1 0x1 PUSH1 0xFF SWAP1 SWAP2 AND LT JUMPDEST DUP1 PUSH2 0x1C18 JUMPI POP ADDRESS EXTCODESIZE ISZERO DUP1 ISZERO PUSH2 0x1C18 JUMPI POP PUSH1 0x0 SLOAD PUSH1 0xFF AND PUSH1 0x1 EQ JUMPDEST PUSH2 0x1C34 JUMPI PUSH1 0x40 MLOAD PUSH3 0x461BCD PUSH1 0xE5 SHL DUP2 MSTORE PUSH1 0x4 ADD PUSH2 0xD68 SWAP1 PUSH2 0x4C8A JUMP JUMPDEST PUSH1 0x0 DUP1 SLOAD PUSH1 0xFF NOT AND PUSH1 0x1 OR SWAP1 SSTORE DUP1 ISZERO PUSH2 0x1C57 JUMPI PUSH1 0x0 DUP1 SLOAD PUSH2 0xFF00 NOT AND PUSH2 0x100 OR SWAP1 SSTORE JUMPDEST PUSH2 0x1C5F PUSH2 0x39BB JUMP JUMPDEST DUP1 ISZERO PUSH2 0x1AF6 JUMPI PUSH1 0x0 DUP1 SLOAD PUSH2 0xFF00 NOT AND SWAP1 SSTORE PUSH1 0x40 MLOAD PUSH1 0x1 DUP2 MSTORE PUSH32 0x7F26B83FF96E1F2B6A682F133852F6798A09C465DA95921460CEFB3847402498 SWAP1 PUSH1 0x20 ADD PUSH1 0x40 MLOAD DUP1 SWAP2 SUB SWAP1 LOG1 POP JUMP JUMPDEST PUSH1 0x0 ADDRESS PUSH1 0x1 PUSH1 0x1 PUSH1 0xA0 SHL SUB PUSH32 0x0 AND EQ PUSH2 0x1D42 JUMPI PUSH1 0x40 MLOAD PUSH3 0x461BCD PUSH1 0xE5 SHL DUP2 MSTORE PUSH1 0x20 PUSH1 0x4 DUP3 ADD MSTORE PUSH1 0x38 PUSH1 0x24 DUP3 ADD MSTORE PUSH32 0x555550535570677261646561626C653A206D757374206E6F742062652063616C PUSH1 0x44 DUP3 ADD MSTORE PUSH24 0x1B1959081D1A1C9BDD59DA0819195B1959D85D1958D85B1B PUSH1 0x42 SHL PUSH1 0x64 DUP3 ADD MSTORE PUSH1 0x84 ADD PUSH2 0xD68 JUMP JUMPDEST POP PUSH1 0x0 DUP1 MLOAD PUSH1 0x20 PUSH2 0x5030 DUP4 CODECOPY DUP2 MLOAD SWAP2 MSTORE SWAP1 JUMP JUMPDEST PUSH1 0x0 PUSH2 0x1D5F PUSH2 0x3321 JUMP JUMPDEST PUSH2 0x1D67 PUSH2 0x39EE JUMP JUMPDEST PUSH1 0x1 PUSH1 0xFF DUP4 AND GT PUSH2 0x1D8B JUMPI PUSH1 0x40 MLOAD PUSH4 0x9041656B PUSH1 0xE0 SHL DUP2 MSTORE PUSH1 0x4 ADD PUSH1 0x40 MLOAD DUP1 SWAP2 SUB SWAP1 REVERT JUMPDEST PUSH2 0x160 SLOAD PUSH2 0x164 SLOAD PUSH1 0x40 MLOAD PUSH4 0x81767155 PUSH1 0xE0 SHL DUP2 MSTORE PUSH1 0x1 PUSH1 0x1 PUSH1 0xA0 SHL SUB SWAP1 SWAP3 AND SWAP2 PUSH4 0x81767155 SWAP2 PUSH2 0x1DC2 SWAP2 PUSH1 0x4 ADD SWAP1 DUP2 MSTORE PUSH1 0x20 ADD SWAP1 JUMP JUMPDEST PUSH1 0x20 PUSH1 0x40 MLOAD DUP1 DUP4 SUB DUP2 DUP7 DUP1 EXTCODESIZE ISZERO DUP1 ISZERO PUSH2 0x1DDA JUMPI PUSH1 0x0 DUP1 REVERT JUMPDEST POP GAS STATICCALL ISZERO DUP1 ISZERO PUSH2 0x1DEE JUMPI RETURNDATASIZE PUSH1 0x0 DUP1 RETURNDATACOPY RETURNDATASIZE PUSH1 0x0 REVERT JUMPDEST POP POP POP POP PUSH1 0x40 MLOAD RETURNDATASIZE PUSH1 0x1F NOT PUSH1 0x1F DUP3 ADD AND DUP3 ADD DUP1 PUSH1 0x40 MSTORE POP DUP2 ADD SWAP1 PUSH2 0x1E12 SWAP2 SWAP1 PUSH2 0x4963 JUMP JUMPDEST ISZERO PUSH2 0x1E30 JUMPI PUSH1 0x40 MLOAD PUSH4 0x85E9B4B PUSH1 0xE4 SHL DUP2 MSTORE PUSH1 0x4 ADD PUSH1 0x40 MLOAD DUP1 SWAP2 SUB SWAP1 REVERT JUMPDEST PUSH1 0x0 PUSH1 0xFF DUP4 AND PUSH1 0x1 EQ ISZERO PUSH2 0x1EF3 JUMPI PUSH2 0x17C SLOAD PUSH1 0xFF AND PUSH2 0x1E62 JUMPI PUSH1 0x40 MLOAD PUSH4 0x39C9C17F PUSH1 0xE2 SHL DUP2 MSTORE PUSH1 0x4 ADD PUSH1 0x40 MLOAD DUP1 SWAP2 SUB SWAP1 REVERT JUMPDEST PUSH2 0x1E6D PUSH2 0xD94 PUSH2 0x3A34 JUMP JUMPDEST ISZERO PUSH2 0x1E8B JUMPI PUSH1 0x40 MLOAD PUSH4 0xC70FCF5 PUSH1 0xE1 SHL DUP2 MSTORE PUSH1 0x4 ADD PUSH1 0x40 MLOAD DUP1 SWAP2 SUB SWAP1 REVERT JUMPDEST PUSH2 0x17B SLOAD ISZERO PUSH2 0x1EAD JUMPI PUSH1 0x40 MLOAD PUSH4 0xB9E33007 PUSH1 0xE0 SHL DUP2 MSTORE PUSH1 0x4 ADD PUSH1 0x40 MLOAD DUP1 SWAP2 SUB SWAP1 REVERT JUMPDEST PUSH2 0x17E SLOAD PUSH2 0x17B SLOAD PUSH2 0x1EBE SWAP2 PUSH2 0x31B3 JUMP JUMPDEST PUSH2 0x17F SLOAD SWAP1 SWAP2 POP ISZERO PUSH2 0x1EE2 JUMPI PUSH2 0x17F SLOAD PUSH2 0x1ED9 SWAP1 DUP3 SWAP1 PUSH2 0x31B3 JUMP JUMPDEST PUSH1 0x0 PUSH2 0x17F SSTORE SWAP1 POP JUMPDEST PUSH1 0x0 PUSH2 0x17B DUP2 SWAP1 SSTORE PUSH2 0x17E SSTORE PUSH2 0x2157 JUMP JUMPDEST PUSH1 0xFF DUP4 AND PUSH2 0x2157 JUMPI PUSH2 0x183 SLOAD PUSH1 0xFF AND PUSH2 0x1F1F JUMPI PUSH1 0x40 MLOAD PUSH4 0x39C9C17F PUSH1 0xE2 SHL DUP2 MSTORE PUSH1 0x4 ADD PUSH1 0x40 MLOAD DUP1 SWAP2 SUB SWAP1 REVERT JUMPDEST CALLER PUSH1 0x0 SWAP1 DUP2 MSTORE PUSH2 0x178 PUSH1 0x20 MSTORE PUSH1 0x40 SWAP1 KECCAK256 SLOAD PUSH1 0xFF AND DUP1 ISZERO PUSH2 0x1F4E JUMPI POP CALLER PUSH1 0x0 SWAP1 DUP2 MSTORE PUSH2 0x177 PUSH1 0x20 MSTORE PUSH1 0x40 SWAP1 KECCAK256 SLOAD ISZERO ISZERO JUMPDEST ISZERO PUSH2 0x1F6C JUMPI PUSH1 0x40 MLOAD PUSH4 0xCF45A705 PUSH1 0xE0 SHL DUP2 MSTORE PUSH1 0x4 ADD PUSH1 0x40 MLOAD DUP1 SWAP2 SUB SWAP1 REVERT JUMPDEST PUSH2 0x15F SLOAD PUSH1 0x0 SWAP1 PUSH2 0x1F85 SWAP1 PUSH1 0x1 PUSH1 0x1 PUSH1 0xA0 SHL SUB AND PUSH2 0x339F JUMP JUMPDEST PUSH2 0x182 SLOAD SWAP1 SWAP2 POP PUSH2 0x1F96 SWAP1 DUP3 PUSH2 0x31B3 JUMP JUMPDEST CALLER PUSH1 0x0 SWAP1 DUP2 MSTORE PUSH2 0x177 PUSH1 0x20 MSTORE PUSH1 0x40 SWAP1 KECCAK256 SLOAD GT PUSH2 0x1FC5 JUMPI PUSH1 0x40 MLOAD PUSH4 0xB9E33007 PUSH1 0xE0 SHL DUP2 MSTORE PUSH1 0x4 ADD PUSH1 0x40 MLOAD DUP1 SWAP2 SUB SWAP1 REVERT JUMPDEST PUSH1 0x0 PUSH2 0x1FED PUSH3 0xF4240 JUMPDEST CALLER PUSH1 0x0 SWAP1 DUP2 MSTORE PUSH2 0x177 PUSH1 0x20 MSTORE PUSH1 0x40 SWAP1 KECCAK256 SLOAD PUSH2 0x185 SLOAD PUSH2 0xBBB SWAP2 PUSH2 0x31A7 JUMP JUMPDEST SWAP1 POP PUSH2 0x1FF9 DUP2 DUP4 PUSH2 0x3188 JUMP JUMPDEST PUSH2 0x185 SLOAD SWAP1 SWAP2 POP DUP2 GT PUSH2 0x201F JUMPI PUSH1 0x40 MLOAD PUSH4 0xB9E33007 PUSH1 0xE0 SHL DUP2 MSTORE PUSH1 0x4 ADD PUSH1 0x40 MLOAD DUP1 SWAP2 SUB SWAP1 REVERT JUMPDEST CALLER PUSH1 0x0 SWAP1 DUP2 MSTORE PUSH2 0x177 PUSH1 0x20 MSTORE PUSH1 0x40 DUP2 KECCAK256 SLOAD PUSH2 0x203A SWAP1 DUP5 PUSH2 0x3188 JUMP JUMPDEST PUSH2 0x182 SLOAD SWAP1 SWAP2 POP PUSH2 0x204B SWAP1 DUP3 PUSH2 0x3188 JUMP JUMPDEST PUSH2 0x182 SSTORE PUSH2 0x185 SLOAD PUSH2 0x205D SWAP1 DUP4 PUSH2 0x3188 JUMP JUMPDEST PUSH2 0x185 SSTORE CALLER PUSH1 0x0 SWAP1 DUP2 MSTORE PUSH2 0x178 PUSH1 0x20 MSTORE PUSH1 0x40 SWAP1 KECCAK256 DUP1 SLOAD PUSH1 0xFF NOT AND SWAP1 SSTORE PUSH2 0x2083 DUP2 DUP4 PUSH2 0x31B3 JUMP JUMPDEST PUSH2 0x186 SLOAD SWAP1 SWAP5 POP ISZERO PUSH2 0x20DA JUMPI PUSH1 0x0 PUSH2 0x20B7 PUSH3 0xF4240 JUMPDEST CALLER PUSH1 0x0 SWAP1 DUP2 MSTORE PUSH2 0x177 PUSH1 0x20 MSTORE PUSH1 0x40 SWAP1 KECCAK256 SLOAD PUSH2 0x186 SLOAD PUSH2 0xBBB SWAP2 PUSH2 0x31A7 JUMP JUMPDEST SWAP1 POP PUSH2 0x20C3 DUP6 DUP3 PUSH2 0x31B3 JUMP JUMPDEST PUSH2 0x186 SLOAD SWAP1 SWAP6 POP PUSH2 0x20D4 SWAP1 DUP3 PUSH2 0x3188 JUMP JUMPDEST PUSH2 0x186 SSTORE POP JUMPDEST PUSH2 0x161 SLOAD PUSH2 0x164 SLOAD PUSH1 0x40 MLOAD PUSH4 0x1BD3B3DD PUSH1 0xE3 SHL DUP2 MSTORE PUSH1 0x1 PUSH1 0x1 PUSH1 0xA0 SHL SUB SWAP1 SWAP3 AND SWAP2 PUSH4 0xDE9D9EE8 SWAP2 PUSH2 0x2110 SWAP2 CALLER SWAP2 SWAP1 PUSH1 0x4 ADD PUSH2 0x4BA6 JUMP JUMPDEST PUSH1 0x0 PUSH1 0x40 MLOAD DUP1 DUP4 SUB DUP2 PUSH1 0x0 DUP8 DUP1 EXTCODESIZE ISZERO DUP1 ISZERO PUSH2 0x212A JUMPI PUSH1 0x0 DUP1 REVERT JUMPDEST POP GAS CALL ISZERO DUP1 ISZERO PUSH2 0x213E JUMPI RETURNDATASIZE PUSH1 0x0 DUP1 RETURNDATACOPY RETURNDATASIZE PUSH1 0x0 REVERT JUMPDEST POP POP CALLER PUSH1 0x0 SWAP1 DUP2 MSTORE PUSH2 0x177 PUSH1 0x20 MSTORE PUSH1 0x40 DUP2 KECCAK256 SSTORE POP POP POP POP POP JUMPDEST PUSH2 0x16A SLOAD PUSH2 0x2165 SWAP1 DUP3 PUSH2 0x3188 JUMP JUMPDEST PUSH2 0x16A SSTORE PUSH2 0x162 SLOAD PUSH1 0x40 MLOAD PUSH4 0xA9059CBB PUSH1 0xE0 SHL DUP2 MSTORE PUSH1 0x1 PUSH1 0x1 PUSH1 0xA0 SHL SUB SWAP1 SWAP2 AND SWAP1 PUSH4 0xA9059CBB SWAP1 PUSH2 0x219C SWAP1 CALLER SWAP1 DUP6 SWAP1 PUSH1 0x4 ADD PUSH2 0x4BA6 JUMP JUMPDEST PUSH1 0x20 PUSH1 0x40 MLOAD DUP1 DUP4 SUB DUP2 PUSH1 0x0 DUP8 DUP1 EXTCODESIZE ISZERO DUP1 ISZERO PUSH2 0x21B6 JUMPI PUSH1 0x0 DUP1 REVERT JUMPDEST POP GAS CALL ISZERO DUP1 ISZERO PUSH2 0x21CA JUMPI RETURNDATASIZE PUSH1 0x0 DUP1 RETURNDATACOPY RETURNDATASIZE PUSH1 0x0 REVERT JUMPDEST POP POP POP POP PUSH1 0x40 MLOAD RETURNDATASIZE PUSH1 0x1F NOT PUSH1 0x1F DUP3 ADD AND DUP3 ADD DUP1 PUSH1 0x40 MSTORE POP DUP2 ADD SWAP1 PUSH2 0x21EE SWAP2 SWAP1 PUSH2 0x4963 JUMP JUMPDEST POP SWAP1 POP PUSH2 0xC7E PUSH1 0x1 PUSH1 0xC9 SSTORE JUMP JUMPDEST PUSH2 0x2206 PUSH2 0xD94 PUSH2 0x3A58 JUMP JUMPDEST PUSH2 0x220F JUMPI PUSH1 0x0 DUP1 REVERT JUMPDEST PUSH1 0x1 PUSH1 0xFF DUP3 AND GT PUSH2 0x2233 JUMPI PUSH1 0x40 MLOAD PUSH4 0x9041656B PUSH1 0xE0 SHL DUP2 MSTORE PUSH1 0x4 ADD PUSH1 0x40 MLOAD DUP1 SWAP2 SUB SWAP1 REVERT JUMPDEST PUSH1 0xFF DUP2 AND PUSH1 0x1 EQ ISZERO PUSH2 0x2250 JUMPI PUSH2 0x17C DUP1 SLOAD PUSH1 0xFF NOT AND PUSH1 0x1 OR SWAP1 SSTORE POP JUMP JUMPDEST PUSH1 0xFF DUP2 AND PUSH2 0x1AF6 JUMPI PUSH2 0x183 DUP1 SLOAD PUSH1 0xFF NOT AND PUSH1 0x1 OR SWAP1 SSTORE POP JUMP JUMPDEST CALLER PUSH1 0x0 SWAP1 DUP2 MSTORE PUSH2 0x178 PUSH1 0x20 MSTORE PUSH1 0x40 DUP2 KECCAK256 SLOAD PUSH1 0xFF AND DUP1 ISZERO PUSH2 0x2298 JUMPI POP CALLER PUSH1 0x0 SWAP1 DUP2 MSTORE PUSH2 0x177 PUSH1 0x20 MSTORE PUSH1 0x40 SWAP1 KECCAK256 SLOAD ISZERO ISZERO JUMPDEST ISZERO PUSH2 0x22B6 JUMPI PUSH1 0x40 MLOAD PUSH4 0xCF45A705 PUSH1 0xE0 SHL DUP2 MSTORE PUSH1 0x4 ADD PUSH1 0x40 MLOAD DUP1 SWAP2 SUB SWAP1 REVERT JUMPDEST PUSH2 0x160 SLOAD PUSH2 0x164 SLOAD PUSH1 0x40 MLOAD PUSH4 0x81767155 PUSH1 0xE0 SHL DUP2 MSTORE PUSH1 0x4 DUP2 ADD SWAP2 SWAP1 SWAP2 MSTORE PUSH1 0x0 SWAP2 PUSH1 0x1 PUSH1 0x1 PUSH1 0xA0 SHL SUB AND SWAP1 PUSH4 0x81767155 SWAP1 PUSH1 0x24 ADD PUSH1 0x20 PUSH1 0x40 MLOAD DUP1 DUP4 SUB DUP2 DUP7 DUP1 EXTCODESIZE ISZERO DUP1 ISZERO PUSH2 0x2301 JUMPI PUSH1 0x0 DUP1 REVERT JUMPDEST POP GAS STATICCALL ISZERO DUP1 ISZERO PUSH2 0x2315 JUMPI RETURNDATASIZE PUSH1 0x0 DUP1 RETURNDATACOPY RETURNDATASIZE PUSH1 0x0 REVERT JUMPDEST POP POP POP POP PUSH1 0x40 MLOAD RETURNDATASIZE PUSH1 0x1F NOT PUSH1 0x1F DUP3 ADD AND DUP3 ADD DUP1 PUSH1 0x40 MSTORE POP DUP2 ADD SWAP1 PUSH2 0x2339 SWAP2 SWAP1 PUSH2 0x4963 JUMP JUMPDEST ISZERO PUSH2 0xC7E JUMPI PUSH1 0x0 PUSH2 0x234C PUSH3 0xF4240 PUSH2 0x1FCF JUMP JUMPDEST CALLER PUSH1 0x0 SWAP1 DUP2 MSTORE PUSH2 0x177 PUSH1 0x20 MSTORE PUSH1 0x40 SWAP1 KECCAK256 SLOAD SWAP1 SWAP2 POP PUSH2 0x236A SWAP1 DUP3 PUSH2 0x31B3 JUMP JUMPDEST PUSH2 0x186 SLOAD SWAP1 SWAP3 POP ISZERO PUSH2 0x2394 JUMPI PUSH1 0x0 PUSH2 0x2384 PUSH3 0xF4240 PUSH2 0x2099 JUMP JUMPDEST SWAP1 POP PUSH2 0x2390 DUP4 DUP3 PUSH2 0x31B3 JUMP JUMPDEST SWAP3 POP POP JUMPDEST POP SWAP2 SWAP1 POP JUMP JUMPDEST PUSH2 0x17C SLOAD PUSH1 0x0 SWAP1 PUSH1 0xFF AND PUSH2 0x23C1 JUMPI PUSH1 0x40 MLOAD PUSH4 0x39C9C17F PUSH1 0xE2 SHL DUP2 MSTORE PUSH1 0x4 ADD PUSH1 0x40 MLOAD DUP1 SWAP2 SUB SWAP1 REVERT JUMPDEST PUSH2 0x17E SLOAD PUSH2 0x17B SLOAD PUSH2 0x23D2 SWAP2 PUSH2 0x31B3 JUMP JUMPDEST PUSH2 0x17F SLOAD SWAP1 SWAP2 POP PUSH2 0x23E4 SWAP1 DUP3 SWAP1 PUSH2 0x31B3 JUMP JUMPDEST SWAP1 POP SWAP1 JUMP JUMPDEST PUSH2 0x23F4 PUSH2 0xD94 PUSH2 0x3945 JUMP JUMPDEST PUSH2 0x2410 JUMPI PUSH1 0x40 MLOAD PUSH3 0x461BCD PUSH1 0xE5 SHL DUP2 MSTORE PUSH1 0x4 ADD PUSH2 0xD68 SWAP1 PUSH2 0x4D4A JUMP JUMPDEST PUSH2 0x15B4 PUSH2 0x3A7C JUMP JUMPDEST PUSH1 0x0 SWAP2 DUP3 MSTORE PUSH1 0x65 PUSH1 0x20 SWAP1 DUP2 MSTORE PUSH1 0x40 DUP1 DUP5 KECCAK256 PUSH1 0x1 PUSH1 0x1 PUSH1 0xA0 SHL SUB SWAP4 SWAP1 SWAP4 AND DUP5 MSTORE SWAP2 SWAP1 MSTORE SWAP1 KECCAK256 SLOAD PUSH1 0xFF AND SWAP1 JUMP JUMPDEST PUSH1 0x0 SLOAD PUSH2 0x100 SWAP1 DIV PUSH1 0xFF AND PUSH2 0x246A JUMPI PUSH1 0x40 MLOAD PUSH3 0x461BCD PUSH1 0xE5 SHL DUP2 MSTORE PUSH1 0x4 ADD PUSH2 0xD68 SWAP1 PUSH2 0x4CFF JUMP JUMPDEST PUSH1 0x1 PUSH1 0x1 PUSH1 0xA0 SHL SUB DUP2 AND PUSH2 0x24C0 JUMPI PUSH1 0x40 MLOAD PUSH3 0x461BCD PUSH1 0xE5 SHL DUP2 MSTORE PUSH1 0x20 PUSH1 0x4 DUP3 ADD DUP2 SWAP1 MSTORE PUSH1 0x24 DUP3 ADD MSTORE PUSH32 0x4F776E65722063616E6E6F7420626520746865207A65726F2061646472657373 PUSH1 0x44 DUP3 ADD MSTORE PUSH1 0x64 ADD PUSH2 0xD68 JUMP JUMPDEST PUSH2 0x24C8 PUSH2 0x3AB9 JUMP JUMPDEST PUSH2 0x24D0 PUSH2 0x39BB JUMP JUMPDEST PUSH2 0x24D8 PUSH2 0x3AE0 JUMP JUMPDEST PUSH2 0x24E9 PUSH2 0x24E3 PUSH2 0x3B07 JUMP JUMPDEST DUP3 PUSH2 0x369E JUMP JUMPDEST PUSH2 0x24F4 PUSH2 0x24E3 PUSH2 0x3945 JUMP JUMPDEST PUSH2 0x250C PUSH2 0x24FF PUSH2 0x3945 JUMP JUMPDEST PUSH2 0x2507 PUSH2 0x3B07 JUMP JUMPDEST PUSH2 0x3B2B JUMP JUMPDEST PUSH2 0x1AF6 PUSH2 0x24FF PUSH2 0x3B07 JUMP JUMPDEST PUSH1 0x0 PUSH2 0x23E4 PUSH2 0xD94 PUSH2 0x3B07 JUMP JUMPDEST PUSH1 0x0 SLOAD PUSH2 0x100 SWAP1 DIV PUSH1 0xFF AND ISZERO DUP1 DUP1 ISZERO PUSH2 0x2544 JUMPI POP PUSH1 0x0 SLOAD PUSH1 0x1 PUSH1 0xFF SWAP1 SWAP2 AND LT JUMPDEST DUP1 PUSH2 0x255E JUMPI POP ADDRESS EXTCODESIZE ISZERO DUP1 ISZERO PUSH2 0x255E JUMPI POP PUSH1 0x0 SLOAD PUSH1 0xFF AND PUSH1 0x1 EQ JUMPDEST PUSH2 0x257A JUMPI PUSH1 0x40 MLOAD PUSH3 0x461BCD PUSH1 0xE5 SHL DUP2 MSTORE PUSH1 0x4 ADD PUSH2 0xD68 SWAP1 PUSH2 0x4C8A JUMP JUMPDEST PUSH1 0x0 DUP1 SLOAD PUSH1 0xFF NOT AND PUSH1 0x1 OR SWAP1 SSTORE DUP1 ISZERO PUSH2 0x259D JUMPI PUSH1 0x0 DUP1 SLOAD PUSH2 0xFF00 NOT AND PUSH2 0x100 OR SWAP1 SSTORE JUMPDEST PUSH1 0x1 PUSH1 0x1 PUSH1 0xA0 SHL SUB DUP9 AND PUSH2 0x25C4 JUMPI PUSH1 0x40 MLOAD PUSH4 0x1728D89F PUSH1 0xE0 SHL DUP2 MSTORE PUSH1 0x4 ADD PUSH1 0x40 MLOAD DUP1 SWAP2 SUB SWAP1 REVERT JUMPDEST PUSH2 0x15F DUP1 SLOAD PUSH1 0x1 PUSH1 0x1 PUSH1 0xA0 SHL SUB NOT AND PUSH1 0x1 PUSH1 0x1 PUSH1 0xA0 SHL SUB DUP11 AND SWAP1 DUP2 OR SWAP1 SWAP2 SSTORE PUSH1 0x0 SWAP1 PUSH2 0x25EF SWAP1 PUSH2 0x3B76 JUMP JUMPDEST SWAP1 POP PUSH1 0x1 PUSH1 0x1 PUSH1 0xA0 SHL SUB DUP2 AND PUSH2 0x2618 JUMPI PUSH1 0x40 MLOAD PUSH4 0x1728D89F PUSH1 0xE0 SHL DUP2 MSTORE PUSH1 0x4 ADD PUSH1 0x40 MLOAD DUP1 SWAP2 SUB SWAP1 REVERT JUMPDEST PUSH2 0x15F SLOAD PUSH2 0x262E SWAP1 PUSH1 0x1 PUSH1 0x1 PUSH1 0xA0 SHL SUB AND PUSH2 0x367C JUMP JUMPDEST PUSH2 0x160 DUP1 SLOAD PUSH1 0x1 PUSH1 0x1 PUSH1 0xA0 SHL SUB NOT AND PUSH1 0x1 PUSH1 0x1 PUSH1 0xA0 SHL SUB SWAP3 DUP4 AND OR SWAP1 SSTORE PUSH2 0x15F SLOAD PUSH2 0x2659 SWAP2 AND PUSH2 0x3B8D JUMP JUMPDEST PUSH2 0x161 DUP1 SLOAD PUSH1 0x1 PUSH1 0x1 PUSH1 0xA0 SHL SUB NOT AND PUSH1 0x1 PUSH1 0x1 PUSH1 0xA0 SHL SUB SWAP3 SWAP1 SWAP3 AND SWAP2 SWAP1 SWAP2 OR SWAP1 SSTORE PUSH2 0x2683 DUP2 PUSH2 0x2443 JUMP JUMPDEST PUSH2 0x15F SLOAD PUSH2 0x2699 SWAP1 PUSH1 0x1 PUSH1 0x1 PUSH1 0xA0 SHL SUB AND PUSH2 0x3BA5 JUMP JUMPDEST PUSH2 0x162 DUP1 SLOAD PUSH1 0x1 PUSH1 0x1 PUSH1 0xA0 SHL SUB NOT AND PUSH1 0x1 PUSH1 0x1 PUSH1 0xA0 SHL SUB SWAP3 DUP4 AND OR SWAP1 SSTORE PUSH2 0x15F SLOAD PUSH2 0x26C4 SWAP2 AND PUSH2 0x3BBD JUMP JUMPDEST PUSH2 0x163 DUP1 SLOAD PUSH1 0x1 PUSH1 0x1 PUSH1 0xA0 SHL SUB NOT AND PUSH1 0x1 PUSH1 0x1 PUSH1 0xA0 SHL SUB SWAP3 SWAP1 SWAP3 AND SWAP2 SWAP1 SWAP2 OR SWAP1 SSTORE PUSH2 0x26F0 PUSH2 0x24FF PUSH2 0x3A34 JUMP JUMPDEST PUSH2 0x2716 PUSH2 0x26FB PUSH2 0x3A34 JUMP JUMPDEST PUSH2 0x15F SLOAD PUSH2 0x2711 SWAP1 PUSH1 0x1 PUSH1 0x1 PUSH1 0xA0 SHL SUB AND PUSH2 0x363E JUMP JUMPDEST PUSH2 0x369E JUMP JUMPDEST PUSH2 0x2721 PUSH2 0x24FF PUSH2 0x337B JUMP JUMPDEST PUSH2 0x272C PUSH2 0x24FF PUSH2 0x3A58 JUMP JUMPDEST PUSH2 0x2737 PUSH2 0x24E3 PUSH2 0x3A58 JUMP JUMPDEST PUSH2 0x160 SLOAD PUSH1 0x40 MLOAD PUSH4 0x39461F51 PUSH1 0xE1 SHL DUP2 MSTORE PUSH1 0x4 DUP2 ADD DUP11 SWAP1 MSTORE PUSH1 0x0 SWAP2 PUSH1 0x1 PUSH1 0x1 PUSH1 0xA0 SHL SUB AND SWAP1 PUSH4 0x728C3EA2 SWAP1 PUSH1 0x24 ADD PUSH1 0x20 PUSH1 0x40 MLOAD DUP1 DUP4 SUB DUP2 DUP7 DUP1 EXTCODESIZE ISZERO DUP1 ISZERO PUSH2 0x277D JUMPI PUSH1 0x0 DUP1 REVERT JUMPDEST POP GAS STATICCALL ISZERO DUP1 ISZERO PUSH2 0x2791 JUMPI RETURNDATASIZE PUSH1 0x0 DUP1 RETURNDATACOPY RETURNDATASIZE PUSH1 0x0 REVERT JUMPDEST POP POP POP POP PUSH1 0x40 MLOAD RETURNDATASIZE PUSH1 0x1F NOT PUSH1 0x1F DUP3 ADD AND DUP3 ADD DUP1 PUSH1 0x40 MSTORE POP DUP2 ADD SWAP1 PUSH2 0x27B5 SWAP2 SWAP1 PUSH2 0x48BA JUMP JUMPDEST SWAP1 POP PUSH2 0x27C2 PUSH2 0x24E3 PUSH2 0x337B JUMP JUMPDEST PUSH2 0x164 DUP10 SWAP1 SSTORE PUSH2 0x166 DUP9 SWAP1 SSTORE PUSH2 0x171 DUP9 SWAP1 SSTORE PUSH2 0x167 DUP8 SWAP1 SSTORE PUSH2 0x168 DUP7 SWAP1 SSTORE PUSH2 0x169 DUP6 SWAP1 SSTORE PUSH1 0x1 PUSH2 0x16C SSTORE PUSH2 0x165 DUP1 SLOAD PUSH1 0xFF NOT AND PUSH1 0xFF DUP7 AND OR SWAP1 SSTORE PUSH2 0x15F SLOAD PUSH1 0x40 MLOAD PUSH4 0x3928F5E1 PUSH1 0xE2 SHL DUP2 MSTORE PUSH1 0x4 DUP2 ADD DUP12 SWAP1 MSTORE PUSH1 0x1 PUSH1 0x1 PUSH1 0xA0 SHL SUB SWAP1 SWAP2 AND SWAP1 PUSH4 0xE4A3D784 SWAP1 PUSH1 0x24 ADD PUSH1 0x20 PUSH1 0x40 MLOAD DUP1 DUP4 SUB DUP2 DUP7 DUP1 EXTCODESIZE ISZERO DUP1 ISZERO PUSH2 0x2841 JUMPI PUSH1 0x0 DUP1 REVERT JUMPDEST POP GAS STATICCALL ISZERO DUP1 ISZERO PUSH2 0x2855 JUMPI RETURNDATASIZE PUSH1 0x0 DUP1 RETURNDATACOPY RETURNDATASIZE PUSH1 0x0 REVERT JUMPDEST POP POP POP POP PUSH1 0x40 MLOAD RETURNDATASIZE PUSH1 0x1F NOT PUSH1 0x1F DUP3 ADD AND DUP3 ADD DUP1 PUSH1 0x40 MSTORE POP DUP2 ADD SWAP1 PUSH2 0x2879 SWAP2 SWAP1 PUSH2 0x4963 JUMP JUMPDEST PUSH2 0x28EA JUMPI PUSH2 0x17C DUP1 SLOAD PUSH1 0xFF NOT AND PUSH1 0x1 OR SWAP1 SSTORE PUSH2 0x15F SLOAD PUSH1 0x0 SWAP1 PUSH2 0x28A8 SWAP1 PUSH2 0x16C5 SWAP1 PUSH1 0x1 PUSH1 0x1 PUSH1 0xA0 SHL SUB AND PUSH2 0x32A0 JUMP JUMPDEST PUSH2 0x15F SLOAD SWAP1 SWAP2 POP PUSH2 0x28CC SWAP1 PUSH2 0x28C5 SWAP1 PUSH1 0x1 PUSH1 0x1 PUSH1 0xA0 SHL SUB AND PUSH2 0x32A0 JUMP JUMPDEST DUP3 SWAP1 PUSH2 0x31A7 JUMP JUMPDEST PUSH2 0x17A DUP2 SWAP1 SSTORE PUSH2 0x166 SLOAD PUSH2 0x28E0 SWAP2 SWAP1 PUSH2 0x4F6A JUMP JUMPDEST PUSH2 0x181 SSTORE POP PUSH2 0x2901 JUMP JUMPDEST PUSH2 0x183 DUP1 SLOAD PUSH1 0xFF NOT AND PUSH1 0x1 OR SWAP1 SSTORE PUSH2 0x166 SLOAD PUSH2 0x17A SSTORE JUMPDEST PUSH2 0x169 SLOAD PUSH2 0x167 SLOAD PUSH2 0x2912 SWAP2 PUSH2 0x319B JUMP JUMPDEST PUSH2 0x16D SSTORE PUSH2 0x165 SLOAD PUSH1 0xFF AND PUSH1 0x1 EQ ISZERO PUSH2 0x2946 JUMPI PUSH2 0x293D PUSH2 0x166 SLOAD PUSH2 0x168 SLOAD PUSH2 0x16D SLOAD PUSH2 0x169 SLOAD PUSH2 0x3BD5 JUMP JUMPDEST PUSH2 0x16E SSTORE PUSH2 0x295F JUMP JUMPDEST PUSH2 0x295A PUSH2 0x166 SLOAD PUSH2 0x168 SLOAD PUSH2 0x169 SLOAD PUSH2 0x3CE3 JUMP JUMPDEST PUSH2 0x16E SSTORE JUMPDEST PUSH2 0x297B PUSH2 0x16D PUSH2 0x15F SLOAD PUSH2 0xBBB SWAP1 PUSH1 0x1 PUSH1 0x1 PUSH1 0xA0 SHL SUB AND PUSH2 0x3D78 JUMP JUMPDEST PUSH2 0x16F SSTORE PUSH2 0x15F SLOAD PUSH2 0x29EB SWAP1 PUSH2 0x2999 SWAP1 PUSH1 0x1 PUSH1 0x1 PUSH1 0xA0 SHL SUB AND PUSH2 0x33B7 JUMP JUMPDEST PUSH2 0x15F SLOAD PUSH2 0x29AF SWAP1 PUSH1 0x1 PUSH1 0x1 PUSH1 0xA0 SHL SUB AND PUSH2 0x33CF JUMP JUMPDEST PUSH2 0x165 SLOAD PUSH2 0x16E SLOAD PUSH2 0x166 SLOAD PUSH2 0x16D SLOAD PUSH2 0x168 SLOAD PUSH2 0x15F SLOAD PUSH1 0xFF SWAP1 SWAP6 AND PUSH1 0x1 EQ SWAP5 PUSH2 0x29E2 SWAP1 PUSH1 0x1 PUSH1 0x1 PUSH1 0xA0 SHL SUB AND PUSH2 0x32A0 JUMP JUMPDEST PUSH2 0x167 SLOAD PUSH2 0x3D90 JUMP JUMPDEST PUSH2 0x173 SSTORE PUSH2 0x172 SSTORE PUSH2 0x29FB PUSH2 0xC83 JUMP JUMPDEST PUSH2 0x175 SSTORE PUSH2 0x174 SSTORE PUSH2 0x162 SLOAD PUSH1 0x40 MLOAD PUSH4 0x95EA7B3 PUSH1 0xE0 SHL DUP2 MSTORE PUSH1 0x0 SWAP2 PUSH1 0x1 PUSH1 0x1 PUSH1 0xA0 SHL SUB AND SWAP1 PUSH4 0x95EA7B3 SWAP1 PUSH2 0x2A39 SWAP1 ADDRESS SWAP1 PUSH1 0x0 NOT SWAP1 PUSH1 0x4 ADD PUSH2 0x4BA6 JUMP JUMPDEST PUSH1 0x20 PUSH1 0x40 MLOAD DUP1 DUP4 SUB DUP2 PUSH1 0x0 DUP8 DUP1 EXTCODESIZE ISZERO DUP1 ISZERO PUSH2 0x2A53 JUMPI PUSH1 0x0 DUP1 REVERT JUMPDEST POP GAS CALL ISZERO DUP1 ISZERO PUSH2 0x2A67 JUMPI RETURNDATASIZE PUSH1 0x0 DUP1 RETURNDATACOPY RETURNDATASIZE PUSH1 0x0 REVERT JUMPDEST POP POP POP POP PUSH1 0x40 MLOAD RETURNDATASIZE PUSH1 0x1F NOT PUSH1 0x1F DUP3 ADD AND DUP3 ADD DUP1 PUSH1 0x40 MSTORE POP DUP2 ADD SWAP1 PUSH2 0x2A8B SWAP2 SWAP1 PUSH2 0x4963 JUMP JUMPDEST SWAP1 POP DUP1 PUSH2 0x2ACB JUMPI PUSH1 0x40 MLOAD PUSH3 0x461BCD PUSH1 0xE5 SHL DUP2 MSTORE PUSH1 0x20 PUSH1 0x4 DUP3 ADD MSTORE PUSH1 0xE PUSH1 0x24 DUP3 ADD MSTORE PUSH14 0x185C1C1C9BDD994819985A5B1959 PUSH1 0x92 SHL PUSH1 0x44 DUP3 ADD MSTORE PUSH1 0x64 ADD PUSH2 0xD68 JUMP JUMPDEST POP POP POP DUP1 ISZERO PUSH2 0x2B14 JUMPI PUSH1 0x0 DUP1 SLOAD PUSH2 0xFF00 NOT AND SWAP1 SSTORE PUSH1 0x40 MLOAD PUSH1 0x1 DUP2 MSTORE PUSH32 0x7F26B83FF96E1F2B6A682F133852F6798A09C465DA95921460CEFB3847402498 SWAP1 PUSH1 0x20 ADD PUSH1 0x40 MLOAD DUP1 SWAP2 SUB SWAP1 LOG1 JUMPDEST POP POP POP POP POP POP POP POP JUMP JUMPDEST PUSH2 0x2B29 PUSH2 0xD94 PUSH2 0x3A58 JUMP JUMPDEST PUSH2 0x2B32 JUMPI PUSH1 0x0 DUP1 REVERT JUMPDEST PUSH1 0x1 PUSH1 0xFF DUP3 AND GT PUSH2 0x2B56 JUMPI PUSH1 0x40 MLOAD PUSH4 0x9041656B PUSH1 0xE0 SHL DUP2 MSTORE PUSH1 0x4 ADD PUSH1 0x40 MLOAD DUP1 SWAP2 SUB SWAP1 REVERT JUMPDEST PUSH1 0xFF DUP2 AND PUSH1 0x1 EQ ISZERO PUSH2 0x2B70 JUMPI PUSH2 0x17C DUP1 SLOAD PUSH1 0xFF NOT AND SWAP1 SSTORE POP JUMP JUMPDEST PUSH1 0xFF DUP2 AND PUSH2 0x1AF6 JUMPI PUSH2 0x183 DUP1 SLOAD PUSH1 0xFF NOT AND SWAP1 SSTORE POP JUMP JUMPDEST PUSH1 0x0 DUP3 DUP2 MSTORE PUSH1 0x65 PUSH1 0x20 MSTORE PUSH1 0x40 SWAP1 KECCAK256 PUSH1 0x1 ADD SLOAD PUSH2 0x2BA1 DUP2 PUSH2 0x3694 JUMP JUMPDEST PUSH2 0x197C DUP4 DUP4 PUSH2 0x3724 JUMP JUMPDEST PUSH2 0x17F SLOAD PUSH2 0x17E SLOAD PUSH1 0x0 SWAP2 PUSH2 0x23E4 SWAP2 PUSH2 0x4E34 JUMP JUMPDEST PUSH2 0x160 SLOAD PUSH2 0x164 SLOAD PUSH1 0x40 MLOAD PUSH4 0x78023A53 PUSH1 0xE1 SHL DUP2 MSTORE PUSH1 0x4 DUP2 ADD SWAP2 SWAP1 SWAP2 MSTORE PUSH1 0x60 SWAP2 PUSH1 0x1 PUSH1 0x1 PUSH1 0xA0 SHL SUB AND SWAP1 PUSH4 0xF00474A6 SWAP1 PUSH1 0x24 ADD PUSH1 0x0 PUSH1 0x40 MLOAD DUP1 DUP4 SUB DUP2 DUP7 DUP1 EXTCODESIZE ISZERO DUP1 ISZERO PUSH2 0x2C0A JUMPI PUSH1 0x0 DUP1 REVERT JUMPDEST POP GAS STATICCALL ISZERO DUP1 ISZERO PUSH2 0x2C1E JUMPI RETURNDATASIZE PUSH1 0x0 DUP1 RETURNDATACOPY RETURNDATASIZE PUSH1 0x0 REVERT JUMPDEST POP POP POP POP PUSH1 0x40 MLOAD RETURNDATASIZE PUSH1 0x0 DUP3 RETURNDATACOPY PUSH1 0x1F RETURNDATASIZE SWAP1 DUP2 ADD PUSH1 0x1F NOT AND DUP3 ADD PUSH1 0x40 MSTORE PUSH2 0x23E4 SWAP2 SWAP1 DUP2 ADD SWAP1 PUSH2 0x4A6E JUMP JUMPDEST PUSH1 0x0 PUSH2 0x16D SLOAD PUSH2 0x16C SLOAD GT PUSH2 0x2C6E JUMPI PUSH1 0x40 MLOAD PUSH4 0x85E9B4B PUSH1 0xE4 SHL DUP2 MSTORE PUSH1 0x4 ADD PUSH1 0x40 MLOAD DUP1 SWAP2 SUB SWAP1 REVERT JUMPDEST PUSH1 0x0 PUSH2 0xAA7 PUSH2 0x2C93 PUSH3 0x15180 PUSH2 0xBF3 PUSH2 0x169 SLOAD PUSH2 0x16C SLOAD PUSH2 0x31A7 SWAP1 SWAP2 SWAP1 PUSH4 0xFFFFFFFF AND JUMP JUMPDEST PUSH2 0x16B SLOAD SWAP1 PUSH2 0x31B3 JUMP JUMPDEST PUSH2 0x2CA5 PUSH2 0x3321 JUMP JUMPDEST PUSH2 0x2CAD PUSH2 0x39EE JUMP JUMPDEST PUSH2 0x2CB8 PUSH2 0xD94 PUSH2 0x337B JUMP JUMPDEST PUSH2 0x2CC1 JUMPI PUSH1 0x0 DUP1 REVERT JUMPDEST PUSH2 0x160 SLOAD PUSH2 0x164 SLOAD PUSH1 0x40 MLOAD PUSH4 0x231155F PUSH1 0xE5 SHL DUP2 MSTORE PUSH1 0x1 PUSH1 0x1 PUSH1 0xA0 SHL SUB SWAP1 SWAP3 AND SWAP2 PUSH4 0x4622ABE0 SWAP2 PUSH2 0x2CF8 SWAP2 PUSH1 0x4 ADD SWAP1 DUP2 MSTORE PUSH1 0x20 ADD SWAP1 JUMP JUMPDEST PUSH1 0x20 PUSH1 0x40 MLOAD DUP1 DUP4 SUB DUP2 DUP7 DUP1 EXTCODESIZE ISZERO DUP1 ISZERO PUSH2 0x2D10 JUMPI PUSH1 0x0 DUP1 REVERT JUMPDEST POP GAS STATICCALL ISZERO DUP1 ISZERO PUSH2 0x2D24 JUMPI RETURNDATASIZE PUSH1 0x0 DUP1 RETURNDATACOPY RETURNDATASIZE PUSH1 0x0 REVERT JUMPDEST POP POP POP POP PUSH1 0x40 MLOAD RETURNDATASIZE PUSH1 0x1F NOT PUSH1 0x1F DUP3 ADD AND DUP3 ADD DUP1 PUSH1 0x40 MSTORE POP DUP2 ADD SWAP1 PUSH2 0x2D48 SWAP2 SWAP1 PUSH2 0x4963 JUMP JUMPDEST PUSH2 0x2D65 JUMPI PUSH1 0x40 MLOAD PUSH4 0x1BC818BD PUSH1 0xE2 SHL DUP2 MSTORE PUSH1 0x4 ADD PUSH1 0x40 MLOAD DUP1 SWAP2 SUB SWAP1 REVERT JUMPDEST PUSH2 0x176 SLOAD PUSH1 0xFF AND PUSH2 0x2D89 JUMPI PUSH1 0x40 MLOAD PUSH4 0x1BC818BD PUSH1 0xE2 SHL DUP2 MSTORE PUSH1 0x4 ADD PUSH1 0x40 MLOAD DUP1 SWAP2 SUB SWAP1 REVERT JUMPDEST PUSH2 0x166 SLOAD PUSH2 0x16A SLOAD EQ ISZERO PUSH2 0x2DB0 JUMPI PUSH1 0x40 MLOAD PUSH4 0x1BC818BD PUSH1 0xE2 SHL DUP2 MSTORE PUSH1 0x4 ADD PUSH1 0x40 MLOAD DUP1 SWAP2 SUB SWAP1 REVERT JUMPDEST PUSH2 0x16A DUP1 SLOAD PUSH1 0x0 SWAP2 DUP3 SWAP1 SSTORE PUSH2 0x17B DUP3 SWAP1 SSTORE PUSH2 0x182 SWAP2 SWAP1 SWAP2 SSTORE TIMESTAMP PUSH2 0x16B SSTORE PUSH2 0x160 SLOAD PUSH2 0x164 SLOAD PUSH1 0x40 MLOAD PUSH4 0x2BDFAA51 PUSH1 0xE2 SHL DUP2 MSTORE PUSH1 0x1 PUSH1 0x1 PUSH1 0xA0 SHL SUB SWAP1 SWAP3 AND SWAP2 PUSH4 0xAF7EA944 SWAP2 PUSH2 0x2E04 SWAP2 PUSH1 0x4 ADD SWAP1 DUP2 MSTORE PUSH1 0x20 ADD SWAP1 JUMP JUMPDEST PUSH1 0x0 PUSH1 0x40 MLOAD DUP1 DUP4 SUB DUP2 PUSH1 0x0 DUP8 DUP1 EXTCODESIZE ISZERO DUP1 ISZERO PUSH2 0x2E1E JUMPI PUSH1 0x0 DUP1 REVERT JUMPDEST POP GAS CALL ISZERO DUP1 ISZERO PUSH2 0x2E32 JUMPI RETURNDATASIZE PUSH1 0x0 DUP1 RETURNDATACOPY RETURNDATASIZE PUSH1 0x0 REVERT JUMPDEST POP POP PUSH2 0x162 SLOAD PUSH2 0x2E50 SWAP3 POP PUSH1 0x1 PUSH1 0x1 PUSH1 0xA0 SHL SUB AND SWAP1 POP ADDRESS CALLER DUP5 PUSH2 0x354B JUMP JUMPDEST POP PUSH2 0x15B4 PUSH1 0x1 PUSH1 0xC9 SSTORE JUMP JUMPDEST PUSH2 0x2E63 PUSH2 0x3321 JUMP JUMPDEST PUSH1 0x1 PUSH1 0xFF DUP4 AND GT ISZERO PUSH2 0x2E88 JUMPI PUSH1 0x40 MLOAD PUSH4 0x9041656B PUSH1 0xE0 SHL DUP2 MSTORE PUSH1 0x4 ADD PUSH1 0x40 MLOAD DUP1 SWAP2 SUB SWAP1 REVERT JUMPDEST PUSH1 0x0 DUP2 GT PUSH2 0x2EA9 JUMPI PUSH1 0x40 MLOAD PUSH4 0xB9E33007 PUSH1 0xE0 SHL DUP2 MSTORE PUSH1 0x4 ADD PUSH1 0x40 MLOAD DUP1 SWAP2 SUB SWAP1 REVERT JUMPDEST PUSH1 0xFF DUP3 AND PUSH1 0x1 EQ ISZERO PUSH2 0x2F53 JUMPI PUSH2 0x17C SLOAD PUSH1 0xFF AND ISZERO PUSH2 0x2EDA JUMPI PUSH1 0x40 MLOAD PUSH4 0x39C9C17F PUSH1 0xE2 SHL DUP2 MSTORE PUSH1 0x4 ADD PUSH1 0x40 MLOAD DUP1 SWAP2 SUB SWAP1 REVERT JUMPDEST PUSH2 0x2EE5 PUSH2 0xD94 PUSH2 0x3A34 JUMP JUMPDEST ISZERO PUSH2 0x2F03 JUMPI PUSH1 0x40 MLOAD PUSH4 0xC70FCF5 PUSH1 0xE1 SHL DUP2 MSTORE PUSH1 0x4 ADD PUSH1 0x40 MLOAD DUP1 SWAP2 SUB SWAP1 REVERT JUMPDEST PUSH2 0x17B SLOAD PUSH1 0x0 SWAP1 PUSH2 0x2F15 SWAP1 DUP4 SWAP1 PUSH2 0x31B3 JUMP JUMPDEST PUSH2 0x17A SLOAD SWAP1 SWAP2 POP DUP2 GT PUSH2 0x2F3B JUMPI PUSH1 0x40 MLOAD PUSH4 0xB9E33007 PUSH1 0xE0 SHL DUP2 MSTORE PUSH1 0x4 ADD PUSH1 0x40 MLOAD DUP1 SWAP2 SUB SWAP1 REVERT JUMPDEST PUSH2 0x17B SLOAD PUSH2 0x2F49 SWAP1 DUP4 PUSH2 0x31B3 JUMP JUMPDEST PUSH2 0x17B SSTORE POP PUSH2 0x3119 JUMP JUMPDEST PUSH1 0xFF DUP3 AND PUSH2 0x3119 JUMPI PUSH2 0x183 SLOAD PUSH1 0xFF AND PUSH2 0x2F7F JUMPI PUSH1 0x40 MLOAD PUSH4 0x39C9C17F PUSH1 0xE2 SHL DUP2 MSTORE PUSH1 0x4 ADD PUSH1 0x40 MLOAD DUP1 SWAP2 SUB SWAP1 REVERT JUMPDEST PUSH2 0x182 SLOAD PUSH1 0x0 SWAP1 PUSH2 0x2F91 SWAP1 DUP4 SWAP1 PUSH2 0x31B3 JUMP JUMPDEST PUSH2 0x181 SLOAD SWAP1 SWAP2 POP DUP2 GT PUSH2 0x2FB7 JUMPI PUSH1 0x40 MLOAD PUSH4 0xB9E33007 PUSH1 0xE0 SHL DUP2 MSTORE PUSH1 0x4 ADD PUSH1 0x40 MLOAD DUP1 SWAP2 SUB SWAP1 REVERT JUMPDEST PUSH2 0x182 SLOAD PUSH2 0x2FC5 SWAP1 DUP4 PUSH2 0x31B3 JUMP JUMPDEST PUSH2 0x182 SSTORE CALLER PUSH1 0x0 SWAP1 DUP2 MSTORE PUSH2 0x177 PUSH1 0x20 MSTORE PUSH1 0x40 SWAP1 KECCAK256 SLOAD PUSH2 0x2FE4 SWAP1 DUP4 PUSH2 0x31B3 JUMP JUMPDEST CALLER PUSH1 0x0 DUP2 DUP2 MSTORE PUSH2 0x177 PUSH1 0x20 SWAP1 DUP2 MSTORE PUSH1 0x40 DUP1 DUP4 KECCAK256 SWAP5 SWAP1 SWAP5 SSTORE PUSH2 0x178 SWAP1 MSTORE DUP3 SWAP1 KECCAK256 DUP1 SLOAD PUSH1 0xFF NOT AND PUSH1 0x1 OR SWAP1 SSTORE PUSH2 0x161 SLOAD PUSH2 0x164 SLOAD SWAP3 MLOAD PUSH4 0x349B51F5 PUSH1 0xE1 SHL DUP2 MSTORE PUSH1 0x1 PUSH1 0x1 PUSH1 0xA0 SHL SUB SWAP2 SWAP1 SWAP2 AND SWAP3 PUSH4 0x6936A3EA SWAP3 PUSH2 0x3044 SWAP3 SWAP1 SWAP2 SWAP1 PUSH1 0x4 ADD PUSH2 0x4BA6 JUMP JUMPDEST PUSH1 0x20 PUSH1 0x40 MLOAD DUP1 DUP4 SUB DUP2 DUP7 DUP1 EXTCODESIZE ISZERO DUP1 ISZERO PUSH2 0x305C JUMPI PUSH1 0x0 DUP1 REVERT JUMPDEST POP GAS STATICCALL ISZERO DUP1 ISZERO PUSH2 0x3070 JUMPI RETURNDATASIZE PUSH1 0x0 DUP1 RETURNDATACOPY RETURNDATASIZE PUSH1 0x0 REVERT JUMPDEST POP POP POP POP PUSH1 0x40 MLOAD RETURNDATASIZE PUSH1 0x1F NOT PUSH1 0x1F DUP3 ADD AND DUP3 ADD DUP1 PUSH1 0x40 MSTORE POP DUP2 ADD SWAP1 PUSH2 0x3094 SWAP2 SWAP1 PUSH2 0x4963 JUMP JUMPDEST PUSH2 0x3101 JUMPI PUSH2 0x161 SLOAD PUSH2 0x164 SLOAD PUSH1 0x40 MLOAD PUSH4 0x53450991 PUSH1 0xE1 SHL DUP2 MSTORE PUSH1 0x1 PUSH1 0x1 PUSH1 0xA0 SHL SUB SWAP1 SWAP3 AND SWAP2 PUSH4 0xA68A1322 SWAP2 PUSH2 0x30CE SWAP2 CALLER SWAP2 SWAP1 PUSH1 0x4 ADD PUSH2 0x4BA6 JUMP JUMPDEST PUSH1 0x0 PUSH1 0x40 MLOAD DUP1 DUP4 SUB DUP2 PUSH1 0x0 DUP8 DUP1 EXTCODESIZE ISZERO DUP1 ISZERO PUSH2 0x30E8 JUMPI PUSH1 0x0 DUP1 REVERT JUMPDEST POP GAS CALL ISZERO DUP1 ISZERO PUSH2 0x30FC JUMPI RETURNDATASIZE PUSH1 0x0 DUP1 RETURNDATACOPY RETURNDATASIZE PUSH1 0x0 REVERT JUMPDEST POP POP POP POP JUMPDEST PUSH2 0x181 SLOAD DUP2 LT PUSH2 0x3117 JUMPI PUSH2 0x17C DUP1 SLOAD PUSH1 0xFF NOT AND SWAP1 SSTORE JUMPDEST POP JUMPDEST PUSH2 0x16A SLOAD PUSH2 0x3127 SWAP1 DUP3 PUSH2 0x31B3 JUMP JUMPDEST PUSH2 0x16A SSTORE PUSH2 0x162 SLOAD PUSH2 0x3144 SWAP1 PUSH1 0x1 PUSH1 0x1 PUSH1 0xA0 SHL SUB AND CALLER ADDRESS DUP5 PUSH2 0x354B JUMP JUMPDEST PUSH1 0x40 MLOAD DUP2 DUP2 MSTORE PUSH1 0xFF DUP4 AND SWAP1 CALLER SWAP1 PUSH32 0x1D0787AEE899A49EF81D0B11DA9ACA5455B46AEFED042A41BD398D74619CAB00 SWAP1 PUSH1 0x20 ADD PUSH1 0x40 MLOAD DUP1 SWAP2 SUB SWAP1 LOG3 PUSH2 0x1A2C PUSH1 0x1 PUSH1 0xC9 SSTORE JUMP JUMPDEST PUSH1 0x0 PUSH2 0x3194 DUP3 DUP5 PUSH2 0x4F6A JUMP JUMPDEST SWAP4 SWAP3 POP POP POP JUMP JUMPDEST PUSH1 0x0 PUSH2 0x3194 DUP3 DUP5 PUSH2 0x4E4C JUMP JUMPDEST PUSH1 0x0 PUSH2 0x3194 DUP3 DUP5 PUSH2 0x4F4B JUMP JUMPDEST PUSH1 0x0 PUSH2 0x3194 DUP3 DUP5 PUSH2 0x4E34 JUMP JUMPDEST PUSH1 0x0 DUP1 DUP5 GT DUP1 ISZERO PUSH2 0x31D0 JUMPI POP PUSH1 0x0 DUP4 GT JUMPDEST DUP1 ISZERO PUSH2 0x31DC JUMPI POP PUSH1 0x0 DUP3 GT JUMPDEST PUSH2 0x31F8 JUMPI PUSH1 0x40 MLOAD PUSH3 0x461BCD PUSH1 0xE5 SHL DUP2 MSTORE PUSH1 0x4 ADD PUSH2 0xD68 SWAP1 PUSH2 0x4CD8 JUMP JUMPDEST PUSH1 0x0 PUSH2 0x3240 PUSH2 0x322A PUSH2 0x320B DUP6 PUSH1 0x6 PUSH2 0x3FA1 JUMP JUMPDEST PUSH8 0x6765C793FA10079D PUSH1 0x1B SHL PUSH2 0x16D JUMPDEST PUSH2 0x3225 SWAP2 SWAP1 PUSH2 0x4F4B JUMP JUMPDEST PUSH2 0x4017 JUMP JUMPDEST PUSH2 0x3225 PUSH8 0x6765C793FA10079D PUSH1 0x1B SHL PUSH1 0x64 PUSH2 0x4F4B JUMP JUMPDEST SWAP1 POP PUSH1 0x0 PUSH2 0x3262 DUP3 PUSH2 0x325D PUSH8 0x6765C793FA10079D PUSH1 0x1B SHL DUP9 PUSH2 0x4F4B JUMP JUMPDEST PUSH2 0x4047 JUMP JUMPDEST SWAP1 POP PUSH1 0x0 PUSH2 0x3271 DUP8 PUSH1 0x6 PUSH2 0x3FA1 JUMP JUMPDEST SWAP1 POP PUSH1 0x0 PUSH2 0x327F DUP3 DUP5 PUSH2 0x4047 JUMP JUMPDEST SWAP1 POP PUSH2 0x3294 DUP2 PUSH9 0x3635C9ADC5DEA00000 PUSH2 0x319B JUMP JUMPDEST SWAP9 SWAP8 POP POP POP POP POP POP POP POP JUMP JUMPDEST PUSH1 0x0 PUSH1 0x1 PUSH1 0x1 PUSH1 0xA0 SHL SUB DUP3 AND PUSH4 0xFC563658 DUP3 JUMPDEST PUSH1 0x40 MLOAD DUP3 PUSH4 0xFFFFFFFF AND PUSH1 0xE0 SHL DUP2 MSTORE PUSH1 0x4 ADD PUSH2 0x32D1 SWAP2 DUP2 MSTORE PUSH1 0x20 ADD SWAP1 JUMP JUMPDEST PUSH1 0x20 PUSH1 0x40 MLOAD DUP1 DUP4 SUB DUP2 DUP7 DUP1 EXTCODESIZE ISZERO DUP1 ISZERO PUSH2 0x32E9 JUMPI PUSH1 0x0 DUP1 REVERT JUMPDEST POP GAS STATICCALL ISZERO DUP1 ISZERO PUSH2 0x32FD JUMPI RETURNDATASIZE PUSH1 0x0 DUP1 RETURNDATACOPY RETURNDATASIZE PUSH1 0x0 REVERT JUMPDEST POP POP POP POP PUSH1 0x40 MLOAD RETURNDATASIZE PUSH1 0x1F NOT PUSH1 0x1F DUP3 ADD AND DUP3 ADD DUP1 PUSH1 0x40 MSTORE POP DUP2 ADD SWAP1 PUSH2 0xAA7 SWAP2 SWAP1 PUSH2 0x499B JUMP JUMPDEST PUSH1 0x2 PUSH1 0xC9 SLOAD EQ ISZERO PUSH2 0x3374 JUMPI PUSH1 0x40 MLOAD PUSH3 0x461BCD PUSH1 0xE5 SHL DUP2 MSTORE PUSH1 0x20 PUSH1 0x4 DUP3 ADD MSTORE PUSH1 0x1F PUSH1 0x24 DUP3 ADD MSTORE PUSH32 0x5265656E7472616E637947756172643A207265656E7472616E742063616C6C00 PUSH1 0x44 DUP3 ADD MSTORE PUSH1 0x64 ADD PUSH2 0xD68 JUMP JUMPDEST PUSH1 0x2 PUSH1 0xC9 SSTORE JUMP JUMPDEST PUSH32 0x2344277E405079EC07749D374BA0B5862A4E45A6A05AC889DBB4A991C6F9354D SWAP1 JUMP JUMPDEST PUSH1 0x0 PUSH1 0x1 PUSH1 0x1 PUSH1 0xA0 SHL SUB DUP3 AND PUSH4 0xFC563658 PUSH1 0x6 PUSH2 0x32B3 JUMP JUMPDEST PUSH1 0x0 PUSH1 0x1 PUSH1 0x1 PUSH1 0xA0 SHL SUB DUP3 AND PUSH4 0xFC563658 PUSH1 0x1 PUSH2 0x32B3 JUMP JUMPDEST PUSH1 0x0 PUSH1 0x1 PUSH1 0x1 PUSH1 0xA0 SHL SUB DUP3 AND PUSH4 0xFC563658 PUSH1 0x3 PUSH2 0x32B3 JUMP JUMPDEST PUSH1 0x0 DUP1 PUSH1 0x0 DUP9 GT DUP1 ISZERO PUSH2 0x33FA JUMPI POP PUSH1 0x0 DUP8 GT JUMPDEST DUP1 ISZERO PUSH2 0x3406 JUMPI POP PUSH1 0x0 DUP7 GT JUMPDEST DUP1 ISZERO PUSH2 0x3412 JUMPI POP PUSH1 0x0 DUP6 GT JUMPDEST DUP1 ISZERO PUSH2 0x341E JUMPI POP PUSH1 0x0 DUP5 GT JUMPDEST DUP1 ISZERO PUSH2 0x342A JUMPI POP PUSH1 0x0 DUP4 GT JUMPDEST PUSH2 0x3446 JUMPI PUSH1 0x40 MLOAD PUSH3 0x461BCD PUSH1 0xE5 SHL DUP2 MSTORE PUSH1 0x4 ADD PUSH2 0xD68 SWAP1 PUSH2 0x4CD8 JUMP JUMPDEST PUSH1 0x0 PUSH2 0x3453 DUP10 PUSH1 0x6 PUSH2 0x3FA1 JUMP JUMPDEST SWAP1 POP PUSH1 0x0 PUSH2 0x3462 DUP10 PUSH1 0x6 PUSH2 0x3FA1 JUMP JUMPDEST SWAP1 POP PUSH1 0x0 PUSH2 0x3471 DUP10 PUSH1 0x6 PUSH2 0x3FA1 JUMP JUMPDEST SWAP1 POP PUSH1 0x0 PUSH2 0x3480 DUP9 PUSH1 0x6 PUSH2 0x3FA1 JUMP JUMPDEST SWAP1 POP PUSH1 0x0 PUSH2 0x348F DUP9 PUSH1 0x6 PUSH2 0x3FA1 JUMP JUMPDEST SWAP1 POP PUSH1 0x0 PUSH2 0x34A6 PUSH2 0x34A0 DUP6 DUP5 PUSH2 0x4047 JUMP JUMPDEST DUP5 PUSH2 0x4017 JUMP JUMPDEST SWAP1 POP PUSH1 0x0 PUSH2 0x34B4 DUP3 DUP8 PUSH2 0x4047 JUMP JUMPDEST SWAP1 POP PUSH1 0x0 PUSH2 0x34D4 PUSH2 0x34CE DUP5 PUSH2 0x34C9 DUP7 DUP13 PUSH2 0x4047 JUMP JUMPDEST PUSH2 0x4078 JUMP JUMPDEST DUP4 PUSH2 0x4078 JUMP JUMPDEST SWAP1 POP PUSH1 0x0 PUSH2 0x34EF PUSH2 0x34E9 DUP9 PUSH2 0x325D DUP10 DUP10 PUSH2 0x4078 JUMP JUMPDEST DUP8 PUSH2 0x4017 JUMP JUMPDEST SWAP1 POP PUSH1 0x0 PUSH2 0x350A PUSH2 0x3504 DUP4 PUSH2 0x34C9 DUP6 DUP15 PUSH2 0x4047 JUMP JUMPDEST DUP6 PUSH2 0x40CE JUMP JUMPDEST SWAP1 POP PUSH2 0x351F DUP4 PUSH9 0x3635C9ADC5DEA00000 PUSH2 0x319B JUMP JUMPDEST PUSH2 0x3532 DUP3 PUSH9 0x3635C9ADC5DEA00000 PUSH2 0x319B JUMP JUMPDEST SWAP12 POP SWAP12 POP POP POP POP POP POP POP POP POP POP POP SWAP7 POP SWAP7 SWAP5 POP POP POP POP POP JUMP JUMPDEST PUSH1 0x40 MLOAD PUSH1 0x1 PUSH1 0x1 PUSH1 0xA0 SHL SUB DUP1 DUP6 AND PUSH1 0x24 DUP4 ADD MSTORE DUP4 AND PUSH1 0x44 DUP3 ADD MSTORE PUSH1 0x64 DUP2 ADD DUP3 SWAP1 MSTORE PUSH2 0x35B6 SWAP1 DUP6 SWAP1 PUSH4 0x23B872DD PUSH1 0xE0 SHL SWAP1 PUSH1 0x84 ADD JUMPDEST PUSH1 0x40 DUP1 MLOAD PUSH1 0x1F NOT DUP2 DUP5 SUB ADD DUP2 MSTORE SWAP2 SWAP1 MSTORE PUSH1 0x20 DUP2 ADD DUP1 MLOAD PUSH1 0x1 PUSH1 0x1 PUSH1 0xE0 SHL SUB AND PUSH1 0x1 PUSH1 0x1 PUSH1 0xE0 SHL SUB NOT SWAP1 SWAP4 AND SWAP3 SWAP1 SWAP3 OR SWAP1 SWAP2 MSTORE PUSH2 0x4123 JUMP JUMPDEST POP POP POP POP JUMP JUMPDEST PUSH1 0x0 PUSH1 0x1 PUSH1 0x1 PUSH1 0xA0 SHL SUB DUP3 AND PUSH4 0xB93F9B0A PUSH1 0x8 JUMPDEST PUSH1 0x40 MLOAD DUP3 PUSH4 0xFFFFFFFF AND PUSH1 0xE0 SHL DUP2 MSTORE PUSH1 0x4 ADD PUSH2 0x35EE SWAP2 DUP2 MSTORE PUSH1 0x20 ADD SWAP1 JUMP JUMPDEST PUSH1 0x20 PUSH1 0x40 MLOAD DUP1 DUP4 SUB DUP2 DUP7 DUP1 EXTCODESIZE ISZERO DUP1 ISZERO PUSH2 0x3606 JUMPI PUSH1 0x0 DUP1 REVERT JUMPDEST POP GAS STATICCALL ISZERO DUP1 ISZERO PUSH2 0x361A JUMPI RETURNDATASIZE PUSH1 0x0 DUP1 RETURNDATACOPY RETURNDATASIZE PUSH1 0x0 REVERT JUMPDEST POP POP POP POP PUSH1 0x40 MLOAD RETURNDATASIZE PUSH1 0x1F NOT PUSH1 0x1F DUP3 ADD AND DUP3 ADD DUP1 PUSH1 0x40 MSTORE POP DUP2 ADD SWAP1 PUSH2 0xAA7 SWAP2 SWAP1 PUSH2 0x48BA JUMP JUMPDEST PUSH1 0x0 PUSH1 0x1 PUSH1 0x1 PUSH1 0xA0 SHL SUB DUP3 AND PUSH4 0xB93F9B0A PUSH1 0x3 PUSH2 0x35D0 JUMP JUMPDEST PUSH2 0x197C DUP4 PUSH4 0xA9059CBB PUSH1 0xE0 SHL DUP5 DUP5 PUSH1 0x40 MLOAD PUSH1 0x24 ADD PUSH2 0x357F SWAP3 SWAP2 SWAP1 PUSH2 0x4BA6 JUMP JUMPDEST PUSH1 0x1 PUSH1 0xC9 SSTORE JUMP JUMPDEST PUSH1 0x0 PUSH1 0x1 PUSH1 0x1 PUSH1 0xA0 SHL SUB DUP3 AND PUSH4 0xB93F9B0A PUSH1 0x6 PUSH2 0x35D0 JUMP JUMPDEST PUSH2 0x1AF6 DUP2 CALLER PUSH2 0x41F8 JUMP JUMPDEST PUSH2 0x36A8 DUP3 DUP3 PUSH2 0x2418 JUMP JUMPDEST PUSH2 0x1A2C JUMPI PUSH1 0x0 DUP3 DUP2 MSTORE PUSH1 0x65 PUSH1 0x20 SWAP1 DUP2 MSTORE PUSH1 0x40 DUP1 DUP4 KECCAK256 PUSH1 0x1 PUSH1 0x1 PUSH1 0xA0 SHL SUB DUP6 AND DUP5 MSTORE SWAP1 SWAP2 MSTORE SWAP1 KECCAK256 DUP1 SLOAD PUSH1 0xFF NOT AND PUSH1 0x1 OR SWAP1 SSTORE PUSH2 0x36E0 CALLER SWAP1 JUMP JUMPDEST PUSH1 0x1 PUSH1 0x1 PUSH1 0xA0 SHL SUB AND DUP2 PUSH1 0x1 PUSH1 0x1 PUSH1 0xA0 SHL SUB AND DUP4 PUSH32 0x2F8788117E7EFF1D82E926EC794901D17C78024A50270940304540A733656F0D PUSH1 0x40 MLOAD PUSH1 0x40 MLOAD DUP1 SWAP2 SUB SWAP1 LOG4 POP POP JUMP JUMPDEST PUSH2 0x372E DUP3 DUP3 PUSH2 0x2418 JUMP JUMPDEST ISZERO PUSH2 0x1A2C JUMPI PUSH1 0x0 DUP3 DUP2 MSTORE PUSH1 0x65 PUSH1 0x20 SWAP1 DUP2 MSTORE PUSH1 0x40 DUP1 DUP4 KECCAK256 PUSH1 0x1 PUSH1 0x1 PUSH1 0xA0 SHL SUB DUP6 AND DUP1 DUP6 MSTORE SWAP3 MSTORE DUP1 DUP4 KECCAK256 DUP1 SLOAD PUSH1 0xFF NOT AND SWAP1 SSTORE MLOAD CALLER SWAP3 DUP6 SWAP2 PUSH32 0xF6391F5C32D9C69D2A47EA670B442974B53935D1EDC7FD64EB21E047A839171B SWAP2 SWAP1 LOG4 POP POP JUMP JUMPDEST PUSH1 0x0 DUP1 MLOAD PUSH1 0x20 PUSH2 0x5030 DUP4 CODECOPY DUP2 MLOAD SWAP2 MSTORE SLOAD PUSH1 0x1 PUSH1 0x1 PUSH1 0xA0 SHL SUB AND SWAP1 JUMP JUMPDEST PUSH2 0x37AF PUSH2 0x2517 JUMP JUMPDEST PUSH2 0x1AF6 JUMPI PUSH1 0x40 MLOAD PUSH3 0x461BCD PUSH1 0xE5 SHL DUP2 MSTORE PUSH1 0x4 ADD PUSH2 0xD68 SWAP1 PUSH2 0x4D90 JUMP JUMPDEST PUSH32 0x4910FDFA16FED3260ED0E7147F7CC6DA11A60208B5B9406D12A635614FFD9143 SLOAD PUSH1 0xFF AND ISZERO PUSH2 0x37FE JUMPI PUSH2 0x197C DUP4 PUSH2 0x4251 JUMP JUMPDEST DUP3 PUSH1 0x1 PUSH1 0x1 PUSH1 0xA0 SHL SUB AND PUSH4 0x52D1902D PUSH1 0x40 MLOAD DUP2 PUSH4 0xFFFFFFFF AND PUSH1 0xE0 SHL DUP2 MSTORE PUSH1 0x4 ADD PUSH1 0x20 PUSH1 0x40 MLOAD DUP1 DUP4 SUB DUP2 DUP7 DUP1 EXTCODESIZE ISZERO DUP1 ISZERO PUSH2 0x3837 JUMPI PUSH1 0x0 DUP1 REVERT JUMPDEST POP GAS STATICCALL SWAP3 POP POP POP DUP1 ISZERO PUSH2 0x3867 JUMPI POP PUSH1 0x40 DUP1 MLOAD PUSH1 0x1F RETURNDATASIZE SWAP1 DUP2 ADD PUSH1 0x1F NOT AND DUP3 ADD SWAP1 SWAP3 MSTORE PUSH2 0x3864 SWAP2 DUP2 ADD SWAP1 PUSH2 0x499B JUMP JUMPDEST PUSH1 0x1 JUMPDEST PUSH2 0x38CA JUMPI PUSH1 0x40 MLOAD PUSH3 0x461BCD PUSH1 0xE5 SHL DUP2 MSTORE PUSH1 0x20 PUSH1 0x4 DUP3 ADD MSTORE PUSH1 0x2E PUSH1 0x24 DUP3 ADD MSTORE PUSH32 0x45524331393637557067726164653A206E657720696D706C656D656E74617469 PUSH1 0x44 DUP3 ADD MSTORE PUSH14 0x6F6E206973206E6F742055555053 PUSH1 0x90 SHL PUSH1 0x64 DUP3 ADD MSTORE PUSH1 0x84 ADD PUSH2 0xD68 JUMP JUMPDEST PUSH1 0x0 DUP1 MLOAD PUSH1 0x20 PUSH2 0x5030 DUP4 CODECOPY DUP2 MLOAD SWAP2 MSTORE DUP2 EQ PUSH2 0x3939 JUMPI PUSH1 0x40 MLOAD PUSH3 0x461BCD PUSH1 0xE5 SHL DUP2 MSTORE PUSH1 0x20 PUSH1 0x4 DUP3 ADD MSTORE PUSH1 0x29 PUSH1 0x24 DUP3 ADD MSTORE PUSH32 0x45524331393637557067726164653A20756E737570706F727465642070726F78 PUSH1 0x44 DUP3 ADD MSTORE PUSH9 0x1A58589B1955555251 PUSH1 0xBA SHL PUSH1 0x64 DUP3 ADD MSTORE PUSH1 0x84 ADD PUSH2 0xD68 JUMP JUMPDEST POP PUSH2 0x197C DUP4 DUP4 DUP4 PUSH2 0x42ED JUMP JUMPDEST PUSH32 0x65D7A28E3265B37A6474929F336521B332C1681B933F6CB9F3376673440D862A SWAP1 JUMP JUMPDEST PUSH2 0x3971 PUSH2 0x4312 JUMP JUMPDEST PUSH1 0x97 DUP1 SLOAD PUSH1 0xFF NOT AND SWAP1 SSTORE PUSH32 0x5DB9EE0A495BF2E6FF9C91A7834C1BA4FDD244A5E8AA4E537BD38AEAE4B073AA CALLER JUMPDEST PUSH1 0x40 MLOAD PUSH1 0x1 PUSH1 0x1 PUSH1 0xA0 SHL SUB SWAP1 SWAP2 AND DUP2 MSTORE PUSH1 0x20 ADD PUSH1 0x40 MLOAD DUP1 SWAP2 SUB SWAP1 LOG1 JUMP JUMPDEST PUSH1 0x0 SLOAD PUSH2 0x100 SWAP1 DIV PUSH1 0xFF AND PUSH2 0x39E2 JUMPI PUSH1 0x40 MLOAD PUSH3 0x461BCD PUSH1 0xE5 SHL DUP2 MSTORE PUSH1 0x4 ADD PUSH2 0xD68 SWAP1 PUSH2 0x4CFF JUMP JUMPDEST PUSH1 0x97 DUP1 SLOAD PUSH1 0xFF NOT AND SWAP1 SSTORE JUMP JUMPDEST PUSH1 0x97 SLOAD PUSH1 0xFF AND ISZERO PUSH2 0x15B4 JUMPI PUSH1 0x40 MLOAD PUSH3 0x461BCD PUSH1 0xE5 SHL DUP2 MSTORE PUSH1 0x20 PUSH1 0x4 DUP3 ADD MSTORE PUSH1 0x10 PUSH1 0x24 DUP3 ADD MSTORE PUSH16 0x14185D5CD8589B194E881C185D5CD959 PUSH1 0x82 SHL PUSH1 0x44 DUP3 ADD MSTORE PUSH1 0x64 ADD PUSH2 0xD68 JUMP JUMPDEST PUSH32 0xA794A061BAC4A541306B6778CC120A221216F325DE0020C39B67101D49158CA2 SWAP1 JUMP JUMPDEST PUSH32 0xFA4B6F760D780A02797DF53A6C2CCF476001DC02EE4F9B6B1426DAFC21FF6BAF SWAP1 JUMP JUMPDEST PUSH2 0x3A84 PUSH2 0x39EE JUMP JUMPDEST PUSH1 0x97 DUP1 SLOAD PUSH1 0xFF NOT AND PUSH1 0x1 OR SWAP1 SSTORE PUSH32 0x62E78CEA01BEE320CD4E420270B5EA74000D11B0C9F74754EBDBFC544B05A258 PUSH2 0x399E CALLER SWAP1 JUMP JUMPDEST PUSH1 0x0 SLOAD PUSH2 0x100 SWAP1 DIV PUSH1 0xFF AND PUSH2 0x15B4 JUMPI PUSH1 0x40 MLOAD PUSH3 0x461BCD PUSH1 0xE5 SHL DUP2 MSTORE PUSH1 0x4 ADD PUSH2 0xD68 SWAP1 PUSH2 0x4CFF JUMP JUMPDEST PUSH1 0x0 SLOAD PUSH2 0x100 SWAP1 DIV PUSH1 0xFF AND PUSH2 0x3675 JUMPI PUSH1 0x40 MLOAD PUSH3 0x461BCD PUSH1 0xE5 SHL DUP2 MSTORE PUSH1 0x4 ADD PUSH2 0xD68 SWAP1 PUSH2 0x4CFF JUMP JUMPDEST PUSH32 0xA49807205CE4D355092EF5A8A18F56E8913CF4A201FBE287825B095693C21775 SWAP1 JUMP JUMPDEST PUSH1 0x0 DUP3 DUP2 MSTORE PUSH1 0x65 PUSH1 0x20 MSTORE PUSH1 0x40 DUP1 DUP3 KECCAK256 PUSH1 0x1 ADD DUP1 SLOAD SWAP1 DUP5 SWAP1 SSTORE SWAP1 MLOAD SWAP1 SWAP2 DUP4 SWAP2 DUP4 SWAP2 DUP7 SWAP2 PUSH32 0xBD79B86FFE0AB8E8776151514217CD7CACD52C909F66475C3AF44E129F0B00FF SWAP2 SWAP1 LOG4 POP POP POP JUMP JUMPDEST PUSH1 0x0 PUSH1 0x1 PUSH1 0x1 PUSH1 0xA0 SHL SUB DUP3 AND PUSH4 0xB93F9B0A DUP3 PUSH2 0x35D0 JUMP JUMPDEST PUSH1 0x0 PUSH1 0x1 PUSH1 0x1 PUSH1 0xA0 SHL SUB DUP3 AND PUSH4 0xB93F9B0A PUSH1 0x7 PUSH2 0x35D0 JUMP JUMPDEST PUSH1 0x0 PUSH1 0x1 PUSH1 0x1 PUSH1 0xA0 SHL SUB DUP3 AND PUSH4 0xB93F9B0A PUSH1 0x2 PUSH2 0x35D0 JUMP JUMPDEST PUSH1 0x0 PUSH1 0x1 PUSH1 0x1 PUSH1 0xA0 SHL SUB DUP3 AND PUSH4 0xB93F9B0A PUSH1 0x1 PUSH2 0x35D0 JUMP JUMPDEST PUSH1 0x0 DUP1 DUP6 GT DUP1 ISZERO PUSH2 0x3BE6 JUMPI POP PUSH1 0x0 DUP5 GT JUMPDEST DUP1 ISZERO PUSH2 0x3BF2 JUMPI POP PUSH1 0x0 DUP4 GT JUMPDEST DUP1 ISZERO PUSH2 0x3BFE JUMPI POP PUSH1 0x0 DUP3 GT JUMPDEST PUSH2 0x3C1A JUMPI PUSH1 0x40 MLOAD PUSH3 0x461BCD PUSH1 0xE5 SHL DUP2 MSTORE PUSH1 0x4 ADD PUSH2 0xD68 SWAP1 PUSH2 0x4CD8 JUMP JUMPDEST PUSH1 0x0 PUSH2 0x3C28 DUP4 PUSH2 0x16D PUSH2 0xBBB JUMP JUMPDEST SWAP1 POP PUSH1 0x0 PUSH2 0x3C52 PUSH2 0x322A PUSH2 0x3C3D DUP9 PUSH1 0x6 PUSH2 0x3FA1 JUMP JUMPDEST PUSH2 0x3225 PUSH8 0x6765C793FA10079D PUSH1 0x1B SHL DUP7 PUSH2 0x4F4B JUMP JUMPDEST SWAP1 POP PUSH1 0x0 PUSH2 0x3C6B PUSH8 0x6765C793FA10079D PUSH1 0x1B SHL DUP4 PUSH2 0x31B3 JUMP JUMPDEST SWAP1 POP PUSH1 0x0 PUSH2 0x3C79 DUP3 DUP9 PUSH2 0x435B JUMP JUMPDEST SWAP1 POP PUSH1 0x0 PUSH2 0x3C88 DUP11 PUSH1 0x6 PUSH2 0x3FA1 JUMP JUMPDEST SWAP1 POP PUSH1 0x0 PUSH2 0x3CA5 DUP4 PUSH2 0x3225 PUSH8 0x6765C793FA10079D PUSH1 0x1B SHL DUP3 PUSH2 0x4F6A JUMP JUMPDEST SWAP1 POP PUSH1 0x0 PUSH2 0x3CBC PUSH2 0x3CB6 DUP5 DUP9 PUSH2 0x4047 JUMP JUMPDEST DUP4 PUSH2 0x4047 JUMP JUMPDEST SWAP1 POP PUSH2 0x3CD1 DUP2 PUSH9 0x3635C9ADC5DEA00000 PUSH2 0x319B JUMP JUMPDEST SWAP8 POP POP POP POP POP POP POP POP JUMPDEST SWAP5 SWAP4 POP POP POP POP JUMP JUMPDEST PUSH1 0x0 DUP1 DUP5 GT DUP1 ISZERO PUSH2 0x3CF4 JUMPI POP PUSH1 0x0 DUP4 GT JUMPDEST DUP1 ISZERO PUSH2 0x3D00 JUMPI POP PUSH1 0x0 DUP3 GT JUMPDEST PUSH2 0x3D1C JUMPI PUSH1 0x40 MLOAD PUSH3 0x461BCD PUSH1 0xE5 SHL DUP2 MSTORE PUSH1 0x4 ADD PUSH2 0xD68 SWAP1 PUSH2 0x4CD8 JUMP JUMPDEST PUSH1 0x0 PUSH2 0x3D45 PUSH2 0x322A PUSH2 0x3D2F DUP7 PUSH1 0x6 PUSH2 0x3FA1 JUMP JUMPDEST PUSH2 0x3225 PUSH8 0x6765C793FA10079D PUSH1 0x1B SHL PUSH1 0xC PUSH2 0x4F4B JUMP JUMPDEST SWAP1 POP PUSH1 0x0 PUSH2 0x3262 DUP3 PUSH2 0x325D PUSH2 0x3D65 PUSH8 0x6765C793FA10079D PUSH1 0x1B SHL DUP9 PUSH2 0x4F4B JUMP JUMPDEST PUSH8 0x6765C793FA10079D PUSH1 0x1B SHL PUSH1 0x1E PUSH2 0x321B JUMP JUMPDEST PUSH1 0x0 PUSH1 0x1 PUSH1 0x1 PUSH1 0xA0 SHL SUB DUP3 AND PUSH4 0xFC563658 PUSH1 0x2 PUSH2 0x32B3 JUMP JUMPDEST PUSH1 0x0 DUP1 PUSH1 0x0 DUP12 GT DUP1 ISZERO PUSH2 0x3DA3 JUMPI POP PUSH1 0x0 DUP11 GT JUMPDEST DUP1 ISZERO PUSH2 0x3DAF JUMPI POP PUSH1 0x0 DUP9 GT JUMPDEST DUP1 ISZERO PUSH2 0x3DBB JUMPI POP PUSH1 0x0 DUP8 GT JUMPDEST DUP1 ISZERO PUSH2 0x3DC7 JUMPI POP PUSH1 0x0 DUP7 GT JUMPDEST DUP1 ISZERO PUSH2 0x3DD3 JUMPI POP PUSH1 0x0 DUP6 GT JUMPDEST DUP1 ISZERO PUSH2 0x3DDF JUMPI POP PUSH1 0x0 DUP5 GT JUMPDEST DUP1 ISZERO PUSH2 0x3DEB JUMPI POP PUSH1 0x0 DUP4 GT JUMPDEST PUSH2 0x3E07 JUMPI PUSH1 0x40 MLOAD PUSH3 0x461BCD PUSH1 0xE5 SHL DUP2 MSTORE PUSH1 0x4 ADD PUSH2 0xD68 SWAP1 PUSH2 0x4CD8 JUMP JUMPDEST PUSH1 0x0 DUP1 PUSH2 0x3E15 DUP14 PUSH1 0x6 PUSH2 0x3FA1 JUMP JUMPDEST SWAP1 POP PUSH1 0x0 PUSH2 0x3E24 DUP14 PUSH1 0x6 PUSH2 0x3FA1 JUMP JUMPDEST SWAP1 POP DUP12 ISZERO PUSH2 0x3E89 JUMPI PUSH1 0x0 PUSH2 0x3E39 DUP13 PUSH1 0x6 PUSH2 0x3FA1 JUMP JUMPDEST SWAP1 POP PUSH1 0x0 PUSH2 0x3E52 PUSH8 0x6765C793FA10079D PUSH1 0x1B SHL DUP13 PUSH2 0x4F4B JUMP JUMPDEST SWAP1 POP PUSH1 0x0 PUSH2 0x3E61 DUP14 PUSH1 0x6 PUSH2 0x3FA1 JUMP JUMPDEST SWAP1 POP PUSH1 0x0 PUSH2 0x3E72 PUSH2 0x34CE DUP6 DUP6 PUSH2 0x4047 JUMP JUMPDEST SWAP1 POP PUSH2 0x3E7E DUP2 DUP4 PUSH2 0x4017 JUMP JUMPDEST SWAP7 POP POP POP POP POP PUSH2 0x3EBB JUMP JUMPDEST PUSH1 0x0 PUSH2 0x3E9C PUSH2 0x322A PUSH2 0x320B DUP12 PUSH1 0x6 PUSH2 0x3FA1 JUMP JUMPDEST SWAP1 POP PUSH2 0x3EB7 DUP2 PUSH2 0x325D PUSH8 0x6765C793FA10079D PUSH1 0x1B SHL DUP11 PUSH2 0x4F4B JUMP JUMPDEST SWAP4 POP POP JUMPDEST PUSH1 0x0 DUP4 GT PUSH2 0x3EFE JUMPI PUSH1 0x40 MLOAD PUSH3 0x461BCD PUSH1 0xE5 SHL DUP2 MSTORE PUSH1 0x20 PUSH1 0x4 DUP3 ADD MSTORE PUSH1 0x10 PUSH1 0x24 DUP3 ADD MSTORE PUSH16 0x125B9D985B1A5908125B9D195C995CDD PUSH1 0x82 SHL PUSH1 0x44 DUP3 ADD MSTORE PUSH1 0x64 ADD PUSH2 0xD68 JUMP JUMPDEST PUSH1 0x0 PUSH2 0x3F22 DUP5 PUSH2 0x325D PUSH2 0x3F1C PUSH8 0x6765C793FA10079D PUSH1 0x1B SHL DUP8 PUSH2 0x4078 JUMP JUMPDEST DUP6 PUSH2 0x4078 JUMP JUMPDEST SWAP1 POP PUSH1 0x0 PUSH2 0x3F62 DUP6 PUSH2 0x325D PUSH2 0x3F42 PUSH8 0x6765C793FA10079D PUSH1 0x1B SHL DUP9 PUSH2 0x4078 JUMP JUMPDEST PUSH2 0x3F5D DUP8 PUSH8 0x6765C793FA10079D PUSH1 0x1B SHL DUP16 PUSH2 0x325D SWAP2 SWAP1 PUSH2 0x4F4B JUMP JUMPDEST PUSH2 0x40CE JUMP JUMPDEST SWAP1 POP PUSH2 0x3F77 DUP3 PUSH9 0x3635C9ADC5DEA00000 PUSH2 0x319B JUMP JUMPDEST PUSH2 0x3F8A DUP3 PUSH9 0x3635C9ADC5DEA00000 PUSH2 0x319B JUMP JUMPDEST SWAP7 POP SWAP7 POP POP POP POP POP POP SWAP10 POP SWAP10 SWAP8 POP POP POP POP POP POP POP POP JUMP JUMPDEST PUSH1 0x0 PUSH1 0x1B DUP3 GT ISZERO PUSH2 0x3FF4 JUMPI PUSH1 0x40 MLOAD PUSH3 0x461BCD PUSH1 0xE5 SHL DUP2 MSTORE PUSH1 0x20 PUSH1 0x4 DUP3 ADD MSTORE PUSH1 0x1D PUSH1 0x24 DUP3 ADD MSTORE PUSH32 0x64732D6D6174682D646563696D616C732D6F75742D6F662D72616E6765000000 PUSH1 0x44 DUP3 ADD MSTORE PUSH1 0x64 ADD PUSH2 0xD68 JUMP JUMPDEST PUSH1 0x0 PUSH2 0x4001 PUSH1 0x1B DUP5 PUSH2 0x4078 JUMP JUMPDEST SWAP1 POP PUSH2 0x3CDB DUP5 PUSH2 0x4012 DUP4 PUSH1 0xA PUSH2 0x4EA3 JUMP JUMPDEST PUSH2 0x43D0 JUMP JUMPDEST PUSH1 0x0 DUP2 PUSH2 0x403D PUSH2 0x4032 DUP6 PUSH8 0x6765C793FA10079D PUSH1 0x1B SHL PUSH2 0x43D0 JUMP JUMPDEST PUSH2 0x3F5D PUSH1 0x2 DUP7 PUSH2 0x4E4C JUMP JUMPDEST PUSH2 0x3194 SWAP2 SWAP1 PUSH2 0x4E4C JUMP JUMPDEST PUSH1 0x0 PUSH8 0x6765C793FA10079D PUSH1 0x1B SHL PUSH2 0x403D PUSH2 0x4062 DUP6 DUP6 PUSH2 0x43D0 JUMP JUMPDEST PUSH2 0x3F5D PUSH1 0x2 PUSH8 0x6765C793FA10079D PUSH1 0x1B SHL PUSH2 0x4E4C JUMP JUMPDEST PUSH1 0x0 DUP3 PUSH2 0x4085 DUP4 DUP3 PUSH2 0x4F6A JUMP JUMPDEST SWAP2 POP DUP2 GT ISZERO PUSH2 0xAA7 JUMPI PUSH1 0x40 MLOAD PUSH3 0x461BCD PUSH1 0xE5 SHL DUP2 MSTORE PUSH1 0x20 PUSH1 0x4 DUP3 ADD MSTORE PUSH1 0x15 PUSH1 0x24 DUP3 ADD MSTORE PUSH21 0x64732D6D6174682D7375622D756E646572666C6F77 PUSH1 0x58 SHL PUSH1 0x44 DUP3 ADD MSTORE PUSH1 0x64 ADD PUSH2 0xD68 JUMP JUMPDEST PUSH1 0x0 DUP3 PUSH2 0x40DB DUP4 DUP3 PUSH2 0x4E34 JUMP JUMPDEST SWAP2 POP DUP2 LT ISZERO PUSH2 0xAA7 JUMPI PUSH1 0x40 MLOAD PUSH3 0x461BCD PUSH1 0xE5 SHL DUP2 MSTORE PUSH1 0x20 PUSH1 0x4 DUP3 ADD MSTORE PUSH1 0x14 PUSH1 0x24 DUP3 ADD MSTORE PUSH20 0x64732D6D6174682D6164642D6F766572666C6F77 PUSH1 0x60 SHL PUSH1 0x44 DUP3 ADD MSTORE PUSH1 0x64 ADD PUSH2 0xD68 JUMP JUMPDEST PUSH1 0x0 PUSH2 0x4178 DUP3 PUSH1 0x40 MLOAD DUP1 PUSH1 0x40 ADD PUSH1 0x40 MSTORE DUP1 PUSH1 0x20 DUP2 MSTORE PUSH1 0x20 ADD PUSH32 0x5361666545524332303A206C6F772D6C6576656C2063616C6C206661696C6564 DUP2 MSTORE POP DUP6 PUSH1 0x1 PUSH1 0x1 PUSH1 0xA0 SHL SUB AND PUSH2 0x4437 SWAP1 SWAP3 SWAP2 SWAP1 PUSH4 0xFFFFFFFF AND JUMP JUMPDEST SWAP1 POP DUP1 MLOAD PUSH1 0x0 EQ DUP1 PUSH2 0x4199 JUMPI POP DUP1 DUP1 PUSH1 0x20 ADD SWAP1 MLOAD DUP2 ADD SWAP1 PUSH2 0x4199 SWAP2 SWAP1 PUSH2 0x4963 JUMP JUMPDEST PUSH2 0x197C JUMPI PUSH1 0x40 MLOAD PUSH3 0x461BCD PUSH1 0xE5 SHL DUP2 MSTORE PUSH1 0x20 PUSH1 0x4 DUP3 ADD MSTORE PUSH1 0x2A PUSH1 0x24 DUP3 ADD MSTORE PUSH32 0x5361666545524332303A204552433230206F7065726174696F6E20646964206E PUSH1 0x44 DUP3 ADD MSTORE PUSH10 0x1BDD081CDD58D8D95959 PUSH1 0xB2 SHL PUSH1 0x64 DUP3 ADD MSTORE PUSH1 0x84 ADD PUSH2 0xD68 JUMP JUMPDEST PUSH2 0x4202 DUP3 DUP3 PUSH2 0x2418 JUMP JUMPDEST PUSH2 0x1A2C JUMPI PUSH2 0x420F DUP2 PUSH2 0x4446 JUMP JUMPDEST PUSH2 0x421A DUP4 PUSH1 0x20 PUSH2 0x4458 JUMP JUMPDEST PUSH1 0x40 MLOAD PUSH1 0x20 ADD PUSH2 0x422B SWAP3 SWAP2 SWAP1 PUSH2 0x4B37 JUMP JUMPDEST PUSH1 0x40 DUP1 MLOAD PUSH1 0x1F NOT DUP2 DUP5 SUB ADD DUP2 MSTORE SWAP1 DUP3 SWAP1 MSTORE PUSH3 0x461BCD PUSH1 0xE5 SHL DUP3 MSTORE PUSH2 0xD68 SWAP2 PUSH1 0x4 ADD PUSH2 0x4BBF JUMP JUMPDEST PUSH1 0x1 PUSH1 0x1 PUSH1 0xA0 SHL SUB DUP2 AND EXTCODESIZE PUSH2 0x42BE JUMPI PUSH1 0x40 MLOAD PUSH3 0x461BCD PUSH1 0xE5 SHL DUP2 MSTORE PUSH1 0x20 PUSH1 0x4 DUP3 ADD MSTORE PUSH1 0x2D PUSH1 0x24 DUP3 ADD MSTORE PUSH32 0x455243313936373A206E657720696D706C656D656E746174696F6E206973206E PUSH1 0x44 DUP3 ADD MSTORE PUSH13 0x1BDD08184818DBDB9D1C9858DD PUSH1 0x9A SHL PUSH1 0x64 DUP3 ADD MSTORE PUSH1 0x84 ADD PUSH2 0xD68 JUMP JUMPDEST PUSH1 0x0 DUP1 MLOAD PUSH1 0x20 PUSH2 0x5030 DUP4 CODECOPY DUP2 MLOAD SWAP2 MSTORE DUP1 SLOAD PUSH1 0x1 PUSH1 0x1 PUSH1 0xA0 SHL SUB NOT AND PUSH1 0x1 PUSH1 0x1 PUSH1 0xA0 SHL SUB SWAP3 SWAP1 SWAP3 AND SWAP2 SWAP1 SWAP2 OR SWAP1 SSTORE JUMP JUMPDEST PUSH2 0x42F6 DUP4 PUSH2 0x463A JUMP JUMPDEST PUSH1 0x0 DUP3 MLOAD GT DUP1 PUSH2 0x4303 JUMPI POP DUP1 JUMPDEST ISZERO PUSH2 0x197C JUMPI PUSH2 0x35B6 DUP4 DUP4 PUSH2 0x467A JUMP JUMPDEST PUSH1 0x97 SLOAD PUSH1 0xFF AND PUSH2 0x15B4 JUMPI PUSH1 0x40 MLOAD PUSH3 0x461BCD PUSH1 0xE5 SHL DUP2 MSTORE PUSH1 0x20 PUSH1 0x4 DUP3 ADD MSTORE PUSH1 0x14 PUSH1 0x24 DUP3 ADD MSTORE PUSH20 0x14185D5CD8589B194E881B9BDD081C185D5CD959 PUSH1 0x62 SHL PUSH1 0x44 DUP3 ADD MSTORE PUSH1 0x64 ADD PUSH2 0xD68 JUMP JUMPDEST PUSH1 0x0 PUSH2 0x4368 PUSH1 0x2 DUP4 PUSH2 0x4FC4 JUMP JUMPDEST PUSH2 0x437D JUMPI PUSH8 0x6765C793FA10079D PUSH1 0x1B SHL PUSH2 0x437F JUMP JUMPDEST DUP3 JUMPDEST SWAP1 POP PUSH2 0x438C PUSH1 0x2 DUP4 PUSH2 0x4E4C JUMP JUMPDEST SWAP2 POP JUMPDEST DUP2 ISZERO PUSH2 0xAA7 JUMPI PUSH2 0x439F DUP4 DUP5 PUSH2 0x4047 JUMP JUMPDEST SWAP3 POP PUSH2 0x43AC PUSH1 0x2 DUP4 PUSH2 0x4FC4 JUMP JUMPDEST ISZERO PUSH2 0x43BE JUMPI PUSH2 0x43BB DUP2 DUP5 PUSH2 0x4047 JUMP JUMPDEST SWAP1 POP JUMPDEST PUSH2 0x43C9 PUSH1 0x2 DUP4 PUSH2 0x4E4C JUMP JUMPDEST SWAP2 POP PUSH2 0x438F JUMP JUMPDEST PUSH1 0x0 DUP2 ISZERO DUP1 PUSH2 0x43F4 JUMPI POP DUP3 DUP3 PUSH2 0x43E6 DUP2 DUP4 PUSH2 0x4F4B JUMP JUMPDEST SWAP3 POP PUSH2 0x43F2 SWAP1 DUP4 PUSH2 0x4E4C JUMP JUMPDEST EQ JUMPDEST PUSH2 0xAA7 JUMPI PUSH1 0x40 MLOAD PUSH3 0x461BCD PUSH1 0xE5 SHL DUP2 MSTORE PUSH1 0x20 PUSH1 0x4 DUP3 ADD MSTORE PUSH1 0x14 PUSH1 0x24 DUP3 ADD MSTORE PUSH20 0x64732D6D6174682D6D756C2D6F766572666C6F77 PUSH1 0x60 SHL PUSH1 0x44 DUP3 ADD MSTORE PUSH1 0x64 ADD PUSH2 0xD68 JUMP JUMPDEST PUSH1 0x60 PUSH2 0x3CDB DUP5 DUP5 PUSH1 0x0 DUP6 PUSH2 0x469F JUMP JUMPDEST PUSH1 0x60 PUSH2 0xAA7 PUSH1 0x1 PUSH1 0x1 PUSH1 0xA0 SHL SUB DUP4 AND PUSH1 0x14 JUMPDEST PUSH1 0x60 PUSH1 0x0 PUSH2 0x4467 DUP4 PUSH1 0x2 PUSH2 0x4F4B JUMP JUMPDEST PUSH2 0x4472 SWAP1 PUSH1 0x2 PUSH2 0x4E34 JUMP JUMPDEST PUSH8 0xFFFFFFFFFFFFFFFF DUP2 GT ISZERO PUSH2 0x4498 JUMPI PUSH4 0x4E487B71 PUSH1 0xE0 SHL PUSH1 0x0 MSTORE PUSH1 0x41 PUSH1 0x4 MSTORE PUSH1 0x24 PUSH1 0x0 REVERT JUMPDEST PUSH1 0x40 MLOAD SWAP1 DUP1 DUP3 MSTORE DUP1 PUSH1 0x1F ADD PUSH1 0x1F NOT AND PUSH1 0x20 ADD DUP3 ADD PUSH1 0x40 MSTORE DUP1 ISZERO PUSH2 0x44C2 JUMPI PUSH1 0x20 DUP3 ADD DUP2 DUP1 CALLDATASIZE DUP4 CALLDATACOPY ADD SWAP1 POP JUMPDEST POP SWAP1 POP PUSH1 0x3 PUSH1 0xFC SHL DUP2 PUSH1 0x0 DUP2 MLOAD DUP2 LT PUSH2 0x44EB JUMPI PUSH4 0x4E487B71 PUSH1 0xE0 SHL PUSH1 0x0 MSTORE PUSH1 0x32 PUSH1 0x4 MSTORE PUSH1 0x24 PUSH1 0x0 REVERT JUMPDEST PUSH1 0x20 ADD ADD SWAP1 PUSH1 0x1 PUSH1 0x1 PUSH1 0xF8 SHL SUB NOT AND SWAP1 DUP2 PUSH1 0x0 BYTE SWAP1 MSTORE8 POP PUSH1 0xF PUSH1 0xFB SHL DUP2 PUSH1 0x1 DUP2 MLOAD DUP2 LT PUSH2 0x4528 JUMPI PUSH4 0x4E487B71 PUSH1 0xE0 SHL PUSH1 0x0 MSTORE PUSH1 0x32 PUSH1 0x4 MSTORE PUSH1 0x24 PUSH1 0x0 REVERT JUMPDEST PUSH1 0x20 ADD ADD SWAP1 PUSH1 0x1 PUSH1 0x1 PUSH1 0xF8 SHL SUB NOT AND SWAP1 DUP2 PUSH1 0x0 BYTE SWAP1 MSTORE8 POP PUSH1 0x0 PUSH2 0x454C DUP5 PUSH1 0x2 PUSH2 0x4F4B JUMP JUMPDEST PUSH2 0x4557 SWAP1 PUSH1 0x1 PUSH2 0x4E34 JUMP JUMPDEST SWAP1 POP JUMPDEST PUSH1 0x1 DUP2 GT ISZERO PUSH2 0x45EB JUMPI PUSH16 0x181899199A1A9B1B9C1CB0B131B232B3 PUSH1 0x81 SHL DUP6 PUSH1 0xF AND PUSH1 0x10 DUP2 LT PUSH2 0x4599 JUMPI PUSH4 0x4E487B71 PUSH1 0xE0 SHL PUSH1 0x0 MSTORE PUSH1 0x32 PUSH1 0x4 MSTORE PUSH1 0x24 PUSH1 0x0 REVERT JUMPDEST BYTE PUSH1 0xF8 SHL DUP3 DUP3 DUP2 MLOAD DUP2 LT PUSH2 0x45BD JUMPI PUSH4 0x4E487B71 PUSH1 0xE0 SHL PUSH1 0x0 MSTORE PUSH1 0x32 PUSH1 0x4 MSTORE PUSH1 0x24 PUSH1 0x0 REVERT JUMPDEST PUSH1 0x20 ADD ADD SWAP1 PUSH1 0x1 PUSH1 0x1 PUSH1 0xF8 SHL SUB NOT AND SWAP1 DUP2 PUSH1 0x0 BYTE SWAP1 MSTORE8 POP PUSH1 0x4 SWAP5 SWAP1 SWAP5 SHR SWAP4 PUSH2 0x45E4 DUP2 PUSH2 0x4FAD JUMP JUMPDEST SWAP1 POP PUSH2 0x455A JUMP JUMPDEST POP DUP4 ISZERO PUSH2 0x3194 JUMPI PUSH1 0x40 MLOAD PUSH3 0x461BCD PUSH1 0xE5 SHL DUP2 MSTORE PUSH1 0x20 PUSH1 0x4 DUP3 ADD DUP2 SWAP1 MSTORE PUSH1 0x24 DUP3 ADD MSTORE PUSH32 0x537472696E67733A20686578206C656E67746820696E73756666696369656E74 PUSH1 0x44 DUP3 ADD MSTORE PUSH1 0x64 ADD PUSH2 0xD68 JUMP JUMPDEST PUSH2 0x4643 DUP2 PUSH2 0x4251 JUMP JUMPDEST PUSH1 0x40 MLOAD PUSH1 0x1 PUSH1 0x1 PUSH1 0xA0 SHL SUB DUP3 AND SWAP1 PUSH32 0xBC7CD75A20EE27FD9ADEBAB32041F755214DBC6BFFA90CC0225B39DA2E5C2D3B SWAP1 PUSH1 0x0 SWAP1 LOG2 POP JUMP JUMPDEST PUSH1 0x60 PUSH2 0x3194 DUP4 DUP4 PUSH1 0x40 MLOAD DUP1 PUSH1 0x60 ADD PUSH1 0x40 MSTORE DUP1 PUSH1 0x27 DUP2 MSTORE PUSH1 0x20 ADD PUSH2 0x5050 PUSH1 0x27 SWAP2 CODECOPY PUSH2 0x477A JUMP JUMPDEST PUSH1 0x60 DUP3 SELFBALANCE LT ISZERO PUSH2 0x4700 JUMPI PUSH1 0x40 MLOAD PUSH3 0x461BCD PUSH1 0xE5 SHL DUP2 MSTORE PUSH1 0x20 PUSH1 0x4 DUP3 ADD MSTORE PUSH1 0x26 PUSH1 0x24 DUP3 ADD MSTORE PUSH32 0x416464726573733A20696E73756666696369656E742062616C616E636520666F PUSH1 0x44 DUP3 ADD MSTORE PUSH6 0x1C8818D85B1B PUSH1 0xD2 SHL PUSH1 0x64 DUP3 ADD MSTORE PUSH1 0x84 ADD PUSH2 0xD68 JUMP JUMPDEST PUSH1 0x0 DUP1 DUP7 PUSH1 0x1 PUSH1 0x1 PUSH1 0xA0 SHL SUB AND DUP6 DUP8 PUSH1 0x40 MLOAD PUSH2 0x471C SWAP2 SWAP1 PUSH2 0x4B1B JUMP JUMPDEST PUSH1 0x0 PUSH1 0x40 MLOAD DUP1 DUP4 SUB DUP2 DUP6 DUP8 GAS CALL SWAP3 POP POP POP RETURNDATASIZE DUP1 PUSH1 0x0 DUP2 EQ PUSH2 0x4759 JUMPI PUSH1 0x40 MLOAD SWAP2 POP PUSH1 0x1F NOT PUSH1 0x3F RETURNDATASIZE ADD AND DUP3 ADD PUSH1 0x40 MSTORE RETURNDATASIZE DUP3 MSTORE RETURNDATASIZE PUSH1 0x0 PUSH1 0x20 DUP5 ADD RETURNDATACOPY PUSH2 0x475E JUMP JUMPDEST PUSH1 0x60 SWAP2 POP JUMPDEST POP SWAP2 POP SWAP2 POP PUSH2 0x476F DUP8 DUP4 DUP4 DUP8 PUSH2 0x47F2 JUMP JUMPDEST SWAP8 SWAP7 POP POP POP POP POP POP POP JUMP JUMPDEST PUSH1 0x60 PUSH1 0x0 DUP1 DUP6 PUSH1 0x1 PUSH1 0x1 PUSH1 0xA0 SHL SUB AND DUP6 PUSH1 0x40 MLOAD PUSH2 0x4797 SWAP2 SWAP1 PUSH2 0x4B1B JUMP JUMPDEST PUSH1 0x0 PUSH1 0x40 MLOAD DUP1 DUP4 SUB DUP2 DUP6 GAS DELEGATECALL SWAP2 POP POP RETURNDATASIZE DUP1 PUSH1 0x0 DUP2 EQ PUSH2 0x47D2 JUMPI PUSH1 0x40 MLOAD SWAP2 POP PUSH1 0x1F NOT PUSH1 0x3F RETURNDATASIZE ADD AND DUP3 ADD PUSH1 0x40 MSTORE RETURNDATASIZE DUP3 MSTORE RETURNDATASIZE PUSH1 0x0 PUSH1 0x20 DUP5 ADD RETURNDATACOPY PUSH2 0x47D7 JUMP JUMPDEST PUSH1 0x60 SWAP2 POP JUMPDEST POP SWAP2 POP SWAP2 POP PUSH2 0x47E8 DUP7 DUP4 DUP4 DUP8 PUSH2 0x47F2 JUMP JUMPDEST SWAP7 SWAP6 POP POP POP POP POP POP JUMP JUMPDEST PUSH1 0x60 DUP4 ISZERO PUSH2 0x485E JUMPI DUP3 MLOAD PUSH2 0x4857 JUMPI PUSH1 0x1 PUSH1 0x1 PUSH1 0xA0 SHL SUB DUP6 AND EXTCODESIZE PUSH2 0x4857 JUMPI PUSH1 0x40 MLOAD PUSH3 0x461BCD PUSH1 0xE5 SHL DUP2 MSTORE PUSH1 0x20 PUSH1 0x4 DUP3 ADD MSTORE PUSH1 0x1D PUSH1 0x24 DUP3 ADD MSTORE PUSH32 0x416464726573733A2063616C6C20746F206E6F6E2D636F6E7472616374000000 PUSH1 0x44 DUP3 ADD MSTORE PUSH1 0x64 ADD PUSH2 0xD68 JUMP JUMPDEST POP DUP2 PUSH2 0x3CDB JUMP JUMPDEST PUSH2 0x3CDB DUP4 DUP4 DUP2 MLOAD ISZERO PUSH2 0x4873 JUMPI DUP2 MLOAD DUP1 DUP4 PUSH1 0x20 ADD REVERT JUMPDEST DUP1 PUSH1 0x40 MLOAD PUSH3 0x461BCD PUSH1 0xE5 SHL DUP2 MSTORE PUSH1 0x4 ADD PUSH2 0xD68 SWAP2 SWAP1 PUSH2 0x4BBF JUMP JUMPDEST DUP1 CALLDATALOAD PUSH1 0xFF DUP2 AND DUP2 EQ PUSH2 0xC7E JUMPI PUSH1 0x0 DUP1 REVERT JUMPDEST PUSH1 0x0 PUSH1 0x20 DUP3 DUP5 SUB SLT ISZERO PUSH2 0x48AF JUMPI DUP1 DUP2 REVERT JUMPDEST DUP2 CALLDATALOAD PUSH2 0x3194 DUP2 PUSH2 0x501A JUMP JUMPDEST PUSH1 0x0 PUSH1 0x20 DUP3 DUP5 SUB SLT ISZERO PUSH2 0x48CB JUMPI DUP1 DUP2 REVERT JUMPDEST DUP2 MLOAD PUSH2 0x3194 DUP2 PUSH2 0x501A JUMP JUMPDEST PUSH1 0x0 DUP1 PUSH1 0x40 DUP4 DUP6 SUB SLT ISZERO PUSH2 0x48E8 JUMPI DUP1 DUP2 REVERT JUMPDEST DUP3 CALLDATALOAD PUSH2 0x48F3 DUP2 PUSH2 0x501A JUMP JUMPDEST SWAP2 POP PUSH1 0x20 DUP4 ADD CALLDATALOAD PUSH8 0xFFFFFFFFFFFFFFFF DUP2 GT ISZERO PUSH2 0x490E JUMPI DUP2 DUP3 REVERT JUMPDEST DUP4 ADD PUSH1 0x1F DUP2 ADD DUP6 SGT PUSH2 0x491E JUMPI DUP2 DUP3 REVERT JUMPDEST DUP1 CALLDATALOAD PUSH2 0x4931 PUSH2 0x492C DUP3 PUSH2 0x4E0C JUMP JUMPDEST PUSH2 0x4DDB JUMP JUMPDEST DUP2 DUP2 MSTORE DUP7 PUSH1 0x20 DUP4 DUP6 ADD ADD GT ISZERO PUSH2 0x4945 JUMPI DUP4 DUP5 REVERT JUMPDEST DUP2 PUSH1 0x20 DUP5 ADD PUSH1 0x20 DUP4 ADD CALLDATACOPY SWAP1 DUP2 ADD PUSH1 0x20 ADD SWAP3 SWAP1 SWAP3 MSTORE POP SWAP1 SWAP4 SWAP1 SWAP3 POP SWAP1 POP JUMP JUMPDEST PUSH1 0x0 PUSH1 0x20 DUP3 DUP5 SUB SLT ISZERO PUSH2 0x4974 JUMPI DUP1 DUP2 REVERT JUMPDEST DUP2 MLOAD DUP1 ISZERO ISZERO DUP2 EQ PUSH2 0x3194 JUMPI DUP2 DUP3 REVERT JUMPDEST PUSH1 0x0 PUSH1 0x20 DUP3 DUP5 SUB SLT ISZERO PUSH2 0x4994 JUMPI DUP1 DUP2 REVERT JUMPDEST POP CALLDATALOAD SWAP2 SWAP1 POP JUMP JUMPDEST PUSH1 0x0 PUSH1 0x20 DUP3 DUP5 SUB SLT ISZERO PUSH2 0x49AC JUMPI DUP1 DUP2 REVERT JUMPDEST POP MLOAD SWAP2 SWAP1 POP JUMP JUMPDEST PUSH1 0x0 DUP1 PUSH1 0x40 DUP4 DUP6 SUB SLT ISZERO PUSH2 0x49C5 JUMPI DUP2 DUP3 REVERT JUMPDEST DUP3 CALLDATALOAD SWAP2 POP PUSH1 0x20 DUP4 ADD CALLDATALOAD PUSH2 0x49D7 DUP2 PUSH2 0x501A JUMP JUMPDEST DUP1 SWAP2 POP POP SWAP3 POP SWAP3 SWAP1 POP JUMP JUMPDEST PUSH1 0x0 PUSH1 0x20 DUP3 DUP5 SUB SLT ISZERO PUSH2 0x49F3 JUMPI DUP1 DUP2 REVERT JUMPDEST DUP2 CALLDATALOAD PUSH1 0x1 PUSH1 0x1 PUSH1 0xE0 SHL SUB NOT DUP2 AND DUP2 EQ PUSH2 0x3194 JUMPI DUP2 DUP3 REVERT JUMPDEST PUSH1 0x0 DUP1 PUSH1 0x0 DUP1 PUSH1 0x0 DUP1 PUSH1 0x0 PUSH1 0xE0 DUP9 DUP11 SUB SLT ISZERO PUSH2 0x4A24 JUMPI DUP3 DUP4 REVERT JUMPDEST DUP8 CALLDATALOAD PUSH2 0x4A2F DUP2 PUSH2 0x501A JUMP JUMPDEST SWAP7 POP PUSH1 0x20 DUP9 ADD CALLDATALOAD SWAP6 POP PUSH1 0x40 DUP9 ADD CALLDATALOAD SWAP5 POP PUSH1 0x60 DUP9 ADD CALLDATALOAD SWAP4 POP PUSH1 0x80 DUP9 ADD CALLDATALOAD SWAP3 POP PUSH1 0xA0 DUP9 ADD CALLDATALOAD SWAP2 POP PUSH2 0x4A60 PUSH1 0xC0 DUP10 ADD PUSH2 0x488D JUMP JUMPDEST SWAP1 POP SWAP3 SWAP6 SWAP9 SWAP2 SWAP5 SWAP8 POP SWAP3 SWAP6 POP JUMP JUMPDEST PUSH1 0x0 PUSH1 0x20 DUP3 DUP5 SUB SLT ISZERO PUSH2 0x4A7F JUMPI DUP1 DUP2 REVERT JUMPDEST DUP2 MLOAD PUSH8 0xFFFFFFFFFFFFFFFF DUP2 GT ISZERO PUSH2 0x4A95 JUMPI DUP2 DUP3 REVERT JUMPDEST DUP3 ADD PUSH1 0x1F DUP2 ADD DUP5 SGT PUSH2 0x4AA5 JUMPI DUP2 DUP3 REVERT JUMPDEST DUP1 MLOAD PUSH2 0x4AB3 PUSH2 0x492C DUP3 PUSH2 0x4E0C JUMP JUMPDEST DUP2 DUP2 MSTORE DUP6 PUSH1 0x20 DUP4 DUP6 ADD ADD GT ISZERO PUSH2 0x4AC7 JUMPI DUP4 DUP5 REVERT JUMPDEST PUSH2 0xC07 DUP3 PUSH1 0x20 DUP4 ADD PUSH1 0x20 DUP7 ADD PUSH2 0x4F81 JUMP JUMPDEST PUSH1 0x0 PUSH1 0x20 DUP3 DUP5 SUB SLT ISZERO PUSH2 0x4AE9 JUMPI DUP1 DUP2 REVERT JUMPDEST PUSH2 0x3194 DUP3 PUSH2 0x488D JUMP JUMPDEST PUSH1 0x0 DUP1 PUSH1 0x40 DUP4 DUP6 SUB SLT ISZERO PUSH2 0x4B04 JUMPI DUP1 DUP2 REVERT JUMPDEST PUSH2 0x4B0D DUP4 PUSH2 0x488D JUMP JUMPDEST SWAP5 PUSH1 0x20 SWAP4 SWAP1 SWAP4 ADD CALLDATALOAD SWAP4 POP POP POP JUMP JUMPDEST PUSH1 0x0 DUP3 MLOAD PUSH2 0x4B2D DUP2 DUP5 PUSH1 0x20 DUP8 ADD PUSH2 0x4F81 JUMP JUMPDEST SWAP2 SWAP1 SWAP2 ADD SWAP3 SWAP2 POP POP JUMP JUMPDEST PUSH23 0x20B1B1B2B9B9A1B7B73A3937B61D1030B1B1B7BAB73A1 PUSH1 0x4D SHL DUP2 MSTORE PUSH1 0x0 DUP4 MLOAD PUSH2 0x4B69 DUP2 PUSH1 0x17 DUP6 ADD PUSH1 0x20 DUP9 ADD PUSH2 0x4F81 JUMP JUMPDEST PUSH17 0x1034B99036B4B9B9B4B733903937B6329 PUSH1 0x7D SHL PUSH1 0x17 SWAP2 DUP5 ADD SWAP2 DUP3 ADD MSTORE DUP4 MLOAD PUSH2 0x4B9A DUP2 PUSH1 0x28 DUP5 ADD PUSH1 0x20 DUP9 ADD PUSH2 0x4F81 JUMP JUMPDEST ADD PUSH1 0x28 ADD SWAP5 SWAP4 POP POP POP POP JUMP JUMPDEST PUSH1 0x1 PUSH1 0x1 PUSH1 0xA0 SHL SUB SWAP3 SWAP1 SWAP3 AND DUP3 MSTORE PUSH1 0x20 DUP3 ADD MSTORE PUSH1 0x40 ADD SWAP1 JUMP JUMPDEST PUSH1 0x20 DUP2 MSTORE PUSH1 0x0 DUP3 MLOAD DUP1 PUSH1 0x20 DUP5 ADD MSTORE PUSH2 0x4BDE DUP2 PUSH1 0x40 DUP6 ADD PUSH1 0x20 DUP8 ADD PUSH2 0x4F81 JUMP JUMPDEST PUSH1 0x1F ADD PUSH1 0x1F NOT AND SWAP2 SWAP1 SWAP2 ADD PUSH1 0x40 ADD SWAP3 SWAP2 POP POP JUMP JUMPDEST PUSH1 0x20 DUP1 DUP3 MSTORE PUSH1 0x2C SWAP1 DUP3 ADD MSTORE PUSH32 0x46756E6374696F6E206D7573742062652063616C6C6564207468726F75676820 PUSH1 0x40 DUP3 ADD MSTORE PUSH12 0x19195B1959D85D1958D85B1B PUSH1 0xA2 SHL PUSH1 0x60 DUP3 ADD MSTORE PUSH1 0x80 ADD SWAP1 JUMP JUMPDEST PUSH1 0x20 DUP1 DUP3 MSTORE PUSH1 0x2C SWAP1 DUP3 ADD MSTORE PUSH32 0x46756E6374696F6E206D7573742062652063616C6C6564207468726F75676820 PUSH1 0x40 DUP3 ADD MSTORE PUSH12 0x6163746976652070726F7879 PUSH1 0xA0 SHL PUSH1 0x60 DUP3 ADD MSTORE PUSH1 0x80 ADD SWAP1 JUMP JUMPDEST PUSH1 0x20 DUP1 DUP3 MSTORE PUSH1 0x2E SWAP1 DUP3 ADD MSTORE PUSH32 0x496E697469616C697A61626C653A20636F6E747261637420697320616C726561 PUSH1 0x40 DUP3 ADD MSTORE PUSH14 0x191E481A5B9A5D1A585B1A5E9959 PUSH1 0x92 SHL PUSH1 0x60 DUP3 ADD MSTORE PUSH1 0x80 ADD SWAP1 JUMP JUMPDEST PUSH1 0x20 DUP1 DUP3 MSTORE PUSH1 0xD SWAP1 DUP3 ADD MSTORE PUSH13 0x125B9D985B1A5908125B9C1D5D PUSH1 0x9A SHL PUSH1 0x40 DUP3 ADD MSTORE PUSH1 0x60 ADD SWAP1 JUMP JUMPDEST PUSH1 0x20 DUP1 DUP3 MSTORE PUSH1 0x2B SWAP1 DUP3 ADD MSTORE PUSH32 0x496E697469616C697A61626C653A20636F6E7472616374206973206E6F742069 PUSH1 0x40 DUP3 ADD MSTORE PUSH11 0x6E697469616C697A696E67 PUSH1 0xA8 SHL PUSH1 0x60 DUP3 ADD MSTORE PUSH1 0x80 ADD SWAP1 JUMP JUMPDEST PUSH1 0x20 DUP1 DUP3 MSTORE PUSH1 0x26 SWAP1 DUP3 ADD MSTORE PUSH32 0x5061757365725061757361626C653A2043616C6C6572206973206E6F74206120 PUSH1 0x40 DUP3 ADD MSTORE PUSH6 0x3830BAB9B2B9 PUSH1 0xD1 SHL PUSH1 0x60 DUP3 ADD MSTORE PUSH1 0x80 ADD SWAP1 JUMP JUMPDEST PUSH1 0x20 DUP1 DUP3 MSTORE PUSH1 0x2B SWAP1 DUP3 ADD MSTORE PUSH32 0x4D75737420686176652061646D696E20726F6C6520746F20706572666F726D20 PUSH1 0x40 DUP3 ADD MSTORE PUSH11 0x3A3434B99030B1BA34B7B7 PUSH1 0xA9 SHL PUSH1 0x60 DUP3 ADD MSTORE PUSH1 0x80 ADD SWAP1 JUMP JUMPDEST PUSH1 0x40 MLOAD PUSH1 0x1F DUP3 ADD PUSH1 0x1F NOT AND DUP2 ADD PUSH8 0xFFFFFFFFFFFFFFFF DUP2 GT DUP3 DUP3 LT OR ISZERO PUSH2 0x4E04 JUMPI PUSH2 0x4E04 PUSH2 0x5004 JUMP JUMPDEST PUSH1 0x40 MSTORE SWAP2 SWAP1 POP JUMP JUMPDEST PUSH1 0x0 PUSH8 0xFFFFFFFFFFFFFFFF DUP3 GT ISZERO PUSH2 0x4E26 JUMPI PUSH2 0x4E26 PUSH2 0x5004 JUMP JUMPDEST POP PUSH1 0x1F ADD PUSH1 0x1F NOT AND PUSH1 0x20 ADD SWAP1 JUMP JUMPDEST PUSH1 0x0 DUP3 NOT DUP3 GT ISZERO PUSH2 0x4E47 JUMPI PUSH2 0x4E47 PUSH2 0x4FD8 JUMP JUMPDEST POP ADD SWAP1 JUMP JUMPDEST PUSH1 0x0 DUP3 PUSH2 0x4E5B JUMPI PUSH2 0x4E5B PUSH2 0x4FEE JUMP JUMPDEST POP DIV SWAP1 JUMP JUMPDEST PUSH1 0x1 DUP2 DUP2 JUMPDEST DUP1 DUP6 GT ISZERO PUSH2 0x4E9B JUMPI DUP2 PUSH1 0x0 NOT DIV DUP3 GT ISZERO PUSH2 0x4E81 JUMPI PUSH2 0x4E81 PUSH2 0x4FD8 JUMP JUMPDEST DUP1 DUP6 AND ISZERO PUSH2 0x4E8E JUMPI SWAP2 DUP2 MUL SWAP2 JUMPDEST SWAP4 DUP5 SHR SWAP4 SWAP1 DUP1 MUL SWAP1 PUSH2 0x4E65 JUMP JUMPDEST POP SWAP3 POP SWAP3 SWAP1 POP JUMP JUMPDEST PUSH1 0x0 PUSH2 0x3194 DUP4 DUP4 PUSH1 0x0 DUP3 PUSH2 0x4EB9 JUMPI POP PUSH1 0x1 PUSH2 0xAA7 JUMP JUMPDEST DUP2 PUSH2 0x4EC6 JUMPI POP PUSH1 0x0 PUSH2 0xAA7 JUMP JUMPDEST DUP2 PUSH1 0x1 DUP2 EQ PUSH2 0x4EDC JUMPI PUSH1 0x2 DUP2 EQ PUSH2 0x4EE6 JUMPI PUSH2 0x4F02 JUMP JUMPDEST PUSH1 0x1 SWAP2 POP POP PUSH2 0xAA7 JUMP JUMPDEST PUSH1 0xFF DUP5 GT ISZERO PUSH2 0x4EF7 JUMPI PUSH2 0x4EF7 PUSH2 0x4FD8 JUMP JUMPDEST POP POP PUSH1 0x1 DUP3 SHL PUSH2 0xAA7 JUMP JUMPDEST POP PUSH1 0x20 DUP4 LT PUSH2 0x133 DUP4 LT AND PUSH1 0x4E DUP5 LT PUSH1 0xB DUP5 LT AND OR ISZERO PUSH2 0x4F25 JUMPI POP DUP2 DUP2 EXP PUSH2 0xAA7 JUMP JUMPDEST PUSH2 0x4F2F DUP4 DUP4 PUSH2 0x4E60 JUMP JUMPDEST DUP1 PUSH1 0x0 NOT DIV DUP3 GT ISZERO PUSH2 0x4F43 JUMPI PUSH2 0x4F43 PUSH2 0x4FD8 JUMP JUMPDEST MUL SWAP4 SWAP3 POP POP POP JUMP JUMPDEST PUSH1 0x0 DUP2 PUSH1 0x0 NOT DIV DUP4 GT DUP3 ISZERO ISZERO AND ISZERO PUSH2 0x4F65 JUMPI PUSH2 0x4F65 PUSH2 0x4FD8 JUMP JUMPDEST POP MUL SWAP1 JUMP JUMPDEST PUSH1 0x0 DUP3 DUP3 LT ISZERO PUSH2 0x4F7C JUMPI PUSH2 0x4F7C PUSH2 0x4FD8 JUMP JUMPDEST POP SUB SWAP1 JUMP JUMPDEST PUSH1 0x0 JUMPDEST DUP4 DUP2 LT ISZERO PUSH2 0x4F9C JUMPI DUP2 DUP2 ADD MLOAD DUP4 DUP3 ADD MSTORE PUSH1 0x20 ADD PUSH2 0x4F84 JUMP JUMPDEST DUP4 DUP2 GT ISZERO PUSH2 0x35B6 JUMPI POP POP PUSH1 0x0 SWAP2 ADD MSTORE JUMP JUMPDEST PUSH1 0x0 DUP2 PUSH2 0x4FBC JUMPI PUSH2 0x4FBC PUSH2 0x4FD8 JUMP JUMPDEST POP PUSH1 0x0 NOT ADD SWAP1 JUMP JUMPDEST PUSH1 0x0 DUP3 PUSH2 0x4FD3 JUMPI PUSH2 0x4FD3 PUSH2 0x4FEE JUMP JUMPDEST POP MOD SWAP1 JUMP JUMPDEST PUSH4 0x4E487B71 PUSH1 0xE0 SHL PUSH1 0x0 MSTORE PUSH1 0x11 PUSH1 0x4 MSTORE PUSH1 0x24 PUSH1 0x0 REVERT JUMPDEST PUSH4 0x4E487B71 PUSH1 0xE0 SHL PUSH1 0x0 MSTORE PUSH1 0x12 PUSH1 0x4 MSTORE PUSH1 0x24 PUSH1 0x0 REVERT JUMPDEST PUSH4 0x4E487B71 PUSH1 0xE0 SHL PUSH1 0x0 MSTORE PUSH1 0x41 PUSH1 0x4 MSTORE PUSH1 0x24 PUSH1 0x0 REVERT JUMPDEST PUSH1 0x1 PUSH1 0x1 PUSH1 0xA0 SHL SUB DUP2 AND DUP2 EQ PUSH2 0x1AF6 JUMPI PUSH1 0x0 DUP1 REVERT INVALID CALLDATASIZE ADDMOD SWAP5 LOG1 EXTCODESIZE LOG1 LOG3 0x21 MOD PUSH8 0xC828492DB98DCA3E KECCAK256 PUSH23 0xCC3735A920A3CA505D382BBC416464726573733A206C6F PUSH24 0x2D6C6576656C2064656C65676174652063616C6C20666169 PUSH13 0x6564A26469706673582212209F EQ LOG3 0x4E PUSH11 0x2D3541EBC6F77D0F597696 NOT 0xB2 JUMPDEST SAR PUSH12 0xAB5C66D5C3D6D8474F560464 PUSH20 0x6F6C634300080400330000000000000000000000 "},"methodIdentifiers":{"DEFAULT_ADMIN_ROLE()":"a217fddf","_BaseUpgradeablePausable_init(address)":"a12dde4d","__PauserPausable__init()":"526d81f6","deposit(uint8,uint256)":"f4d4c9d7","drawdown()":"e77ef21f","getOpportunityName()":"ddc22b74","getOverDuePercentage()":"07a7c08a","getRepaymentAmount()":"074f2543","getRoleAdmin(bytes32)":"248a9ca3","getSeniorPoolWithdrawableAmount()":"83933a2b","getSeniorProfit()":"d661d320","getSeniorTotalDepositable()":"9f964fe6","getUserWithdrawableAmount()":"7101fd16","grantRole(bytes32,address)":"2f2ff15d","hasRole(bytes32,address)":"91d14854","initialize(address,bytes32,uint256,uint256,uint256,uint256,uint8)":"c4f31a65","investor()":"1e0018d6","isAdmin()":"b6db75a0","isStaking(address)":"6f49712b","lockPool(uint8)":"6a15633b","nextRepaymentTime()":"df9fd1c1","opportunityManager()":"0e23994d","pause()":"8456cb59","pauseDrawdown()":"0b4a45fd","paused()":"5c975abb","proxiableUUID()":"52d1902d","reignConfig()":"b2a01055","reignToken()":"373ba911","renounceRole(bytes32,address)":"36568abe","repayment()":"17cd802d","revokeRole(bytes32,address)":"d547741f","s_dailyOverdueInterestRate()":"44f029c5","s_emiAmount()":"6a40af39","s_isDrawdownsPaused()":"45ff732b","s_juniorOverduePercentage()":"88f1d1f2","s_juniorSubPoolDetails()":"1b67bbc4","s_juniorYieldPercentage()":"60d86ab0","s_loanAmount()":"04b30ca4","s_loanInterest()":"3877f3e5","s_loanTenureInDays()":"9a3247ed","s_loanType()":"588387ec","s_opportunityID()":"5c9e2003","s_paymentFrequencyInDays()":"a95324cd","s_poolBalance()":"80a9eaa9","s_repaymentCounter()":"5d9889c3","s_repaymentStartTime()":"c40468e2","s_seniorOverduePercentage()":"e196a1d3","s_seniorSubPoolDetails()":"46e00489","s_seniorYieldPercentage()":"f0b7f6a1","s_stakingBalance(address)":"2d152814","s_totalOutstandingPrincipal()":"25d7c2f0","s_totalRepaidAmount()":"eb133798","s_totalRepayments()":"d6213758","supportsInterface(bytes4)":"01ffc9a7","unlockPool(uint8)":"cd7401b8","unpause()":"3f4ba83a","unpauseDrawdown()":"34d93fb4","upgradeTo(address)":"3659cfe6","upgradeToAndCall(address,bytes)":"4f1ef286","usdcToken()":"11eac855","withdrawAll(uint8)":"53654e85","writeOffOpportunity()":"257c2736"}}}}}